:100000000C9437030C9454030C9454030C946F24F5
:100010000C9454030C9454030C9454030C94540304
:100020000C9454030C9454030C94A42B0C94762C31
:100030000C94B8260C9454030C9454030C9454035D
:100040000C9454030C9454030C9454030C945403D4
:100050000C9454030C945D270C9454030C94540397
:100060000C9454030C9454030C9454030C945403B4
:100070000C9454030C9454030C9454030C945403A4
:100080000C9454030C9454030C9454030C94540394
:100090000C9454030C9454030C9454030C94540384
:1000A0000C9454030C9454030C945403630378038A
:1000B0009903B703D303EA03F90303040D041C04F3
:1000C00032044A04620479049604A204A704AE042C
:1000D000B604F907F907250825088D08AB089A0921
:1000E0009A09B008260937093709FC1AFF1A071BB5
:1000F000091B0B1B0D1B0F1B111BCF1C411DD71CFC
:10010000A11CA51CDB1CA81CDE1CE91CB31C371D94
:10011000B71CED1CBB1CF11C1B1DBF1CF51C251DB9
:10012000C51CFB1C051DAC1CE21CAF1CE51CCA1C3D
:10013000001D111D311D331D9D1CD31C4A1DA923FB
:10014000AF239D23A323B523BB23C123DE2C052D81
:10015000FD2D052DFD2D512D742DFD2DCB2DDA2DD1
:1001600014001A0009001300050004001500160011
:1001700017000A001D001B0006000700190024528A
:100180002C220000000000000D000F0018001C00D1
:1001900033001000110008000C0012000E000B00CC
:1001A0003600370038002C0022520000000000000A
:1001B00014001A00080015001700040016000700BC
:1001C00009000A001D001B0006001900050024524A
:1001D0002C220000000000001C0018000C0012007F
:1001E00013000B000D000E000F0033001100100073
:1001F0003600370038002C002252000000000000BA
:100200001E001F00200021002200360226022F00BF
:100210002F0221023702270230003002220225522B
:1002200023520000000000002300240025002600C7
:1002300027002E00380234002E0025021F021E0265
:1002400034022D0038000000010000000000000012
:100250003500350223022002000031022402310061
:100260002D0200000000000000000000000000005F
:10027000010000000000000000000000000000007D
:10028000000000000000000000000000000000006E
:10029000000000000000000001000000000000005D
:1002A00029001A01090119020C02E200E000E10034
:1002B000E300E6001D011B01060119012B000100EE
:1002C0004C000000000000004E004B004A004D00B2
:1002D000390017015000510052004F002A012A0036
:1002E000000000000000280025520000000000006F
:1002F0003A003B003C003D003E00E200E000E1002F
:10030000E300E60000000000000000000000010023
:1003100000000000000000003F00400041004200DB
:1003200043004400450046000000000000000000BB
:1003300017701870007C0000010000000000000031
:100340000000097E0A7E0C7E0B7E057E027E037E07
:10035000047E0E7E0000007E0000017E0D7E000007
:10036000E100000000000000015200000000000059
:10037000000007520000000000000000085209526F
:10038000000000000000000000000000000000006D
:100390002B001E001F0007000900210014001A0096
:1003A000080015002900190016002000050004218E
:1003B0002C00000000000000117E127E00000000F2
:1003C000000000000000000000000000000000002D
:1003D0000000000000000052005200000000000079
:1003E0002B0014001A0008001500E100040016009C
:1003F00007000900E0001E001F0020002100060089
:100400002C00000000000000117E127E00000000A1
:1004100000000000000000000000000000000000DC
:100420000000000000000052005200000000000028
:100430002900D100CD00D200D3002B00CF00CE0088
:10044000D0004B00E300DB00D900DC004E00DA00F6
:1004500000520000000000001A012B132B0117139B
:10046000E20028005000510052004F0017131701FE
:10047000DD00DE00DF00E000E10000000000000021
:100480002C002252000004001500000000000000B3
:10049000000000002A2B28000000000000000000DF
:1004A0000000000000000029000000002C1E342085
:1004B000212224342627252E362D3738271E1F20AB
:1004C0002122232425263333362E37381F040506F0
:1004D0000708090A0B0C0D0E0F1011121314151634
:1004E0001718191A1B1C1D2F3130232D3504050632
:1004F0000708090A0B0C0D0E0F1011121314151614
:100500001718191A1B1C1D2F3130354C0000000024
:1005100000000000000000000000000000000000DB
:1005200000000000000000000000000000000000CB
:100530007E0F00D4FFFFFFC7000000781A034600BB
:10054000650072007200690073002000730077007C
:100550006500650070000000080344005000420080
:1005600000000403090409023B00020100A0FA098B
:1005700004000001030101000921110100012240D2
:1005800000070581030800010904010001030000C0
:1005900000092111010001227B00070582032000D0
:1005A000011201000200000008ABC239390100014C
:1005B00002000105010902A10185020901A100054E
:1005C0000919012908150025019508750181020501
:1005D00001093009311581257F95027508810609C9
:1005E000381581257F950175088106050C0A3802AA
:1005F0001581257F950175088106C0C00501098018
:10060000A101850319012AB700150126B70095013C
:1006100075108100C0050C0901A101850419012A8A
:10062000A002150126A002950175108100C00501E8
:100630000906A101050719E029E71500250195081C
:10064000750181029501750881010507190029FFCF
:10065000150026FF00950675088100050819012977
:1006600005950575019102950175039101C011244D
:100670001FBECFEFDAE0DEBFCDBF11E0A0E0B1E0FA
:10068000E8EFFDE502C005900D92AA3FB107D9F74A
:1006900027E0AAEFB1E001C01D92A337B207E1F74E
:1006A0000E9427180C94FA2E0C940000FC01FE57AF
:1006B000E331F10508F066C1DB01EA5AFF4F1296FB
:1006C0009C910C94512E992309F45CC10E947B0FDC
:1006D000882339F00E948E0F81EE0E94020785E385
:1006E00035C00E948E0F81EE0E94020785E338C05C
:1006F000992309F447C10E947B0F882339F00E9497
:100700008E0F81EE0E94020785E35AC00E948E0F71
:1007100081EE0E94020785E30E94A80781EE0E94F5
:10072000580782E10E94A807809143070E948B0F1F
:1007300029C1992309F426C10E947B0F882351F017
:100740000E948E0F81EE0E94020783E20E94A8079A
:1007500084E0DFC00E948E0F81EE0E94020783E2D8
:100760000E94A80781EE0E94580784E0DBCF9923FE
:1007700009F408C10E947B0F882349F00E948E0F64
:1007800081EE0E94020783E20E94A8077AC00E94BD
:100790008E0F81EE0E94020783E20E94A80781EE7D
:1007A0000E94580775C0992309F4ECC00E947B0F82
:1007B000882349F00E948E0F81EE0E94020783E297
:1007C0000E94A8078EC00E948E0F81EE0E94020731
:1007D00083E2A2CF992309F4D5C00E947B0F88231E
:1007E00021F00E948E0F85E331C00E948E0F85E3B9
:1007F00036C0992309F4C6C00E948E0F81EE0E9474
:10080000020783E213C0992309F4BCC00E948E0F33
:1008100084E30E94A8078CE285CF992309F4B2C033
:100820000E948E0F81EE0E94020784E30E94A807B7
:1008300081EE0E945807EFCF992309F4A3C00E94CC
:100840007B0F882349F00E948E0F84E30E94A80743
:1008500081EE0E9402077CCF0E948E0F84E30E94EB
:10086000A80783CF992309F48DC00E947B0F8823AA
:1008700051F00E948E0F84E30E94A80781EE0E942F
:10088000020788E046C00E948E0F84E30E94A807FA
:1008900088E048CF992309F475C00E947B0F882314
:1008A00051F00E948E0F84E30E94A80781EE0E94FF
:1008B00002078CE02EC00E948E0F84E30E94A807DE
:1008C0008CE030CF992309F45DC00E947B0F882310
:1008D00051F00E948E0F84E30E94A80781EE0E94CF
:1008E000020782E116C00E948E0F84E30E94A807CF
:1008F00018CF992309F446C00E947B0F882379F012
:100900000E948E0F84E30E94A80781EE0E940207D6
:1009100088E10E94A80781EE0E94580705CF0E9437
:100920008E0F84E30E94A80788E1FCCE992351F141
:1009300086EE0E94020786E30E94A80786EE0E94C8
:10094000580720C09923F1F089E691E004C099236B
:10095000C9F08CE691E00E94271E14C0992391F003
:1009600088E20E94A8078FE691E007C0992351F022
:1009700088E20E94A8078FE791E00E94271E88E284
:100980000E94A80781E0089588E00E94D80A81119A
:1009900006C087E00E94D80A91E08927089580E088
:1009A00008958C3221E2920729F08C32924211F0A4
:1009B00080E0089581E008958A30B0F46830A0F4B2
:1009C000453090F498E2899FF001112485E0689FFA
:1009D000E00DF11D1124E40FF11DEE0FFF1FE05A91
:1009E000FE4F85919491089580E090E008950E94D3
:1009F000DC0408959C013A9521153F4130F5BC0176
:100A000066277270AC01442754709C01222738700D
:100A100094FF0FC090FF02C080E101C080E0672B0F
:100A200009F08062452B09F08064232B79F08068FF
:100A30000895892F8170672B09F08260452B09F09A
:100A40008460232B19F08860089580E00895CF9387
:100A5000DF93EB010E94FA04FE010995DF91CF912B
:100A60000895CF93DF93EC01805E9109089710F011
:100A7000209719F462EB77E002C06AE07AE0CE01D9
:100A80000E9427058C2F0E940207DF91CF910895C5
:100A9000CF93DF93EC010E945807CE01805E91094D
:100AA000089710F0209719F469EB77E002C061E134
:100AB0007AE0CE010E942705DF91CF9108950F9330
:100AC0001F93CF93DF938C01EB010E943105209798
:100AD00041F08FE99FE00197F1F700C000002197F6
:100AE000F6CFC8010E944805DF91CF911F910F9169
:100AF00008958933910519F060E070E002C060E567
:100B000070E00E945F05089581E008950E945603F9
:100B1000089508950E9489050895A5E0B0E0E3E9ED
:100B2000F5E00C94662E49835A8330910102898145
:100B30009A81311114C0662359F0222349F00E9492
:100B4000B00B182F682F89819A810E948C0B03C0EB
:100B50000E949E0B182F69817A81812F04C00E9408
:100B6000B00B69817A810E94ED122596E3E00C9426
:100B7000822EFC0186819781009741F4262F4081C7
:100B800051816281738184810E948D050895CF9384
:100B9000DF93EC0161E00E94B905BE010E94FB1FDA
:100BA000DF91CF910895CF93DF93EC0160E00E9435
:100BB000B905BE010E948A05DF91CF9108950E9478
:100BC000771408950E947114089508950E94320ABE
:100BD0000E94E5052FEF84E39CE021508040904087
:100BE000E1F700C0000008950E94E6050E948327F7
:100BF00008950E94E6050E94942708950F931F937D
:100C0000CF93DF938C0161E00E94B905EC01B8013C
:100C10000E946122882309F450C0B801CE010E94CD
:100C20008605882309F449C0B801CE010E94E51A5F
:100C3000882309F442C0B801CE010E949123882381
:100C4000E1F1B801CE010E94791C8823B1F1B8010D
:100C5000CE010E94F722882381F1F8018281882346
:100C600041F1C3308CE7D807D1F040F4C115FCE75F
:100C7000DF0791F0C130DC47A1F01BC0CB35ECE7BA
:100C8000DE07A9F0CC35FCE7DF0771F0CA35DC4799
:100C900081F40E9460100DC00E94F4050EC00E94F5
:100CA00068100E94F90509C00E94561002C00E94F7
:100CB0006410C8010E94840501C080E0DF91CF91DB
:100CC0001F910F9108950E9491260E948D0608950C
:100CD0000E9491060E949A26089508950E946D062A
:100CE000089581E008950895CF93DF93D82F0E944F
:100CF0007106C82F882319F08D2F0E9473068C2F40
:100D0000DF91CF9108950895CF93C82F0E946E066A
:100D10008C2F0E947406CF91089580E00E94840673
:100D200008950E949A250E9484060895CF930E94F8
:100D30009A25C82F8091FC01C81779F0C093FC0157
:100D40000E9426276093FD017093FE018093FF01AE
:100D5000909300028C2F0E948406CF910895ADE0FD
:100D6000B0E0E5EBF6E00C94672E49875A876B8775
:100D70007C878D8761110E949E0F9E012F5F3F4FE0
:100D800088E0F90111928A95E9F785E0FE0139962C
:100D9000D90101900D928A95E1F789819A814C8160
:100DA0005D81452B31F09F3F31F491E08F3F19F485
:100DB00003C091E001C090E090FF0BC029813A810F
:100DC0004B815C816D817E818F8198850E94BE0EF2
:100DD00005C0C9010E94C7058111F0CF2D96E2E040
:100DE0000C94832EFC01808191810E94E20B089576
:100DF000662319F00E94AC1802C00E9407190E94D5
:100E00007E190895CF93882309F450C0C82F8CEF22
:100E10008C0F813AD0F46C2F80910E0190910F01CC
:100E20000E942026882349F06C2F80910E0190911A
:100E30000F010E9459260E94C20F6C2F80910E0153
:100E400090910F010E9456260CC080E28C0F8830D2
:100E500058F4C77081E001C0880FCA95EAF70E9474
:100E60007E0F0E94C20F22C0EBE5EC0FE33040F48E
:100E7000F0E0E154FE4F808190E00E94CA2516C048
:100E8000E8E5EC0FE93150F4F0E0EE0FFF1FE35717
:100E9000FE4F808191810E94EF2508C083E38C0F73
:100EA000833120F461E08C2F0E94F806CF910895E1
:100EB0008823A9F19CEF980F913A40F4682F809114
:100EC0000E0190910F010E9459260DC090E2980FDB
:100ED000983060F4877091E001C0990F8A95EAF725
:100EE000892F0E94840F0E94C20F08959BE5980FDE
:100EF000933028F480E090E00E94CA25089598E598
:100F0000980F993128F480E090E00E94EF25089531
:100F100093E3980F933118F460E00E94F806089567
:100F20001F93CF93DF93182FEB010E9402072097A6
:100F300041F08FE99FE00197F1F700C00000219791
:100F4000F6CF812F0E945807DF91CF911F9108950E
:100F5000893319F060E070E002C060E570E00E9443
:100F600090070895882321F00E947E0F0E94C20FEF
:100F70000895882321F00E94840F0E94C20F0895D3
:100F8000A0E0B0E0E6ECF7E00C94612E7C01162FB7
:100F9000C72FFC01D281058102950F700E94740F4A
:100FA0008823B9F0DD23A9F08C2F807F803421F0D5
:100FB00080E2810F883068F08091490782FF09C084
:100FC00082E00E9424100E94740F91E0D82ED9264E
:100FD00001C0D12CCC2EC2948FE0C8228C2D90E081
:100FE0008C30910508F0A6C1FC01E759FF4F0C9425
:100FF000512E8C2F807FCF70882311F0C295C07F37
:10100000DD2399F0CC2309F481C180E2810F88307F
:1010100010F0111104C08C2F0E947E0F03C08C2F82
:101020000E94910F0E94C20F71C1812F0E94580728
:10103000CC2309F47FC180E2810F883038F111237D
:1010400029F18C2F0E94970F24C08C2F807FCF70A6
:10105000803211F0C295C07F112319F01130D1F107
:1010600046C08091490782FD17C0DD2349F0CC239B
:1010700029F08C2F0E947E0F0E94C20F80E047C192
:1010800080E00E945807CC2309F454C18C2F0E94A1
:10109000840F0E94C20F4EC1DD2371F0002341F086
:1010A000013031F40E94A10F8C2B0E94AB0F42C182
:1010B0000E94A10F8C2B14C0011103C00E94B80F15
:1010C00028C0013009F436C18C2F0E94B9070E9454
:1010D000B80F30C1DD2339F0063008F02BC18C2F5A
:1010E0000E94B20727C1053008F024C112C0DD23D9
:1010F00019F00023A1F30AC1002359F0193309F0B4
:1011000016C1FFEF27EE83E0F15020408040E1F769
:101110000CC18C2F0E94B9070DC18C2F8695869526
:10112000837019F0813061F005C1DD2321F0812F3A
:101130009C2F937002C080E090E00E94CA2502C1FB
:10114000DD2321F0812F9C2F937002C080E090E07E
:101150000E94EF25F7C06D2F812F0E94F806F2C084
:101160008C2F8370B1F5D111E9C0412F429546957E
:101170004770440F440F812F8F7090E09C01042E24
:1011800002C0220F331F0A94E2F714FF0AC08FE057
:1011900090E002C0880F991F4A95E2F780959095DC
:1011A00002C080E090E0C695C695C370822B932B59
:1011B000C23049F058F4C13019F00E94A30ABEC0F1
:1011C0000E949A0ABBC00E94AC0AB8C00E94970A4B
:1011D000B5C0DD2319F08C2F817001C0869588235E
:1011E00009F4ACC0412F429546954770440F440F17
:1011F000812F8F7090E09C01042E02C0220F331FBC
:101200000A94E2F714FF0AC08FE090E002C0880F52
:10121000991F4A95E2F78095909502C080E090E092
:10122000C695C695C370822B932BC23049F058F4F3
:10123000C13019F00E94270B81C00E941E0B7EC096
:101240000E94300B7BC00E94B80A78C0CF70DD23AB
:1012500039F08C2F0E94EC0A812F0E94B2076EC0D9
:10126000812F0E94B9078C2F0E94FC0A67C0123F91
:1012700021F128F4103F41F0113FC1F043C0133F6A
:1012800019F1143F79F03EC0DD2341F0053008F03C
:1012900051C08C2F8F710E940E0B4CC0063008F08D
:1012A00049C0F7CF8091490782FD18C0DD2339F08E
:1012B0008C2F8F710E94EC0A3DC0DD23C9F38C2F67
:1012C0008F710E94FC0A36C0DD2329F08C2F8F71AC
:1012D0000E94E00A2FC00E94BF0A2CC0DD2349F003
:1012E000CF718C2F0E94EC0A63E08C2F0E940610B5
:1012F00021C081E00E9424100230E0F082E00E94D0
:10130000241018C0DD2331F0002391F2812F0E94B8
:10131000020710C0002399F2193349F49FEFE7EE5A
:10132000F3E09150E040F040E1F700C00000812F71
:101330000E94580788EF8C0D843020F40E949A2573
:101340000E948406DD2089F00E94700F80FD0DC090
:10135000F70112820E946A0F0E94EC0AC7010E94E4
:10136000D9090E946A0F0E94FC0ACDB7DEB7E8E0F7
:101370000C947D2E0F931F93CF93DF93EC018E81FE
:101380009F81009719F00E94E81105C0688179815A
:101390008A810E94ED0B8C010E94390B0E94880A01
:1013A000B801CE010E94C007DF91CF911F910F912C
:1013B0000895CF93DF93EC01988189812B813C8143
:1013C000232B31F08F3F31F481E09F3F19F403C0AC
:1013D00081E001C080E080FD1AC0CE010E94FE05C0
:1013E00081110FC00E94740F882389F08A8188239D
:1013F00071F08091490782FF0AC082E00E942410A8
:1014000006C0CE010E94BA09CE010E94D305DF9129
:10141000CF910895882321F00E94910F0E94C20F5E
:101420000895882321F00E94970F0E94C20F08950B
:1014300080E090E00E94CA2580E090E00E94EF25C5
:101440000E949E0F0E94C20F0E949D190E947E1949
:10145000089580910E0190910F010E945C260E94D8
:10146000180A08950E948E0F0E94290A08959295E5
:101470009F70963079F010F4925001C09A509230DB
:1014800068F4803F69F018F4883E40F409C0843F56
:1014900029F406C0883E20F0813F11F080E00895D5
:1014A00081E00895FC019081818123813481232B87
:1014B00031F08F3F31F481E09F3F19F403C081E0A8
:1014C00001C080E080FD0EC086819781009719F0F1
:1014D0000E94E81104C0808191810E94E20B0E9469
:1014E000370A089580E00895A5E0B0E0EAE7FAE061
:1014F0000C94672E2596E2E00C94832EA8E0B0E0D1
:10150000E4E8FAE00C94672E2896E2E00C94832E2F
:10151000089508950E94890A08950E948A0A0895EC
:101520000E948D0A909319028093180208950E94D8
:10153000900A08952091180230911902822B932B62
:101540000E94900A08952091180230911902822376
:1015500093230E94900A0895209118023091190255
:10156000822793270E94900A08950E94890A08956D
:101570000E94B50A9093170280931602089580E0A6
:1015800090E00E94B80A0895009721F481E0662354
:1015900071F00CC021E030E002C0220F331F6A95C9
:1015A000E2F72823392381E0232B09F480E0089512
:1015B000682F80911602909117020E94C40A089524
:1015C00021E030E0A90102C0440F551F8A95E2F7DF
:1015D000CA010E94B80A089521E030E002C0220F3B
:1015E000331F8A95E2F78091160290911702822BA1
:1015F000932B0E94B80A089521E030E002C0220F28
:10160000331F8A95E2F720953095809116029091CC
:101610001702822393230E94B80A089521E030E044
:1016200002C0220F331F8A95E2F780911602909133
:101630001702822793270E94B80A08952091160264
:1016400030911702822B932B0E94B80A08952091A3
:10165000160230911702822393230E94B80A08953C
:101660002091160230911702822793270E94B80A10
:1016700008950895962F9770A1E001C0AA0F9A953A
:10168000EAF793E0769567959A95E1F7660F771FED
:10169000660F771FFA01E60FF71F40E050E0682F52
:1016A00070E090819B01042E02C0369527950A9424
:1016B000E2F72170219529272A23292721934F5FBB
:1016C0005F4F4430510569F70895FB01782F77701B
:1016D00023E0969587952A95E1F7880F991F880F43
:1016E000991FE80FF91F40E050E080E0219130E0C1
:1016F000072E02C0369527950A94E2F7217033270A
:10170000042E01C0220F0A94EAF7822B4F5F5F4F2D
:101710004430510559F70895282F983070F48530DA
:1017200060F4862F622F70E025E0929F600D711D9E
:10173000112442E052E00E943A0B0895983070F470
:10174000853060F4292F90E062E072E035E0239F5D
:10175000800D911D11240E94650B089580E008956D
:10176000A0E0B0E0E6EBFBE00C94602E7C01009181
:101770001602109117028091180290911902082BFD
:10178000192BCFE0D0E0CC24C394D12CC6010C2E71
:1017900002C0880F991F0A94E2F780239123892BB6
:1017A00021F4219798F7B12C07C0BC2EB7018C2FDC
:1017B0000E94F9120197A9F38B2DCDB7DEB7E9E0AE
:1017C0000C947C2ECF93DF93EC010E94B00BBE01F2
:1017D0000E94F912DF91CF9108951F93CF93DF9369
:1017E000EB0190910102992321F0CB010E94E20BC1
:1017F00013C0882349F0CB010E94B00B182F682F2B
:10180000CE010E948C0B04C0CB010E949E0B182FAE
:10181000BE01812F0E94F912DF91CF911F9108958F
:10182000CF93DF93C0911A0280911B02C817B1F0C9
:10183000D0E0FE0183E0EE0FFF1F8A95E1F7E45E42
:10184000FD4F208131814281538164817581868180
:1018500097810E947E0A2196C770E6CFDF91CF91D3
:10186000089520915C0230915D0240915E0250919A
:101870005F026091600270916102809162029091BA
:1018800063020E947E0A089520911A0290911B0221
:101890002917B1F030E0F90153E0EE0FFF1F5A9520
:1018A000E1F7E45EFD4F5181561306C05081581395
:1018B00003C05281541306C02F5F3F4F2770E8CFFB
:1018C00080E0089581E008951F93CF93DF93809186
:1018D000610282958F7009F05AC080915E02882360
:1018E00009F455C080911A0210911B0260915C02AC
:1018F00070915D02C0915F02D091600291E06F3FF4
:1019000009F090E0292F811709F441C0209721F0B8
:101910007F3F21F030E003C031E001C0322F90E082
:1019200030FD32C0FC0133E0EE0FFF1F3A95E1F7C6
:10193000DF01A45EBD4F11963C911197371324C06F
:101940003C91361321C012963C91129731111CC064
:1019500013964D915C9114974C1B5D0B4A3F5105BA
:1019600098F4809161028F70806180936102EF5DD5
:10197000FD4F80818F70806180838CE592E00E94B2
:10198000D9090E94100C03C001968770BCCFDF916B
:10199000CF911F910895A5E1B0E0E1EDFCE00C943A
:1019A0005B2E8C0185E0F801DE01519601900D92CD
:1019B0008A95E1F7D8016C9011967C901197129658
:1019C000EC9012971396CD90DC90149760E08CE524
:1019D00092E00E94B9054C0190915C0220915D0259
:1019E00040915F02509160024115510531F02F3F47
:1019F00031F481E09F3F19F403C081E001C080E031
:101A000080FD9DC18CE5A82E82E0B82EF0905E028C
:101A1000F601E41BF50BFF2009F456C18091610229
:101A2000EA3FF10508F002C1D80111964C911197D7
:101A3000382F307F09F09DC042131FC02C9129130D
:101A40001CC0409162025091630216962D913C9108
:101A500017974217530789F4FE2CE1100EC08F70C0
:101A60008061809361020E94310CC5010E94D909F6
:101A700080916102F80185837CC1C114D10439F0E1
:101A8000FFEF7F1206C081E06F1203C003C081E048
:101A900001C080E080FD03C081E08E2502C080E0AF
:101AA00090E080FF17C04E2D672D862D0E94440CBC
:101AB000882381F06CE572E0C4010E94D104882380
:101AC00049F08CE592E00E94D909ECE5F2E088E06B
:101AD000DF01BDC0C114D10439F0BFEF7B1206C0D5
:101AE00081E06B1203C003C081E001C080E080FD93
:101AF00003C081E08E2502C080E090E0E82FE17015
:101B0000DE2E80FF2CC04E2D672D862D0E94440CAA
:101B1000F82E811124C0698A7A8A89899A890E945B
:101B2000E20B292F22952F70223018F0243090F4E8
:101B300005C09F7059F0811109C01BC19F7031F021
:101B4000D80115969C91907F09F413C1805E88306E
:101B500008F40FC1C8010E94D909FD2C0AC1FE2C4E
:101B6000EE2009F406C180916102816080936102D8
:101B700073C042131CC0F8012081291318C0409182
:101B8000620250916302268137814217530779F42C
:101B9000E1100DC08583C8010E94D90988E0F801D1
:101BA000ACE5B2E001900D928A95E1F7E0C0C80182
:101BB0000E94520A8823A1F1EE2091F12091610246
:101BC000822F82958F7090E00297A4F080915C0242
:101BD00090915D029A8789871B86DD86CC862E8749
:101BE0008091620290916302988B8F87CE01099653
:101BF0000E94D90988E0F801ACE5B2E001900D92AD
:101C00008A95E1F70E94640C0E94310C0CC0F80127
:101C10003181321719F1C8010E94520A811136C070
:101C2000C8010E94D909FF24F394A3C0382F307F44
:101C300071F77C2DDD8ACC8AA3016E2D8D890E94DF
:101C4000740A8CE592E00E94D90988E0D5011D92C2
:101C50008A95E9F70E94310CF12C8BC02081291361
:101C6000DACF409162025091630226813781421798
:101C7000530789F6E110CFCF8583C8010E94D909A7
:101C800088E0D5011D928A95E9F773C0EE2041F2F4
:101C900020916102822F82958F7090E002970CF460
:101CA000A9CF80915C0290915D029A8389831B8207
:101CB000DD82CC822E8380916202909163029887AC
:101CC0008F83CE01019694CFEA3FF10550F5FE2CAB
:101CD000EE2009F4A5CFF8018181821314C0808120
:101CE000891311C02091620230916302868197812D
:101CF0002817390741F488E0ACE5B2E001900D9275
:101D00008A95E1F736C0C8010E94520A811172CF4C
:101D100080916102816080936102C8010E94D909AB
:101D200028C07C2DDD8ACC8AA3016E2D8D890E946E
:101D3000740A88E0D5011D928A95E9F718C0EE2053
:101D400009F46ECFC8010E94520AF82E882309F4C4
:101D500067CF88E0F801ACE5B2E001900D928A957A
:101D6000E1F78CE592E00E94F2060E94640C0E946A
:101D7000310C8F2D6596EEE00C94772EA0E1B0E04B
:101D8000E4ECFEE00C94672E29873A874B875C874A
:101D90006D877E878F87988BCE0109960E94CB0C2A
:101DA0008823E1F099858A852C853D85232B31F0A8
:101DB0008F3F31F481E09F3F19F403C081E001C0FF
:101DC00080E080FD6FC029853A854B855C856D85F7
:101DD0007E858F8598890E947E0A64C088E0FE0116
:101DE0003996DE01119601900D928A95E1F7798579
:101DF0006A854C855D854115510531F06F3F31F4A1
:101E000081E07F3F19F403C081E001C080E080FDE4
:101E100049C0A0911B02B0E0CD01019687709927BF
:101E200020911A0230E08217930709F442C07983A7
:101E30006A835D834C8393E0AA0FBB1F9A95E1F7F9
:101E4000A45EBD4F98E0FE01319601900D929A95E7
:101E5000E1F780931B020E94100C24C028E0829FAF
:101E6000C0011124845E9D4F0E94CB0C882371F128
:101E7000E0911A0288E0E89FF0011124E45EFD4F32
:101E8000208131814281538164817581868197816E
:101E90000E947E0A80911A0290E00196877099272D
:101EA00080931A0280911A0290911B028913D6CF57
:101EB0000DC00E94320A10921B0210921A02ECE529
:101EC000F2E088E0DF011D928A95E9F76096E2E092
:101ED0000C94832E80916C02859585958595089547
:101EE00080916C028770089590916C02977081E0E8
:101EF00009F480E008958091770208959091770227
:101F0000892B809377020895809590917702892399
:101F10008093770208958093770208951092770254
:101F2000089590917602892B80937602089580958A
:101F3000909176028923809376020895109276021A
:101F4000089580916D02089508950E94A40F089548
:101F50000E94A50F08959091490792FF08C09091A3
:101F60006D02981721F080936D020E94A80F0895CA
:101F700080916D02882329F010926D0280E00E940A
:101F8000A80F0895CF93DF93E0910E01F0910F0118
:101F9000809177028083E0910E01F0910F01908192
:101FA00080917602892B808380916D02882381F055
:101FB000E0910E01F0910F019081892B8083809137
:101FC0000E0190910F010E94142681110E94B80FFA
:101FD000C0910E01D0910F0148E050E064E672E03C
:101FE000CE010E94A22E892B59F088E0FE01A4E6C2
:101FF000B2E001900D928A95E1F7CE010E94B125E1
:10200000DF91CF9108950E94A40F08959091490700
:1020100092FF11C098E0899F90011124262B2093F4
:102020006C020E94EC0A80916C02859585958595DD
:102030000E94031008950E94EC0A089510926C0209
:1020400080E00E940310089520916C028095822305
:1020500080936C02982F977099F430E0482F082EE7
:10206000000C550B2417350759F09091490792FF42
:1020700007C08595859585950E94FC0A0E941E10D3
:1020800008959091490792FB222720F9281769F0BB
:1020900080FB92F9909349078091480790914907F6
:1020A0000E94891082E00E942410089580914907BF
:1020B00082FB882780F991E089270E9441100895CA
:1020C00081E00E944110089580E00E94411008952F
:1020D0006FEF7FEF80E090E00E94E42E089580E0B3
:1020E00090E00E94C02E21E0873E9E4F09F020E044
:1020F000822F089582E090E00E94B82E089583E038
:1021000090E00E94B82E089584E090E00E94C02ED6
:102110000895BC0184E090E00E94E42E0895AB0194
:10212000BC018FE090E00E94D82E0895AB01BC0165
:1021300083E190E00E94D82E089560E070E0CB012A
:102140000E949610089560E070E0CB010E948F100D
:102150000E949D10089567EE7EEF80E090E00E945F
:10216000E42E60E082E090E00E94C62E60E083E012
:1021700090E00E94C62E109219021092180260E0A0
:1021800074E184E090E00E94E42E60E086E090E05C
:102190000E94C62E6FEF87E090E00E94C62E40E0BE
:1021A00050E0BA0188E090E00E94D82E60E08DE017
:1021B00090E00E94C62E40E050E0BA0188E190E035
:1021C0000E94D82E60E087E190E00E94C62E40E099
:1021D00050E0BA018CE190E00E94D82E60E070E0FF
:1021E00080E290E00E94E42E40E050E0BA0188E1F5
:1021F00090E00E94D82E0E94A31008950E94AB1078
:1022000008958EE090E00E94B82E91E0811101C007
:1022100090E0892F0895682F8EE090E00E94C62EEE
:1022200008950E9426276093860270938702809308
:102230008802909389026093820270938302809354
:1022400084029093850208950E94131608950895BC
:102250000E94271108950E94271108950E942B11B2
:1022600008950E94271108950E94311108950E9437
:10227000271108958DE194E10E9490250E94371165
:102280000E94341108950E9428110E942711089578
:102290000E9448140E9483060E94361B08950E94E3
:1022A00011270E94DD130E942B160E9443150E94E5
:1022B00048110E94BF1A0E943B160E942E110895D9
:1022C0000E94131681110E94B41F0895AAE0B0E085
:1022D000ECE6F1E10C945F2E0E9498158AE7E82E57
:1022E00082E0F82E670100E0F60111916F01802F66
:1022F0000E94661481270F5F083019F08823A1F32C
:1023000022C0811120C00E941A278C01809178027E
:10231000909179020817190709F450C08FEF89834B
:102320008A831B820E941A278160782F9D838C8369
:1023300049815A816B818D810E94AF061093790289
:10234000009378023BC080918A0281FD0E946C1448
:102350000E942411A82E10E0812F0E946614B82E2E
:10236000F701C080C82611F100E0DD24D3948C2D44
:102370008D21B1F0AA20A1F00E831F8391E08B2D57
:102380008D2109F490E098870E941A278160782FA8
:102390009A8789874E815F8168858A850E94AF060A
:1023A0000F5FDD0C053019F7F701B0821F5FFFEFFB
:1023B000EF1AFF0A183081F60E9411110E94601175
:1023C0000E94BF190E9496062A96EAE00C947B2E82
:1023D000CF93DF930E94FE12EC01811520E5920756
:1023E000E0F5811530E4930708F09FC0803E910529
:1023F00028F58D3C910508F096C0883A910570F457
:10240000853A910508F085C08130910509F47EC0B8
:1024100008F4DCC0049708F0DCC0D8C0813C91050A
:1024200008F0D4C0C85AD0E0CC0FDD1FCE53DE4F29
:102430000990D881C02DCE019464CCC0811540E2B2
:10244000940708F0B8C0811551E0950708F0C1C0A5
:10245000883E910508F4BDC0B9C0803662E5960794
:1024600020F5803472E5970708F06CC0C03282E531
:10247000D80708F05EC0C11592E5D90708F489C0F5
:102480002C2F2695269560E2269F90011124C3707B
:1024900081E090E002C0880F991FCA95E2F7E90138
:1024A000C82BD92BCE019D6895C0803A22E59207B2
:1024B000E0F48F71C03832E5D30708F059C0869533
:1024C000869570E2879F900111249C2F9370C1E044
:1024D000D0E0AE0102C0440F551F9A95E2F7EA0121
:1024E000DA68C9018C2B9D2B75C0803C42E59407AE
:1024F00008F445C0803E924508F068C0CF71DD27E2
:10250000DC2FCC27CE01806F906A64C081E090E020
:1025100061C0C55AD0E0CC50DE4F8881C82FD0E0D2
:10252000CE01906457C0906555C0DF70CE01906AAF
:1025300051C0CF718C2F90E0D82FCC27CE01816F66
:10254000906A48C08F718695869570E2879FA0013A
:1025500011249C2F937021E030E0B90102C0660F76
:10256000771F9A95E2F7CB019C68842B952B32C09C
:1025700090E0D82FCC27CE01846F906A2BC08F714A
:102580000E949A138F7190E0D82FCC27CE019062D1
:1025900021C08C2F8F710E949A1395E0D695C79514
:1025A0009A95E1F7CF70D0E0DC2FCC27D069BE013F
:1025B000682BCB010FC08D2F8F710E949A13DD27DE
:1025C000D0628F719E01382BC90104C080E090E079
:1025D00001C0CE01DF91CF910895783038F4653095
:1025E00028F4462F672F0E94F704089580E090E0BA
:1025F00008950E94ED120E94E81108958238910515
:1026000069F1B0F48133910509F475C048F4893259
:10261000910509F467C08A32910509F471C00895E3
:102620008533910509F459C089339105B9F00895AE
:10263000833E910589F138F4803E9105D1F0823EC8
:10264000910529F10895863E9105C9F1873E9105CE
:10265000D9F1843E910509F06CC027C0209148074C
:1026600020FD57C021FD55C02091490723FD5BC0C7
:1026700008958091480780FD48C08091490780FFF8
:1026800048C08091480784FD46C083EE51C08091C8
:10269000480782FF3CC0F5CF8091480782FD37C0D4
:1026A0008091490780FD35C0ECCF8091490781FFBB
:1026B00036C08091480784FD2EC087EE39C08091D6
:1026C000480783FF2AC0F5CF8091480783FD25C0C6
:1026D0008091490781FD23C0ECCF8091480785FD9B
:1026E00022C01FC08091480785FD1BC0809149070B
:1026F00083FF19C00AC08091480786FD16C017C025
:102700008091480786FD13C010C089E311C082EE96
:102710000FC080EE0DC080E00BC086EE09C084EED5
:1027200007C085E305C089E203C08AE201C081E3F6
:1027300090E008959091480792FF0DC0282F2871CE
:10274000283019F4877F846006C0282F2471243034
:1027500011F48B7F886093FF0DC0282F28712831DA
:1027600019F4877E846106C0282F2471243111F466
:102770008B7E88612091490720FF0DC0382F38716A
:10278000383019F4877F816006C0382F31713130BD
:1027900011F48E7F886021FF0DC0282F2871283109
:1027A00019F4877E816106C0282F2171213111F42F
:1027B0008E7E886194FD877E089510924407109262
:1027C000450710924607109247070895CF92DF926F
:1027D000EF92FF926B017C010E94131681110EC0D3
:1027E0000E942627C61AD70AE80AF90AC0924407A7
:1027F000D0924507E0924607F0924707FF90EF908E
:10280000DF90CF9008950F931F930E941316882393
:1028100019F00E9426270EC00E9426270091440727
:10282000109145072091460730914707600F711FAF
:10283000821F931F1F910F91089580E008950E94B9
:1028400068100895CF930E9498158FE39CE9019733
:10285000F1F700C000000E9498150E941016811127
:1028600002C0C4E001C0C0E08C2F0E94661490E05A
:1028700002C095958795CA95E2F780FF04C00E9433
:102880001F140E948327CF9108950E942214089557
:102890000E946F10811102C00E94FE100E947A10E7
:1028A00080938A020E94841090934907809348077E
:1028B0000E9445140E947F1090E00E94970A809128
:1028C0001602909117020E94B50A0895E82FF0E0D1
:1028D000ED5AF84F80810895089508950E946D146F
:1028E00008950E946E1408950E946D1408950E9428
:1028F000741408950E946D140895A4E0B0E0E3E814
:10290000F4E10C94652E0E94131660915B078823F6
:10291000E9F119821A821B821C82862F90E08E01B7
:102920000F5F1F4FB8018D5A984F0E944916882398
:1029300089F080914A0790E044E050E0B8018D5A58
:10294000984F0E94A22E21E020938B02892B69F4DC
:1029500010E019C080918B028823D1F384E0F80144
:1029600011928A95E9F710928B02E0914A07F0E004
:10297000ED5AF84F89819A81AB81BC818083918324
:10298000A283B38311E00E94E2050DC070E06D5A8E
:10299000784F80914A0790E08D5A984F0E94D21646
:1029A0000E947A1410E0812F2496E4E00C94812E8A
:1029B000CF93DF9340E151E0A1E0B0E020E030E0D0
:1029C000FA01E20FF31F80818F3FA1F0E82FE2951B
:1029D000EF70F0E061A18F70ED0102C0CC0FDD1F40
:1029E0008A95E2F7CE019C2F9095962391A392A110
:1029F000892B82A32F5F3F4F2530310509F74B5FAD
:102A00005F4FD1E044325D07C9F6DF91CF91089561
:102A10000F931F93CF93DF93EC01062F10E085E017
:102A2000689FB001112440E050E0B1E0A0E0CA018D
:102A3000860F971F805F9E4FFC0190819F3FA1F002
:102A4000292F22952F7030E0F90120A130E09F70EE
:102A500002C0359527959A95E2F720FD02C08B2F8D
:102A600002C080E090E0A82BBB0F4F5F5F4F453066
:102A70005105E9F6F801EC0FFD1FA083DF91CF911E
:102A80001F910F910895A4E1B0E0E9E4F5E10C9401
:102A9000672E80912401811125C084E1E5E5F1E0F4
:102AA000DE01119601900D928A95E1F7CE01019613
:102AB00040E151E0BE016B5E7F4F20E030E0FA0163
:102AC000E20FF31FDC01A20FB31FAC91A0832F5FB5
:102AD0003F4F2530310599F705964B5F5F4F8617BD
:102AE000970759F780912401811102C094E001C039
:102AF00090E090935B0784E0891B80934A070E94D3
:102B0000D81488E0E3E5F7E0DF01982F1D929A954D
:102B1000E9F7EBE4F7E0DF011D928A95E9F784E03D
:102B20000E94D6150E94DF056496E2E00C94832E85
:102B3000A8E0B0E0EEE9F5E10C94642E8E010F5FA1
:102B40001F4F88E0F80111928A95E9F7F12C6F2D5B
:102B5000C8010E940815F394F4E0FF12F8CF48E092
:102B600050E0B8018BE497E00E94A22E21E000978C
:102B700009F420E0892B41F088E0F801ABE4B7E0EC
:102B800001900D928A95E1F760915B0770E06D5AB4
:102B9000784F44E08BE497E00E94D715182F0E94ED
:102BA0007D14812B2896E5E00C94802E0895EF92F9
:102BB000FF920F931F93CF93DF937C018B01C42F60
:102BC000222349F081E080938E020E941A2790937D
:102BD0008D0280938C0280918E02811102C080E070
:102BE0001AC080918C0290918D020E943227059725
:102BF000B0F3D0E0AE01B701C8010E94A22E892B2C
:102C000039F0AE01B701C8010E94AF2E81E001C0CA
:102C100080E010928E02CDB7DEB7E6E00C947F2EF6
:102C20000E94011108958091910281110DC00E94AE
:102C3000302E811102C082E001C081E080939102B8
:102C4000823011F40E942B2E81E0909191029130FC
:102C500009F080E008950E946F10811102C00E9467
:102C6000FE100E941016809324010E9413168111F9
:102C70000E94811608950E941316811102C00E94BD
:102C80008416089581E0909192029A3008F080E0D5
:102C900008950F931F93CF93DF93EC018B018091E5
:102CA00092028A3038F4B801CE010E94CF16811109
:102CB0001DC00AC080918F02909190020E9432271D
:102CC000843F914080F715C0809192028F3F19F0A8
:102CD0008F5F80939202809192028A3060F00E940E
:102CE0001A279093900280938F0203C01092920251
:102CF00002C080E001C081E0DF91CF911F910F9170
:102D000008950E942A2408950E942D240895A0E089
:102D1000B0E0EDE8F6E10C94622E7901C82F880F3F
:102D2000DD0B41155105A9F0FE0193E0EE0FFF1FE9
:102D30009A95E1F7EB5DFE4F818192818D569D4F13
:102D4000208130E04217530708F49A01A9010E943C
:102D5000AF2ECE010E941525D82E8823D1F0011563
:102D60001105B9F083E0CC0FDD1F8A95E1F7FE0174
:102D7000EB5DFE4F438150E00417150708F4A801EE
:102D8000CB5DDE4F6C817D816D567D4FC7010E940A
:102D9000AF2E8D2DCDB7DEB7E7E00C947E2E0E94CE
:102DA000CC1708950E94E3170895A4E0B0E0EBED7E
:102DB000F6E10C94652E6091A8027091A9028091B1
:102DC000AA029091AB020E944127643671058105E9
:102DD000910528F10E940314DC01CB010296A11D8C
:102DE000B11D89839A83AB83BC8300E010E020E0AF
:102DF00030E044E050E0BE016F5F7F4F82E00E9410
:102E00008716182F882361F00E9426276093A80256
:102E10007093A9028093AA029093AB0201C011E0C3
:102E2000812F2496E4E00C94812EA0E0B0E0EBE149
:102E3000F7E10C945F2E7C015B016A010E9442164F
:102E4000811103C001E010E002C00AE010E0C1E01F
:102E5000D0E0B501C701F6010995811115C0219691
:102E60000C171D0794F0CC9F9001CD9F300D300DB5
:102E7000112480E090E045E34A95F1F700000196C7
:102E800082179307C1F7E5CF81E0CDB7DEB7EAE05F
:102E90000C947B2EA5E0B0E0E0E5F7E10C945F2E0A
:102EA0005B01E090F701F090F80101E010E09E0175
:102EB0002B5F3F4F40E050E060E070E080E00E9418
:102EC0008716182F882309F43EC067018FEFC81AB0
:102ED000D80A6091A4027091A5028091A6029091F7
:102EE000A7020E944127643671058105910518F1FA
:102EF00004E010E09E012F5F3F4F40E050E060E0B3
:102F000070E081E00E948716182F64E070E0C6012F
:102F10000E94C01A91E02D81281390E0192351F1ED
:102F20000E9426276093A4027093A5028093A602B4
:102F30009093A70211C064E070E0C6010E94C01A1D
:102F40009D818913D5CFF70181819281A381B481BD
:102F500089839A83AB83BC83112361F089819A8131
:102F6000AB81BC818093A0029093A102A093A202A6
:102F7000B093A3028091A0029091A102A091A2021D
:102F8000B091A302F50180839183A283B383812F43
:102F90002596EAE00C947B2E0F931F93CF93DF933B
:102FA000EC018B014AE457E10E941517882331F0A8
:102FB00045ED56E1B801CE010E941517DF91CF9182
:102FC0001F910F9108950F931F93CF93DF93C0919B
:102FD000F701D091F801CE01019624E0FB01DC015C
:102FE00001900D922A95E1F764E070E00E94C01A0A
:102FF00088836D817E818F81988500919C021091DC
:103000009D0220919E0230919F02601771078207F6
:10301000930751F060939C0270939D0280939E02EF
:1030200090939F020E94E613DF91CF911F910F9121
:1030300008950E94FE280E944F110E940B290895B6
:103040000E9410290E9466110E942A2908950E9458
:10305000B1260E94E4280E943A110E9419180E9489
:1030600020180E944311FBCF8091B20280FF06C05E
:103070006091420170E0660F771F26C081FF04C097
:103080006091420184E005C082FF07C06091420167
:1030900088E0689FB001112417C09091B102992374
:1030A000D1F060914101961788F72091420188E0A4
:1030B000289F90011124929FA001939F500D1124ED
:1030C00070E0CA010E943D2E6038710540F4611520
:1030D000710519F406C068E070E0862F08958FE747
:1030E000089581E008958091B20280FF08C0609148
:1030F0003E0170E0759567957595679521C081FFD4
:1031000006C060913E0170E07595679519C082FF19
:1031100004C060913E0170E010C09091B00299230C
:1031200099F060913D019617A0F780913E01899F2B
:10313000C001112470E00E943D2E6038710540F4FA
:103140006115710519F406C061E070E0862F0895DD
:103150008FE7089581E008958D3C21F40E94341892
:10316000819504C08E3C29F40E9434188093B602E5
:1031700008958F3C21F40E943418819504C0803D4D
:1031800029F40E9434188093B5020895893D19F4FA
:103190000E94731805C08A3D31F40E94731881950E
:1031A0008093B70208958B3D21F40E947318819596
:1031B00004C08C3D29F40E9473188093B8020895CE
:1031C0009FE2980F983078F421E030E0A90102C026
:1031D000440F551F9A95E2F7CA019091B402892BCA
:1031E0008093B40208958D3D21F48091B2028160F4
:1031F0000BC08E3D21F48091B202826005C08F3DEC
:1032000029F48091B20284608093B20208958D3CCB
:1032100039F49091B60297FF35C01092B60259C0AA
:103220008E3C29F49091B6021916BCF32BC09091F4
:10323000B5028F3C29F497FF25C01092B50249C012
:10324000803D19F41916CCF31DC09091B702893D49
:1032500029F41916BCF41092B7023BC08A3D19F448
:1032600097FF10C0F8CF8B3D39F49091B80297FFCB
:1032700009C01092B8022DC08C3D21F49091B80283
:103280001916BCF39FE2980F983080F421E030E0EB
:10329000A90102C0440F551F9A95E2F7CA01809513
:1032A0009091B40289238093B40213C08D3D21F420
:1032B0008091B2028E7F0BC08E3D21F48091B202CC
:1032C0008D7F05C08F3D29F48091B2028B7F809362
:1032D000B2028091B502811106C08091B6028111BF
:1032E00002C01092B1028091B702811106C0809194
:1032F000B802811102C01092B00208950E941A27EC
:103300002091B502211104C02091B602222321F0A0
:103310009093AF028093AE022091B702211104C0B6
:103320002091B802222321F09093AD028093AC0249
:1033300083EB92E00E94BC250895E3EBF2E086E087
:10334000DF011D928A95E9F71092B1021092B00246
:103350001092B2020895FC01828181110DC0838117
:1033600081110AC08481811107C091E0858181119A
:1033700001C090E0892F01C081E081700895A6E02E
:10338000B0E0E5ECF9E10C94662E86E0E3EBF2E0C8
:10339000DE01119601900D928A95E1F71092B50227
:1033A0001092B6021092B7021092B8028B8181116E
:1033B00004C08C81882309F45FC08091AE02909193
:1033C000AF020E943227AC019091B102992339F0EB
:1033D0002091430130E02417350758F04DC020916B
:1033E00044018AE0289F900111242417350718F022
:1033F00043C09F3F19F09F5F9093B1021B8111233F
:1034000061F00E943418111614F09FEF01C091E092
:10341000989F902D11249093B5021C81112361F087
:103420000E943418111614F09FEF01C091E0989F8C
:10343000902D11249093B6023091B5023323E1F020
:103440002091B6022223C1F045EB3403C0011124C0
:10345000992319F09093B50203C081E08093B502DF
:1034600035EB2303C0011124992319F09093B60280
:1034700003C081E08093B6028D81811104C08E81EA
:10348000882309F45FC08091AC029091AD020E9444
:103490003227AC019091B002992339F020913F017D
:1034A00030E02417350758F04DC0209140018AE0E4
:1034B000289F900111242417350718F043C09F3F1F
:1034C00019F09F5F9093B0021D81112361F00E945B
:1034D0007318111614F09FEF01C091E0989F902D82
:1034E00011249093B7021E81112361F00E9473187A
:1034F000111614F09FEF01C091E0989F902D1124B8
:103500009093B8023091B7023323E1F02091B802D2
:103510002223C1F045EB3403C0011124992319F093
:103520009093B70203C081E08093B70235EB230389
:10353000C0011124992319F09093B80203C081E0CF
:103540008093B802BE016F5F7F4F83EB92E00E94D1
:103550006326811105C083EB92E00E94AB198111B3
:103560000E947E1986E0FE013196A3EBB2E0019045
:103570000D928A95E1F72696E3E00C94822E089549
:10358000FC01680F791F8FEF91E3E617F70771F0E1
:103590002191822728E030E087FF03C0880F892728
:1035A00001C0880F21503109B9F7EFCF0895FB0111
:1035B0002281222341F097FF06C0BC017F7780E083
:1035C00090E00E942A1C81E008950F931F93CF93EF
:1035D000DF93EC018B01FB018281882329F10E949A
:1035E0007B0F8272FE01E053FC47E830F105E0F406
:1035F000EB58FF4F0C94512E882329F002C0811103
:1036000002C08FEF01C081E00E94481B0DC080E026
:1036100009C081E007C082E005C083E003C084E008
:1036200001C085E00E94501BB801CE010E94D71A4C
:10363000DF91CF911F910F91089590915D07923086
:1036400071F48A3040F490E009966AE070E00E94DC
:103650003D2E875A01C086500E94A80708950E94F7
:103660002B1E089508950E94321B08958CE090E06F
:103670000E94B82E90E0A0E0B0E080935D079093A8
:103680005E07A0935F07B09360070E94331B089505
:10369000089560915D078CE090E00E94C62E089529
:1036A000CF93C82F80935D070E94491B8C2F0E94E7
:1036B000331BCF9108950E94AE2580935C079091B3
:1036C0005D07913029F481FF03C089E30E94A807B8
:1036D0000E947B0F809361070E948E0F0E949E0FB5
:1036E00080915D078230D9F038F48823A1F08130D1
:1036F00089F588E193E02CC0843019F1853051F5CB
:103700008BE191E00E94790585E290E00E947905C5
:1037100088E290E01DC082EE0E9402071BC08091EB
:103720005C0780FD03C083E50E94A80782EE0E942B
:1037300002078FE39CE90197F1F700C0000087E5DD
:1037400004C086EE0E94A80788E10E94A80702C074
:103750000E9479058FE39CE90197F1F700C0000012
:10376000089580915D078230E1F028F4882361F0AC
:10377000813071F023C08430F9F08530F9F488E2AB
:1037800090E00E9479051AC082EE0E94580716C088
:103790008CE20E94A80780915C0781FF0FC089E33B
:1037A00008C082EE0E94580780915C0780FD06C029
:1037B00083E50E94A80702C088E2FBCF80916107E1
:1037C0000E948B0F08958F929F92AF92BF92EF92BB
:1037D000FF920F931F93CF93DF934B015C01D09126
:1037E0005D078CE1E82EF12C07E010E021E0D50127
:1037F000C4010E2C04C0B695A795979587950A9499
:10380000D2F7C82FCF70222369F0D43031F4CA30F8
:1038100020F080E00E941D1B05C0C11103C00430D0
:10382000110524F48C2F0E941D1B20E0015011096A
:1038300084E0E81AF1080F3F8FEF1807C1F6DF9117
:10384000CF911F910F91FF90EF90BF90AF909F90FD
:103850008F900895CF92DF92EF92FF9261157105DC
:1038600021E18207910508F03FC06115710521E053
:103870008207910520F020915D072230A9F16B01AC
:103880007C010E945B1BC114D10481E0E806F104B5
:1038900028F180915D07811121C021E0E21AF10831
:1038A000D701C60188279C7FAF70BB272AE0B69559
:1038B000A795979587952A95D1F7BC01CD017852A8
:1038C0008F4F9F4F0E94E31B83E0D822EE24FF24FA
:1038D000C701B60174528F4F9F4F02C0C701B60196
:1038E0000E94E31B0E94B11BFF90EF90DF90CF90EE
:1038F0000895CF93DF93FC01DB0112968C9188230E
:1039000009F4DDC09F0130572332310508F0D8C0DB
:10391000EF010E9484109093490780934807FE01AD
:10392000E150F047E232F10520F4E358FF4F0C94E8
:10393000512E809148078160AAC080914907886014
:10394000B2C0809148078260A2C08091480720C021
:103950008091480788609BC0809149071EC0809174
:1039600049078260A0C080914807806190C0809123
:10397000480780628CC080914807806488C00E949C
:10398000320A80914807806882C080914807886029
:1039900084607DC0809149078260816084C080918D
:1039A00048078E7F74C080914907877F7CC08091D3
:1039B00048078D7F6CC08091480720C080914807E0
:1039C000877F65C0809149071EC0809149078D7F20
:1039D0006AC0809148078F7E5AC0809148078F7DCA
:1039E00056C0809148078F7B52C00E94320A809156
:1039F00048078F774CC080914807877F8B7F47C0EF
:103A0000809149078D7F8E7F4EC08091480782FB51
:103A1000222720F991E0922790FB82F990FB83F90D
:103A200036C080914907982F909591708E7F892B91
:103A300090FB81F938C08091480786FB222720F946
:103A400091E0922790FB86F922C00E94320A809171
:103A5000480787FB222720F991E0922790FB87F9FE
:103A600016C081E001C080E00E940B111EC0809151
:103A7000480784FB222720F991E0922790FB84F9E4
:103A800006C080914807982F909590FB80F980930D
:103A900048070BC08091490783FB222720F991E05A
:103AA000922790FB83F98093490780914807909172
:103AB00049070E9489100E94320A80E001C081E01B
:103AC000DF91CF910895A0E0B0E0E9E6FDE10C942C
:103AD000622EE82FF0E0E457FB4FD490282F269574
:103AE0002695269530E0F901E45DFA4F0491877040
:103AF00010E0082E02C0159507950A94E2F70170B0
:103B00001127F901E45EFA4FE490F12C082E02C06F
:103B1000F594E7940A94E2F791E0E922FF24F90191
:103B2000E45FFA4FC491D0E002C0D595C7958A955D
:103B3000E2F7C170DD270115110519F081EE0E9431
:103B40000207E114F10419F086EE0E9402078D2DA0
:103B50000E94A807E114F10419F086EE0E945807AC
:103B60000115110519F081EE0E945807CD2B19F0AF
:103B70008CE20E94A807CDB7DEB7E7E00C947E2E5A
:103B8000EF92FF920F931F93CF93DF93EC01162FC9
:103B90000AE08881882309F455C0813009F043C0C8
:103BA0008981813041F47E0182E0E80EF11C8A8136
:103BB0000E94A80709C0823049F47E01E2E0EE0EBF
:103BC000F11C8A810E940207E7012FC0833041F473
:103BD0007E01F2E0EF0EF11C8A810E945807F4CFBB
:103BE000843011F0219621C02A81229680E090E055
:103BF00030E0205331092A30310558F4089FA001E4
:103C0000099F500D1124C901840F951F2196288109
:103C1000EFCF009751F0EFE9FFE03197F1F700C0E7
:103C200000000197F6CF0E94631D2196812F882303
:103C300009F4AFCFEFE9FFE03197F1F700C00000E2
:103C40008150F5CFCDB7DEB7E6E00C947F2E60E073
:103C50000E94C01D0895982F9F709A50963010F0C2
:103C6000805D01C0895A0E94631D089508950F93D5
:103C70001F93CF93DF9380912403882309F459C0C5
:103C8000C091B9021CE080912403C81708F04DC010
:103C900001E00C0F0093B902D0E01C9FF0011D9FC2
:103CA000F00D1124EC53FD4F9081818123813481EB
:103CB000232B31F08F3F31F481E09F3F19F403C093
:103CC00081E001C080E080FD2EC01C9FD0011D9FBF
:103CD000B00D1124AC53BD4F16968D919C91179742
:103CE000892B61F418968D919C9119978F3F2FEF36
:103CF000920721F061E00E94361E0AC020813181C6
:103D00004281538164817581868197810E94BE0EB4
:103D10001C9FF0011D9FF00D1124EC53FD4F1482E8
:103D200013820E949E0FC02FAECF109224031092D8
:103D3000B902DF91CF911F910F9108951092260340
:103D4000109225032091460130914701E0E0F1E017
:103D500080E090E08217930741F04581411102C055
:103D60001482168201963796F5CF0895BC014091D2
:103D7000C2028091C302942F981729F1292F30E0B5
:103D8000F901EE0FFF1FE654FD4F0190F081E02D89
:103D9000E617F70799F487E0869FF001879FF00DFB
:103DA0001124E050FF4F81E0848394130CC02F5FF7
:103DB0003F4F237033272093C20208952F5F3F4F58
:103DC000922F9370D9CF0895A0E0B0E0EAEEFEE123
:103DD0000C945C2EEB012C8121115EC070902403A9
:103DE000A4ECB2E020E030E0812C61E070E0271527
:103DF00008F050C01A96AD90BC901B97C880D9802F
:103E00004FEF5FEF912CE92CF12CF701EE0FFF1F24
:103E1000EC0DFD1D05911491A016B10609F4A70142
:103E20000115110511F09394EECF4F3FEFEF5E07B0
:103E300069F1FB0102C0EE0FFF1F4A95E2F78E2ADF
:103E4000AB01092C02C0440F551F0A94E2F7415000
:103E50005109E82DF0E04E175F07A1F44A815B811C
:103E60006CE0629FF001639FF00D1124EC53FD4F55
:103E7000578346832EEF208321839187808721E01B
:103E80002D8308C014961C921E9213972F5F3F4FEC
:103E90001C96ADCF0E94B61ECDB7DEB7EDE00C94F8
:103EA000782E1F93CF93DF93C091C20217E08091C9
:103EB000C302C817A1F0D0E0FE01EE0FFF1FE654C9
:103EC000FD4F80819181189FB001199F700D1124C1
:103ED00060507F4F0E94E41E2196C370E8CF0E947D
:103EE000371E0E949E1EDF91CF911F910895FF9271
:103EF0000F931F93CF93DF93DC010C911196FC90ED
:103F0000119780E090E020E0E02FFF2DE20FF11DFF
:103F1000E20FF11D4591549141155105B1F0FB019E
:103F20001081318190E0E12FF32FE90FF11DE90FAE
:103F3000F11DC591D491209731F04C175D0709F41C
:103F400081E09F5FF0CF2F5FDFCF882321F09217B2
:103F500028F0CD0104C080E090E001C0CB01CDB7D6
:103F6000DEB7E5E00C94802E80914501882341F175
:103F70008091270390912803009711F10E94322726
:103F8000209125033091260328173907C8F4909112
:103F9000C2028091C302981759F00E94511F1092DB
:103FA00026031092250310922803109227030895E8
:103FB0000E94371E10922803109227030E949E1E13
:103FC00008951092280310922703109245018091C2
:103FD000C3028093C2020E949E1E0E94371E089553
:103FE00080914501882319F00E94E11F089581E026
:103FF000809345010895ABE0B0E0E1E0F0E20C947D
:10400000572E4C016B0180352CE7920741F4FB01E0
:1040100012811123B1F081E080934501A7C1813560
:10402000FCE79F0739F4FB011281112351F00E9434
:10403000E11F9CC182359C4721F4FB0112811111C3
:104040000EC000E011E0A12CB12C1B866624639405
:10405000712C9E012F5F3F4F3A8729873EC00E94F7
:10406000F01F84C1FFEFEF16FF0609F436C1F80117
:104070008481811155C080914501882309F450C085
:104080009601A401B801C5010E94C4048170F60123
:104090003280F80195812681332009F4BBC0882342
:1040A00009F4B8C0992309F43EC09301052C02C05D
:1040B000220F331F0A94E2F721503109F80186815B
:1040C00090E02817390709F444C0FB85F329FB87E2
:1040D0002FEFA21AB20A095F1F4F809146019091FB
:1040E0004701A816B90608F0FAC0F801208131810D
:1040F0009FEF8FEF512CE52CF12CF701EE0FFF1FF6
:10410000E20FF31F459154918416950611F0E92EA4
:10411000F82E452B09F4A6CF53949E2D8F2DEBCF6F
:1041200080E090E0B3CFC3010E2C01C0880F0A9449
:10413000EAF7282B26838091250390912603889700
:1041400008F0B3CF28E230E0309326032093250314
:10415000ACCF8091270390912803009741F00E94F3
:104160003227899720F021E0F8012483AECF2090F8
:10417000C20280E090E02091C3022216A9F1E22C55
:10418000F12CF701EE0FFF1FE654FD4F2081318126
:1041900047E0429FC001439F900D1124FC01E05075
:1041A000FF4F2F01B801CF010E94771F0097A9F0A0
:1041B00021E0FC0124830817190709F486CF209118
:1041C000C20222120AC04816590639F497012F5F1D
:1041D0003F4F237033272093C20297012F5F3F4F39
:1041E000422F4370242EC7CF0817190709F46DCF4B
:1041F000E22CF12CF701EE0FFF1FE654FD4FB182C8
:10420000A0828FEFE81AF80A93E0E922FF24E092F7
:10421000C3025BCF911117C0A301052C02C0440F4C
:10422000551F0A94E2F74150510930E042175307F5
:1042300009F045C0F8019481992309F441C0C501F2
:104240000E94B61E3CC0822F90E09C012150310993
:10425000282339230E2C02C0959587950A94E2F7FE
:10426000232B59F580FF29C0F80182819381892B86
:10427000E1F0E985FA8528E011922A95E9F73EEF09
:1042800039833A830E941A278160582F9D838C833B
:10429000F801828193818F83988729813A814B81AC
:1042A0006D817E810E94BE0E04C060E0C5010E9447
:1042B000361EF801158281E003C0817001C080E0E4
:1042C00093010E2C01C0220F0A94EAF72095F80101
:1042D000968129232683382EF8CE312CF6CEF6018E
:1042E0008281882379F1FB85FF2361F10E941A27DF
:1042F000909328038093270380912403883098F5B6
:1043000091E0980F9093240398E0F601DE01119656
:1043100001900D929A95E1F72CE0829FC001112443
:104320008C539D4F28E0FE013196DC0101900D92E7
:104330002A95E1F72FEF3FEFFC0131872087938625
:10434000828611C09091C2028091C302981719F021
:104350000E94511F08C00E94371E1092280310921D
:1043600027030E949E1E11E0FB851F27812F2B969D
:10437000E2E10C94732E0895089508950E94BD21E2
:10438000089581E008950F931F93CF93DF93EC017D
:104390008B010E94BB210E94320A0E94BF0A19832E
:1043A0000883DF91CF911F910F910895AF92BF9233
:1043B000CF92DF92EF92FF921F93CF93DF93EC01A6
:1043C0006B01142FE0901602F09017020E94320A3F
:1043D0000E94BF0A88E0180250011124CC15DD05A7
:1043E00031F0CE010E94D909CA0DDB1DF7CF0E9422
:1043F000320AC7010E94B80A812F0E94BE21DF91B4
:10440000CF911F91FF90EF90DF90CF90BF90AF9032
:1044100008950F931F93CF93DF93EB01F80132813F
:10442000A881B981311103C0A817B907D1F038E0CC
:104430002302C0011124BD01681B790B46175707E1
:1044400061F028E001900D922A95E1F728813981E9
:10445000820F931F9983888304C0BF01822F0E941B
:10446000BC21DF91CF911F910F910895CF92DF92E0
:10447000EF92FF920F931F93CF936C018B01C42F88
:104480007901842F0E94BD2188E0C802A001112477
:104490005195419551090C151D0559F4F7011183EA
:1044A0000083CF911F910F91FF90EF90DF90CF90FD
:1044B0000895F801E40FF51F8281882379F38F01B5
:1044C000EACF0F931F93CF938B0120912B072111DC
:1044D00039C0FB01C281C11182C08435FCE79F074E
:1044E000E9F060F483359C4709F079C069E273E034
:1044F00089E297E00E94C32181E017C08635ECE78E
:104500009E07B1F087359C4709F069C0609148016A
:10451000709149014FEF81E297E011C061E277E0CD
:1045200089E297E00E94C32182E080932B075AC062
:1045300060914A0170914B0141E089E293E00E9451
:10454000D62150C0AC0143555C474330510530F58E
:1045500031E085359C4709F430E0F801828183170A
:1045600009F43FC0213061F02230A9F4609129079D
:1045700070912A0728E431E04FEF81E297E009C00B
:104580006091290770912A072AE431E041E089E22D
:1045900093E00E94362210922B0723C00E94C12173
:1045A000C82F8823E1F080912B07813061F08230A1
:1045B000C9F440914A0150914B012FEF69E277E035
:1045C00081E297E009C0409148015091490121E002
:1045D00069E277E089E293E00E94092203C0C1E02A
:1045E00001C0C0E08C2FCF911F910F910895CF9300
:1045F000DF9386319C4741F5EB010E947B0F982F9A
:104600008A8120910E0130910F01882379F09A7AE6
:1046100081E009F480E080932C07911102C069E2E7
:1046200001C065E3C9010E9456260AC080912C078B
:10463000811102C069E201C065E3C9010E945926E7
:104640000E94C20F80E001C081E0DF91CF91089508
:104650000F931F93CF93DF93C42FD22FFC0182813E
:104660008823B1F040932F070E941A2790932E07BA
:1046700080932D0780E28C0F883008F04DC0C77002
:1046800081E001C0880FCA95EAF70E94B20744C0D2
:1046900080912F07481330C080912D0790912E07ED
:1046A0000E9432278A3F910538F510E21D0FCD1781
:1046B000B9F080E28C0F883040F4C77081E001C00F
:1046C000880FCA95EAF70E94B907183010F581E003
:1046D0009D2F977001C0880F9A95EAF70E94B20744
:1046E000802F0E94A8071830B8F4D77081E001C06D
:1046F000880FDA95EAF70AC080E28C0F883060F400
:10470000C77081E001C0880FCA95EAF70E94B90717
:1047100003C0802F0E94A807DF91CF911F910F91B6
:1047200008950F93FC01E851FC47E730F10590F53F
:10473000CB01E156FF4F0C94512E06E221EE41EEE3
:104740006AE17CE723C007E225EE45EE6BE17CE7FA
:104750001DC006E221EE40EE68E17CE717C007E2EB
:1047600025EE44EE69E17CE711C006E221EE42EE5F
:104770006CE17CE70BC007E225EE46EE6DE17CE7DD
:1047800005C008E221E045EE6EE17CE70E942823A7
:1047900080E008C0FB018281882319F010922F0766
:1047A00001C081E00F9108958EE14A9B02C08150C3
:1047B000E1F74A9BFECF08955A9880E28A95F1F777
:1047C0005A9A0895FC012AE02A95F1F728E090E032
:1047D00080E031E040E14A95F1F7880F4A9B02C042
:1047E0008160932700C0000040E14A95F1F7215015
:1047F00089F720E12A95F1F729B100C0000030E1E6
:104800003A95F1F722FB222720F992272081920F77
:1048100090830895A1E0B0E0E0E1F4E20C94632E0F
:1048200019828C017C01E60EF11C0E151F0551F05A
:104830000E94D423CE0101960E94E223F8018193C5
:104840008F01F3CF81E09981911180E02196E6E01C
:104850000C947F2E529A5A9A089552985A9AEA9A2C
:10486000E9E6F0E080818F7C80830895615091E0DB
:1048700001C0990F6A95EAF720E031E0992361F0D1
:10488000492F482319F05A9A232701C05A9840E229
:104890004A95F1F79695F2CF222311F05A9A01C06A
:1048A0005A9880E28A95F1F75A980895FF920F93EB
:1048B0001F93CF93DF93EC018C01060F111DC017DE
:1048C000D10741F0F9900E94DC2368E08F2D0E940F
:1048D0003624F5CFCDB7DEB7E5E00C94802E1F92DD
:1048E0000F920FB60F9211240F931F932F933F93A4
:1048F0004F935F936F937F938F939F93AF93BF93E8
:10490000EF93FF93CF93DF931F92CDB7DEB719825A
:104910000E94D423CE0101960E94E223082F06951F
:1049200006950695902F96959570202F2570920FDD
:10493000292F237096959695920F877089135FC0E3
:10494000898181115CC0043008F059C080E18A95EA
:10495000F1F75A9A529A82E08A95F1F700C05A9874
:1049600088E0089F80011124D801AB5DBE4F1696E8
:10497000ED91FC9117973097A9F06091F701709134
:10498000F80114962D913C911597260F371F11961B
:104990008D919C911297680F791F13964C911397E4
:1049A0008C910995F801EB5DFE4F6381662351F010
:1049B0008091F7019091F80124813581820F931F36
:1049C0000E9456240E94DC2380E18A95F1F75A98D0
:1049D00052985A9A80E18A95F1F7F801EB5DFE4F03
:1049E0006081662351F08091F7019091F801218157
:1049F0003281820F931F0E940A240E94D4230F90B9
:104A0000DF91CF91FF91EF91BF91AF919F918F91E6
:104A10007F916F915F914F913F912F911F910F91D6
:104A20000F900FBE0F901F9018950F931F93CF9369
:104A3000DF93843091050CF06DC0EC01F894529A2C
:104A40005A9885E08A95F1F700009C2F969595700D
:104A50002C2F2570920F892F83709695969523E0C1
:104A6000CC0FDD1F2A95E1F7980F8E01092B0E94CC
:104A7000DC2384E08A95F1F700C068E0802F0E9473
:104A8000362480E18A95F1F752985A9A4A9902C0E1
:104A900000C0FCCF87E090E04A9B08C0019721F45A
:104AA000529A5A9A789436C000C0F6CFFE01EB5D58
:104AB000FE4F6381662381F08091F7019091F801A8
:104AC00024813581820F931F0E940A24811104C022
:104AD000529A5A9A78941FC00E94D42380E28A95F1
:104AE000F1F75A98529A80E18A95F1F7CB5DDE4F43
:104AF0006881662351F08091F7019091F801298136
:104B00003A81820F931F0E9456240E94DC237894DE
:104B100081E001C080E0DF91CF911F910F91089556
:104B20009093FB018093FA01089590933607809348
:104B3000350708950E941316811103C08091300734
:104B40000895E0913507F0913607309729F00190EC
:104B5000F081E02D0995089580E008950E949A253E
:104B60000895E0913507F0913607309721F00280E3
:104B7000F381E02D09950895E0913507F09136070E
:104B8000309739F022E0DC012C930480F581E02D90
:104B900009950895A3E0B0E0E0EDF5E20C94672EEE
:104BA000209133073091340728173907A1F09093EB
:104BB000340780933307E0913507F091360730973B
:104BC00051F023E029839B838A830680F781E02DBF
:104BD000CE01019609952396E2E00C94832EA3E082
:104BE000B0E0E5EFF5E20C94672E209131073091AB
:104BF000320728173907A1F09093320780933107C5
:104C0000E0913507F0913607309751F024E0298381
:104C10009B838A830680F781E02DCE01019609955A
:104C20002396E2E00C94832EFC01329697E080E01C
:104C3000915029F021912223D9F38F5FF9CF089564
:104C4000662349F0FC01329608962191621729F0FB
:104C5000E817F907D1F780E0089581E008959C01F5
:104C6000FC0132969FEF80E04191461789F09F3F0B
:104C700019F4411101C0982F8F5F8630A9F79F3F2B
:104C800039F0F901E90FF11D97FDFA956283089556
:104C900008959C012A5F3F4FFC014281461301C0E9
:104CA0001282019682179307B9F708950E942F2662
:104CB00008950E9449260895029626E0FC0111926B
:104CC0002A95E9F7089546E050E00E94A22E21E0DF
:104CD000892B09F420E0822F089508950E946D2603
:104CE000089583E0809337070E946E26089581110E
:104CF00002C081E001C082E0809337070E946E26E7
:104D000008950E947726089581E0809337070E94D6
:104D10006E2608950E948426089508950E948D2687
:104D200008950E948E2608950E948D2608950E945F
:104D30008D2608950E948D260895CF930E94972670
:104D40000E9498150E949426C0E08C2F0E94661441
:104D5000811104C0CF5FC830C1F701C081E0CF919D
:104D6000089585B7806885BF85B7806885BF089539
:104D70001F920F920FB60F9211248F939F93AF93B0
:104D8000BF9380913807811113C080916207909181
:104D90006307A0916407B09165074196A11DB11DFD
:104DA0008093620790936307A0936407B0936507AD
:104DB000BF91AF919F918F910F900FBE0F901F9059
:104DC000189580916A07843031F10E946306109231
:104DD000380720E488E190E00FB6F894A895809316
:104DE00060000FBE2093600083B7817F846083BF23
:104DF00083B7816083BF7894889583B78E7F83BFA4
:104E00000FB6F894A8958091600088618093600047
:104E1000109260000FBE08950E94320A0E94680638
:104E2000089582E084BD93E095BD9AEF97BD80938D
:104E30006E0008952FB7F8948091620790916307F0
:104E4000A0916407B09165072FBF08952FB7F8941C
:104E50006091620770916307809164079091650784
:104E60002FBF08959C014FB7F894809162079091ED
:104E70006307A0916407B09165074FBF821B930B36
:104E80000895CF92DF92EF92FF922FB7F894C090DF
:104E90006207D0906307E0906407F09065072FBF2A
:104EA000A7019601261B370B480B590BCA01B90104
:104EB000FF90EF90DF90CF90089578941F920F921B
:104EC0000FB60F9211248F939F93AF93BF9380914E
:104ED000620790916307A0916407B09165070196FE
:104EE000A11DB11D8093620790936307A09364078F
:104EF000B0936507BF91AF919F918F910F900FBEB7
:104F00000F901F90189587E797E79093010880937B
:104F100000089AE088E10FB6F894A89580936000A5
:104F20000FBE90936000FFCF9AE088E10FB6F8942F
:104F3000A895809360000FBE90936000FFCF809192
:104F4000410708959B0190916A079430F1F48F70A6
:104F50008093E9008FEF9091E800815095FD06C0A5
:104F600095ED9A95F1F700008111F5CF8091E80059
:104F700085FF0BC0BA01C90140E050E00E949D29A5
:104F80008091E8008E778093E800089543E050E038
:104F9000BC0182E00E94A227089546E050E0BC01D7
:104FA00082E00E94A2270895CF93DF93EC0148E0AE
:104FB00050E0BC0181E00E94A22788E0FE01A9E345
:104FC000B7E001900D928A95E1F7DF91CF910895B6
:104FD00080916907811109C00E94282B0E94852BAE
:104FE0008091E20084608093E20008951092690746
:104FF00008950E948A2608956091660781E06111F4
:1050000001C080E00E947126089590916A0781E0B6
:10501000943009F080E0609166070E947726089539
:1050200042E061EC81E00E94A12A42E261EC82E070
:105030000E94A12A90916A0781E0943009F080E0F3
:10504000609166070E948126089580916C078330E5
:1050500009F461C030F4813071F0823009F49BC0F2
:1050600008958A3009F487C08B3009F46CC0893008
:1050700009F0A9C020C080916B07813A09F0A3C054
:105080008091E800877F8093E80080916F0790917E
:105090007007892B21F468E089E397E003C060E0A2
:1050A00080E090E070E00E94E2298091E8008B7738
:1050B0008093E800089580916B07813209F083C0E6
:1050C00080916F0790917007029708F07CC08091E3
:1050D000E800877F8093E8008091E80082FD05C0AA
:1050E00080916A078111F8CF6EC02091F300809102
:1050F000F20090E0922B029731F48091F100813020
:1051000011F0863021F48091F10080934107809165
:10511000E8008B7754C080916B07813A09F053C047
:1051200080916F0790917007892B09F04CC0809196
:10513000E800877F8093E8008091E80080FFFCCF43
:105140008091540137C080916B078132E1F58091E5
:105150006F0790917007892BB1F58091E800877FE8
:105160008093E8000E94D62A80916D0780935401B5
:105170000E94320A089580916B07813221F5809157
:10518000E800877F8093E8000E94D62A80916E070E
:1051900080934207089580916B07813AA1F4809132
:1051A000E800877F8093E8008091E80080FFFCCFD3
:1051B000809142078093F1008091E8008E77809380
:1051C000E8000E94D62A089584B7877F84BF0FB66F
:1051D000F894A89580916000886180936000109297
:1051E00060000FBE90E080E80FB6F89480936100F5
:1051F000909361000FBE0E94842608950E94282B80
:105200000E94852BE2EEF0E08081846080837894B8
:105210000E94102E08958CE491E00E949525089537
:1052200080916A078530A9F480916A07853079F406
:105230000E94E126809168078823B1F30E949D2691
:10524000882391F30E9487290E94320AEDCF0E94A1
:105250000C27089508950E942E290895292F332799
:1052600023303105C9F060F42130310581F022305E
:10527000310509F044C08BE390E026E635E043C0F9
:1052800021323105E1F02232310549F138C082E1A5
:1052900090E021EA35E037C099278130910549F047
:1052A00028F0029761F5ECE3F5E005C0E2E6F5E0F1
:1052B00002C0E8E5F5E0849190E09F0124C061150B
:1052C000710541F061307105D1F489E090E021E988
:1052D00035E019C089E090E028E735E014C0611599
:1052E000710541F06130710551F48BE790E023EBDB
:1052F00035E009C080E490E02EE236E004C080E0B2
:1053000090E020E030E0FA0131832083089580E1CD
:1053100089BD82E189BD09B400FEFDCF8091D8002E
:105320008F7D8093D8008091E00082608093E000C0
:105330008091E00081FDFCCF0895A0E0B0E0E3EAB9
:10534000F9E20C94612EEC018B017A010E94F52A9E
:10535000811133C0E114F10439F0F70180819181AA
:10536000081B190BC80FD91FC12CD12C0115110511
:1053700019F18091E80085FD16C08091E8008E77D4
:105380008093E800E114F10449F0F70180819181F4
:10539000C80ED91ED182C08285E00FC00E94F52AB6
:1053A000882321F30AC089918093F10001501109EB
:1053B000FFEFCF1ADF0ADACF80E0CDB7DEB7E8E043
:1053C0000C947D2E209171073091720726173707B4
:1053D00048F06115710539F42091E8002E7720938B
:1053E000E80001C0B901FC0120E06115710579F107
:1053F00080916A078823F1F18530F1F18091E8000E
:1054000083FD3CC08091E80082FD2EC08091E800C1
:1054100080FFEBCF2091F3008091F20090E0922B7F
:105420006115710551F08830910538F42191209370
:10543000F100615071090196F3CF21E0089709F05E
:1054400020E08091E8008E778093E800CECF211194
:10545000CFCF0AC080916A07882361F0853061F060
:105460008091E80083FD0AC08091E80082FFF2CFBE
:1054700080E0089582E0089583E0089581E0089532
:1054800020917107309172072617370748F0611590
:10549000710539F42091E8002E772093E80001C0CF
:1054A000B901FC0120E06115710591F180916A0755
:1054B000882309F440C0853009F43FC08091E8009A
:1054C00083FD3DC08091E80082FD2FC08091E800FF
:1054D00080FFE9CF2091F3008091F20090E0922BC1
:1054E0006115710559F08830910540F4249120939D
:1054F000F1003196615071090196F2CF21E00897D1
:1055000009F020E08091E8008E778093E800CBCF0F
:105510002111CCCF0AC080916A07882361F08530C1
:1055200061F08091E80083FD0AC08091E80082FF6D
:10553000F2CF80E0089582E0089583E0089581E04D
:105540000895982F973068F59093E900981739F0EF
:105550007091EC002091ED005091F00003C0242FD9
:10556000762F50E021FD02C09F5FECCF3091EB0021
:105570003E7F3093EB003091ED003D7F3093ED00A6
:105580003091EB0031603093EB007093EC0020938E
:10559000ED005093F0002091EE0027FDE5CF80E074
:1055A00008958F708093E90081E0089580916B07E2
:1055B00087FF11C08091E80082FD05C080916A07D5
:1055C0008111F8CF11C08091E8008B770BC08091DA
:1055D0006A07882349F08091E80080FFF8CF809126
:1055E000E8008E778093E80008952091E4003091E0
:1055F000E50095E64091EC00842F817040FF23C0C8
:105600008091E80080FD1DC080916A07882399F091
:10561000853099F08091EB0085FD11C04091E40048
:105620005091E5002417350729F3915011F09A01A4
:10563000E1CF84E0089582E0089583E0089581E059
:10564000089580E008954091E80042FFDDCF08957D
:105650000E94972B0E949F2BE0EEF0E080818160FA
:105660008083E8EDF0E080818F77808319BCA7ED1F
:10567000B0E08C918E7F8C9380818F7E808310929E
:10568000690708950F931F93CF93DF930E94972B81
:105690000E949F2BC8EDD0E088818F778883888116
:1056A0008068888388818F7D888319BC10926A07FF
:1056B00010926607109268071092670700EE10E0DC
:1056C000F80180818B7F808388818160888342E0BC
:1056D00060E080E00E94A12AE1EEF0E080818E7F10
:1056E0008083E2EEF0E08081816080838081886049
:1056F0008083F80180818E7F8083888180618883A8
:10570000DF91CF911F910F910895E8EDF0E0808136
:105710008F7E8083E7EDF0E080818160808384E08C
:1057200082BF81E0809369070E94422B0895E8EDD3
:10573000F0E080818E7F80831092E20008951092C5
:10574000DA001092E10008951F920F920FB60F92A7
:1057500011242F933F934F935F936F937F938F9376
:105760009F93AF93BF93EF93FF938091E10082FFEC
:105770000BC08091E20082FF07C08091E1008B7F27
:105780008093E1000E940F2E8091DA0080FF1FC0FD
:105790008091D80080FF1BC08091DA008E7F8093BB
:1057A000DA008091D90080FF0DC080E189BD82E1DF
:1057B00089BD09B400FEFDCF81E080936A070E9495
:1057C000E82705C019BC10926A070E94F62780914D
:1057D000E10080FF19C08091E20080FF15C0809138
:1057E000E2008E7F8093E2008091E20080618093EE
:1057F000E2008091D80080628093D80019BC85E0D7
:1058000080936A070E94FC278091E10084FF30C0EA
:105810008091E20084FF2CC080E189BD82E189BDD6
:1058200009B400FEFDCF8091D8008F7D8093D80011
:105830008091E1008F7E8093E1008091E2008F7E75
:105840008093E2008091E20081608093E200809189
:105850006607882311F084E007C08091E30087FD8C
:1058600002C081E001C083E080936A070E9405289E
:105870008091E10083FF29C08091E20083FF25C071
:105880008091E100877F8093E10082E080936A0746
:10589000109266078091E1008E7F8093E1008091F5
:1058A000E2008E7F8093E2008091E200806180932D
:1058B000E20042E060E080E00E94A12A8091F000D6
:1058C00088608093F0000E94F927FF91EF91BF91CB
:1058D000AF919F918F917F916F915F914F913F9188
:1058E0002F910F900FBE0F901F9018951F920F923F
:1058F0000FB60F9211242F933F934F935F936F93A3
:105900007F938F939F93AF93BF93CF93DF93EF9347
:10591000FF93C091E900CF708091EC00D82FD17037
:1059200080FDD0E81092E9008091F000877F80939D
:10593000F00078940E94BA2C1092E9008091F00057
:1059400088608093F000CD2BCF70C093E900FF9169
:10595000EF91DF91CF91BF91AF919F918F917F9107
:105960006F915F914F913F912F910F900FBE0F90CC
:105970001F901895AAE2B0E0E0ECFCE20C94662ED1
:10598000EBE6F7E08091F100819327E0E337F2073F
:10599000C9F70E9425288091E80083FF2EC18091DD
:1059A0006B0790916C07492F50E04A30510508F081
:1059B00024C1FA01EA55FF4F0C94512E803821F092
:1059C000823809F01AC108C0809167079091680772
:1059D000992389F082600FC080916F078F708730A4
:1059E00008F00BC18093E9008091EB0085FB8827CC
:1059F00080F91092E9009091E800977F9093E80079
:105A00008093F1001092F100D1C0282F2D7F09F072
:105A1000F4C0882319F0823061F0EFC080916D07E7
:105A2000813009F0EAC0933009F080E08093680784
:105A30002EC080916D0781112AC080916F078F70F1
:105A40002FEF280F263008F0D8C08093E90020916E
:105A5000EB0020FF1CC0933021F48091EB008062AA
:105A600014C09091EB0090619093EB0021E030E046
:105A7000A90102C0440F551F8A95E2F74093EA003E
:105A80001092EA008091EB0088608093EB00109206
:105A9000E9008091E800877F8093E8000E94D62A81
:105AA000ACC08111AAC010916D071F778091E300EF
:105AB0008078812B8093E3008091E800877F80933A
:105AC000E8000E94D62A8091E80080FFFCCF8091F8
:105AD000E30080688093E300111102C082E001C0FE
