:100000000C942D030C944A030C944A030C94A823DB
:100010000C944A030C944A030C944A030C944A032C
:100020000C944A030C944A030C94D32A0C94A72BE7
:100030000C94EC250C944A030C944A030C944A0348
:100040000C944A030C944A030C944A030C944A03FC
:100050000C944A030C948F260C944A030C944A0384
:100060000C944A030C944A030C944A030C944A03DC
:100070000C944A030C944A030C944A030C944A03CC
:100080000C944A030C944A030C944A030C944A03BC
:100090000C944A030C944A030C944A030C944A03AC
:1000A0000C944A030C944A030C944A0314001A005B
:1000B00009001300050004001500160017000A00CF
:1000C0001D001B0006000700190025522C2200000D
:1000D000000000000D000F0018001C00330010008D
:1000E000110008000C0012000E000B003600370053
:1000F00038002C00235200000000000014001A00F9
:1001000009001300050004001500160017000A007E
:100110001D001B0006000700190026522C220000BB
:10012000000000000D000F0018001C00330010003C
:10013000110008000C0012000E000B003600370002
:1001400038002C00235200000000000014001A00A8
:1001500008001500170004001600070009000A0037
:100160001D001B0006001900050025522C2200006E
:10017000000000001C0018000C00120013000B000F
:100180000D000E000F003300110010003600370084
:1001900038002C0023520000000000001E001F0049
:1001A000200021002200360226022F002F02210209
:1001B0003702270230003002220227522452000068
:1001C00000000000230024002500260027002E0048
:1001D000380234002E0025021F021E0234022D00B8
:1001E000380000000100000000000000350035026A
:1001F0002302200200003102240231002D020000FF
:1002000000000000000000000000000001000000ED
:1002100000000000000000000000000000000000DE
:1002200000000000000000000000000000000000CE
:1002300000000000010000000000000029001A0179
:10024000090119020C02E200E000E100E300E6000F
:100250001D011B01060119012B0001004C000000CB
:10026000000000004E004B004A004D00390017010D
:100270005000510052004F002A012A0000000000E7
:1002800000002800275200000000000029001A0882
:10029000090819020C02E200E000E100E300E600B8
:1002A0001D081B08060819082B0001004C0000005F
:1002B000000000004E004B004A004D0039001708B6
:1002C0005000510052004F002A082A000000000090
:1002D0000000280027520000000000003A003B0008
:1002E0003C003D003E00E200E000E100E300E600EB
:1002F00000000000000000000000010000000000FD
:10030000000000003F004000410042004300440064
:100310004500460000000000000000000000000052
:10032000007C000001000000000000000000097EC9
:100330000A7E0C7E0B7E057E027E037E047E0E7E90
:100340000000007E0000017E0D7E0000E100000044
:1003500000000000025200000000000000000952EE
:1003600001520000000000000A520B520000000081
:100370000000000000000000000000002B001E0034
:100380001F0007000900210014001A0008001500D2
:100390002900190016002000050004212C0000008F
:1003A00000000000117E127E00000000000000002E
:1003B000000000000000000000000000000000003D
:1003C0000000005200520000000000002B0014004A
:1003D0001A0008001500E1000400160007000900DB
:1003E000E0001E001F002000210006002C0000007D
:1003F00000000000117E127E0000000000000000DE
:1004000000000000000000000000000000000000EC
:100410000000005200520000000000002900D1003E
:10042000CD00D200D3002B00CF00CE00D0004B0077
:10043000E300DB00D900DC004E00DA0000520000CF
:10044000000000001A012B132B011713E2002800F3
:100450005000510052004F0017131701DD00DE005D
:10046000DF00E000E1000000000000002C0023524B
:100470000000040015000000000000000000000063
:100480002A2B2800000000000000000000000000EF
:1004900000000029000000002C1E342021222434FA
:1004A0002627252E362D3738271E1F2021222324CC
:1004B00025263333362E37381F0405060708090A68
:1004C0000B0C0D0E0F101112131415161718191A04
:1004D0001B1C1D2F3130232D350405060708090A82
:1004E0000B0C0D0E0F101112131415161718191AE4
:1004F0001B1C1D2F3130354C000000000000000097
:1005000000000000000000000000000000000000EB
:100510000000000000000000000000007E0F00D47A
:10052000FFFFFFC7000000781A0346006500720055
:100530007200690073002000730077006500650099
:100540007000000008034400500042000000040353
:10055000090409023B00020100A0FA09040000019D
:10056000030101000921110100012240000705815A
:100570000308000109040100010300000009211122
:10058000010001227B000705820320000112010007
:100590000200000008ABC239390100010200010568
:1005A000010902A10185020901A10005091901291A
:1005B000081500250195087501810205010930091A
:1005C000311581257F950275088106093815812529
:1005D0007F950175088106050C0A38021581257F73
:1005E000950175088106C0C005010980A101850338
:1005F00019012AB700150126B70095017510810071
:10060000C0050C0901A101850419012AA0021501E8
:1006100026A002950175108100C005010906A101FF
:10062000050719E029E715002501950875018102E4
:100630009501750881010507190029FF150026FF9E
:1006400000950675088100050819012905950575AD
:10065000019102950175039101C011241FBECFEFD6
:10066000DAE0DEBFCDBF12E0A0E0B1E0E4EFFCE5F0
:1006700002C005900D92AA30B107D9F727E0AAE091
:10068000B2E001C01D92A338B207E1F70E94A4179F
:100690000C941D2E0C9400009E578431910508F097
:1006A0004DC0FC01E15EF14DDB0112969C910C9472
:1006B000742D992309F442C00E94260F882379F0F3
:1006C0000E94390F81EE0E94F70685E30E948F0792
:1006D00084E00E948F0781EE0E9444072BC00E9495
:1006E000390F81EE0E94F70685E30E948F0781EEA5
:1006F0000E94440784E01CC0992301F10E94260F48
:10070000882351F00E94390F81EE0E94F70685E39D
:100710000E948F0782E1DDCF0E94390F81EE0E9497
:10072000F70685E30E948F0781EE0E94440782E16D
:100730000E948F07809153070E94360F81E0089531
:100740009923E1F30E94260F882339F00E94390F84
:1007500081EE0E94F70683E2B9CF0E94390F81EE45
:100760000E94F70683E2C1CF992341F30E94260F2E
:10077000882351F00E94390F81EE0E94F70683E230
:100780000E948F0788E0A5CF0E94390F81EE0E945A
:10079000F70683E20E948F0781EE0E94440788E0FB
:1007A000C7CF992359F20E94260F882339F00E945F
:1007B000390F81EE0E94F70683E2AACF0E94390F1B
:1007C00081EE0E94F70683E2ADCF992309F4B6CFFC
:1007D0000E94260F882349F00E94390F85E30E946A
:1007E0008F0781EE0E94F70673CF0E94390F85E3D1
:1007F0000E948F077FCF992309F4A0CF0E94390F61
:1008000081EE0E94F70683E20E948F0781EE0E942C
:10081000440708C0992309F491CF0E94390F84E35B
:100820000E948F078CE284CF992309F487CF0E941E
:10083000390F81EE0E94F70684E3E6CF992309F48D
:100840007DCF0E94260F882321F00E94390F84E378
:10085000C6CF0E94390F84E3CBCF992309F46ECF22
:100860000E94260F882349F00E94390F84E30E94DA
:100870008F0781EE0E94F70685CF0E94390F84E32F
:100880000E948F078CCF992309F458CF0E94260F1E
:10089000882351F00E94390F84E30E948F0781EE74
:1008A0000E94F7068CE015CF0E94390F84E30E9466
:1008B0008F078CE03DCF992309F440CF0E94260F8B
:1008C000882349F00E94390F84E30E948F0781EE4C
:1008D0000E94F7061FCF0E94390F84E30E948F0702
:1008E00026CF992309F42ACF0E94260F882351F09E
:1008F0000E94390F84E30E948F0781EE0E94F70661
:1009000088E1E7CE0E94390F84E30E948F0788E1D7
:100910000FCF992309F412CF86EE0E94F70686E3E3
:100920000E948F0786EE0E94440708CF992309F49E
:1009300005CF89E691E00E94851D00CF992309F437
:10094000FDCE8CE691E0F7CF992309F4F7CE88E24B
:100950000E948F078FE691E00E94851D88E20E9429
:100960008F07ECCE992309F4E9CE88E20E948F0725
:100970008BE791E0F1CF992309F4E0CE88E20E9461
:100980008F0782E991E0E8CF8AE00E94A80A8111EE
:1009900006C089E00E94A80A91E08927089580E0B6
:1009A00008958C3221E2920729F08C32924211F0A4
:1009B00080E0089581E008958C30B8F46830A8F4A0
:1009C000453098F450E095E0699F400D511D112489
:1009D000FA0198E2899FE00DF11D1124EE0FFF1F2F
:1009E000E455FF4F85919491089580E090E008953B
:1009F0000E94DC0408959C013A9521153F4150F571
:100A0000FC01EE27F170BC0166277270AC0144272F
:100A100054709C012227387094FF0EC080E1EF2BA8
:100A200009F480E0672B09F08062452B09F08064AF
:100A3000232B89F08068089581E0EF2B09F480E092
:100A4000672B09F08260452B09F08460232B19F095
:100A50008860089580E00895CF93DF93EB010E94B2
:100A6000FB04FE010995DF91CF910895CF93DF93A9
:100A7000EC01805E9109089720F066EE79E02097FE
:100A800011F468E977E0CE010E942C058C2F0E94BA
:100A9000F706DF91CF910895CF93DF93EC010E9489
:100AA0004407CE01805E9109089720F06DEE79E051
:100AB000209711F46FE977E0CE010E942C05DF91B9
:100AC000CF9108950F931F93CF93DF938C01EB0188
:100AD0000E943605209741F4C8010E944C05DF9121
:100AE000CF911F910F9108958FE99FE00197F1F742
:100AF00000C000002197EECF70E060E089339105DF
:100B000011F460E570E00E946205089581E00895A7
:100B10000E944C03089508950E948B050895A5E056
:100B2000B0E0E5E9F5E00C94892D49835A833091D2
:100B3000110289819A81311119C0662399F022230B
:100B400089F00E94820B182F682F89819A810E9458
:100B50005E0B69817A81812F0E9475122596E3E0F0
:100B60000C94A52D0E94700B182FF3CF0E94820BBE
:100B700069817A81F1CFFC01262F868197810097C8
:100B800039F4408151816281738184810E948F0593
:100B90000895CF93DF93EC0161E00E94BB05BE0195
:100BA0000E94461FDF91CF910895CF93DF93EC0110
:100BB00060E00E94BB05BE010E948C05DF91CF91D1
:100BC00008950E94F31308950E94F713089508955D
:100BD0000E940A0A0E94E7052FEF84E39CE021505F
:100BE00080409040E1F700C0000008950E94E805B1
:100BF0000E94B32608950E94E8050E94C426089525
:100C00000F931F93CF93DF938C0161E00E94BB058C
:100C1000EC01B8010E94A121811106C080E0DF91A2
:100C2000CF911F910F910895B801CE010E948805C0
:100C30008823A1F3B801CE010E945B1A882371F3C7
:100C4000B801CE010E94C422882341F3B801CE012D
:100C50000E94E61B882311F3B801CE010E943622C0
:100C60008823E1F2F8018281882361F0C330FCE738
:100C7000DF07E9F058F4C115ECE7DE07A9F0C13051
:100C8000DC47B9F0C8010E948605C9CFCB358CE797
:100C9000D807A9F0CC35ECE7DE0771F0CA35DC47A0
:100CA00089F70E940810EECF0E94F605B7CF0E9488
:100CB00010100E94FB05B2CF0E94FE0FE3CF0E94EE
:100CC0000C10E0CF0E94C9250E948C0608950E9456
:100CD00090060E94CE25089508950E946C060895FE
:100CE00081E008950895CF93DF93D82F0E94700676
:100CF000C82F882319F08D2F0E9472068C2FDF9148
:100D0000CF9108950895CF93C82F0E946D068C2F20
:100D10000E947306CF91089580E00E948306089593
:100D20000E94CE240E9483060895CF930E94CE2471
:100D3000C82F80910C028C1779F0C0930C020E948E
:100D4000582660930D0270930E0280930F029093C9
:100D500010028C2F0E948306CF910895ADE0B0E081
:100D6000E4EBF6E00C948A2D49875A876B877C87E1
:100D70008D8761110E94490F1D821E821F82188675
:100D800085E0FE013996DE01119601900D928A955B
:100D9000E1F78C819D81892B71F429813A814B8106
:100DA0005C816D817E818F8198850E94670E2D9672
:100DB000E2E00C94A62D89819A8189238F3F69F303
:100DC000CE0101960E94C9058111E7CFF0CFFC0149
:100DD000808191810E94B40B0895662329F00E94BE
:100DE00028180E94FB1808950E948218FACFCF930A
:100DF000C82F8823B9F08CEF8C0F813AA8F46C2FA0
:100E000080910E0190910F010E945A25882329F0AC
:100E10008C2F0E94060F0E946A0F8C2F0E94FE0EDC
:100E20000E946A0FCF91089580E28C0F883048F4B9
:100E3000C77081E001C0880FCA95EAF70E94290FA8
:100E4000EFCFEBE5EC0FE33040F4F0E0E153FE4F81
:100E5000808190E00E94FE24E5CFE8E5EC0FE931C7
:100E600050F4F0E0EE0FFF1FE356FE4F80819181BA
:100E70000E942325D7CF83E38C0F833198F661E05E
:100E80008C2F0E94ED06CECF882381F19CEF980F26
:100E9000913A28F40E94060F0E946A0F089590E28A
:100EA000980F983050F4877091E001C0990F8A959F
:100EB000EAF7892F0E942F0FEFCF9BE5980F933011
:100EC00028F490E080E00E94FE24089598E5980FB1
:100ED000993128F490E080E00E942325089593E35F
:100EE000980F933118F460E00E94ED0608951F9367
:100EF000CF93DF93182FEB010E94F706209739F468
:100F0000812F0E944407DF91CF911F9108958FE9AF
:100F10009FE00197F1F700C000002197EFCF70E04C
:100F200060E0893311F460E570E00E94770708956E
:100F3000882321F00E94290F0E946A0F08958823B8
:100F400021F00E942F0F0E946A0F0895B0E0A0E0E8
:100F5000ECEAF7E00C94832D6C01D62FC72FFC012F
:100F60001281058102950F700E941F0FE82E8823C1
:100F7000B9F0E12E1123A1F08C2F807F803421F075
:100F800080E28D0F8830C8F08091590782FF15C02C
:100F900082E00E94CD0F0E941F0F91E0E82EE9260B
:100FA000BC2EB2949FE0B922FBE0FB15B8F1EB2D0B
:100FB000F0E0ED5CF14D0C94742DE12CF1CF0C2F91
:100FC0000F70C07F11F00295007F112399F000236C
:100FD00059F080E28D0F883010F0D11107C0802FBA
:100FE0000E94290F0E946A0F8D2F5CC0802F0E94E3
:100FF0003C0FF8CF8D2F0E944407002379F080E248
:101000008D0F883010F0D11104C0802F0E942F0F57
:1010100003C0802F0E94420F0E946A0FEB2DE85000
:10102000FF0B349720F40E94CE240E948306EE200A
:1010300089F00E941B0F80FD0DC0F60112820E94F4
:10104000150F0E94BC0AC6010E94BC090E94150F20
:101050000E94CC0ACDB7DEB7E9E00C949F2D2C2F6F
:101060002F70F22EC07FC03219F0F29480EFF82278
:10107000DD2351F0D13009F443C0112309F44BC0F2
:10108000002309F442C0B0CF8091590782FD15C0FA
:10109000112359F0FF2029F08F2D0E94290F0E9463
:1010A0006A0F80E00E94F706B9CF80E00E944407F3
:1010B000FF2009F4B3CF8F2DA9CF112381F00111A7
:1010C00006C00E944C0F8F290E949807A7CF0130BD
:1010D000C1F70E944C0F8F290E94530F9FCF01111F
:1010E00006C00E94600F8F2D0E949F0797CF01308E
:1010F00009F494CF8F2D0E949F070E94600F8ECF1E
:10110000112329F0063008F089CF8F2DDDCF05306F
:1011100008F084CFE8CF002331F3D93349F43FEF0F
:1011200087EE93E0315080409040E1F700C000002E
:101130008D2F0E94440772CF8C2F869586958370E1
:1011400069F0813009F06ACF8D2F9C2F93701111B7
:1011500002C080E090E00E94232560CF8D2F9C2F5D
:101160009370111102C080E090E00E94FE2456CFDF
:10117000612F8D2F0E94ED0651CF8C2F8370A1F52A
:1011800011114CCF4D2F429546954770440F440F97
:101190002D2F2F7030E0042E02C0220F331F0A942F
:1011A000E2F790E080E0D4FF09C08FE090E002C059
:1011B000880F991F4A95E2F780959095C695C69538
:1011C000C370822B932BC23049F058F4C13019F010
:1011D0000E94700A23CF0E94670A20CF0E94790ADA
:1011E0001DCF0E94640A1ACF8695112311F08C2F0F
:1011F0008170882309F412CF4D2F42954695477090
:10120000440F440F2D2F2F7030E0042E02C0220F08
:10121000331F0A94E2F790E080E0D4FF09C08FE02A
:1012200090E002C0880F991F4A95E2F7809590954B
:10123000C695C695C370822B932BC23049F058F4E3
:10124000C13019F00E94F70AE9CE0E94EE0AE6CEFC
:101250000E94000BE3CE0E94880AE0CECF701123DB
:1012600029F08C2F0E94BC0A8D2F2ECF8D2F0E942B
:101270009F078C2F0E94CC0AD1CED23F41F160F45F
:10128000D03FB9F0D13F81F0112309F446C00111DC
:10129000ABCE8C2F8F711FC0D33F01F1D43FA1F78C
:1012A0008091590782FD24C08C2F8F71112311F377
:1012B00012C0112341F0053008F0B0CE8C2F8F7191
:1012C0000E94DE0AABCE063008F0A8CEF7CF8C2FF6
:1012D0008F711111CFCF0E94BC0AA0CE112329F02B
:1012E0008C2F8F710E94B00A99CE0E948F0A96CEE1
:1012F000112349F0CF718C2F0E94BC0A63E08C2F20
:101300000E94AF0F8BCE81E00E94CD0F023008F417
:1013100085CE82E00E94CD0F81CE002359F0D933D3
:1013200009F006CFEFEFF7EE23E0E150F040204068
:10133000E1F7FCCE8C2F8F719DCF0F931F93CF932E
:10134000DF93EC018E819F81009781F00E948811CC
:101350008C010E94090B0E94630AB801CE010E9411
:10136000A607DF91CF911F910F9108956881798130
:101370008A810E94BF0BECCFCF93DF93EC018B816E
:101380009C81892B29F08881998189238F3F51F491
:10139000DF91CF910895CE010E949D09CE010E9458
:1013A000D505F6CFCE010E9400068111F4CF0E9430
:1013B0001F0F882369F38A81882351F3809159078D
:1013C00082FFE6CF82E00E94CD0FE2CF882321F09A
:1013D0000E943C0F0E946A0F0895882321F00E940A
:1013E000420F0E946A0F089590E080E00E94FE2460
:1013F00090E080E00E9423250E94490F0E946A0F1E
:101400000E9417190E94FB1808950E940E0F0E9457
:10141000F40908950E94390F0E94050A08959295D3
:101420009F70963091F058F4925F9F70923058F40C
:10143000803F19F030F4883E30F481E008959A5FDF
:10144000F4CF843FD1F380E00895883EB0F3813F2C
:10145000D1F7F3CFFC0183819481892B29F080811E
:10146000918189238F3F39F480E008950E9488118B
:101470000E940F0A0895868197810097B9F78081AD
:1014800091810E94B40BF4CFA5E0B0E0EAE4FAE069
:101490000C948A2D2596E2E00C94A62DA8E0B0E0ED
:1014A000E4E5FAE00C948A2D2896E2E00C94A62D4F
:1014B00008950E94580A08950E94590A909329029B
:1014C00080932802089508950E945C0A089520914F
:1014D000280230912902822B932B0E945C0A0895E6
:1014E0002091280230912902822393230E945C0AD2
:1014F00008952091280230912902822793270E9483
:101500005C0A08950E94580A08950E94820A08956C
:101510000E94850A9093270280932602089590E006
:1015200080E00E94880A0895009729F481E06623EC
:1015300071F080E00CC021E030E002C0220F331FC8
:101540006A95E2F72823392381E0232B91F308954C
:10155000682F80912602909127020E94940A089594
:1015600021E030E0A90102C0440F551F8A95E2F73F
:10157000CA010E94880A089521E030E002C0220FCB
:10158000331F8A95E2F78091260290912702822BE1
:10159000932B0E94880A089521E030E002C0220FB8
:1015A000331F8A95E2F7209530958091260290911D
:1015B0002702822393230E94880A089521E030E0C5
:1015C00002C0220F331F8A95E2F780912602909184
:1015D0002702822793270E94880A089520912602D5
:1015E00030912702822B932B0E94880A0895209124
:1015F000260230912702822393230E94880A0895AD
:101600002091260230912702822793270E94880A80
:1016100008950895262F277091E001C0990F2A950B
:10162000EAF723E0769567952A95E1F7660F771F2D
:10163000660F771FFA01E60FF71F50E040E0682FB2
:1016400070E08191DF0111979B01042E02C0369555
:1016500027950A94E2F72170219528272923282726
:101660002C934F5F5F4F4430510559F70895A82FD1
:10167000A77023E0969587952A95E1F7880F991F23
:10168000880F991FFB01E80FF91F50E040E080E050
:10169000219130E00A2E02C0369527950A94E2F790
:1016A00021703327042E01C0220F0A94EAF7822BFF
:1016B0004F5F5F4F4430510559F70895262F9830FA
:1016C00070F4853060F4682F70E085E0989F600DBD
:1016D000711D112442E152E0822F0E940A0B0895ED
:1016E000292F983068F4853058F490E062E172E078
:1016F00035E0239F800D911D11240E94370B089522
:1017000080E00895B0E0A0E0E8E8FBE00C94832DD1
:101710007C0100912602109127028091280290916D
:101720002902082B192BCFE0D0E0CC24C394D12C74
:10173000BC2EC6010C2E02C0880F991F0A94E2F736
:1017400080239123892B49F4219790F7B12C8B2D7D
:10175000CDB7DEB7E9E00C949F2DB7018C2F0E9426
:101760008112019789F3F3CFCF93DF93EC010E94AD
:10177000820BBE010E948112DF91CF9108951F93C9
:10178000CF93DF93EB0190911102992339F0CB01B4
:101790000E94B40BDF91CF911F910895882369F0C7
:1017A000CB010E94820B182F682FCE010E945E0B86
:1017B000BE01812F0E948112EDCFCB010E94700BE0
:1017C000182FF6CFCF93DF93C0912A0280912B027E
:1017D0008C1303C0DF91CF910895D0E0FE0183E028
:1017E000EE0FFF1F8A95E1F7E45DFD4F2081318107
:1017F0004281538164817581868197810E944E0A5E
:101800002196C770E3CF20916C0230916D02409118
:101810006E0250916F02609170027091710280911E
:101820007202909173020E944E0A089520912A023A
:1018300090912B02291302C080E0089530E0F90155
:1018400053E0EE0FFF1F5A95E1F7E45DFD4F518124
:10185000561306C05081581303C05281541304C05C
:101860002F5F3F4F2770E6CF81E00895CF93DF933E
:1018700080917102807F09F049C080916E028823B7
:1018800009F444C080912A02C0912B0260916C023D
:1018900070916D02A0916F02B0917002D62FD72384
:1018A000C817A1F190E0109711F0DF3F19F40196ED
:1018B0008770F6CF9C0143E0220F331F4A95E1F772
:1018C000F901E45DFD4F41814713F1CF408146139B
:1018D000EECF42814111EBCF438154814A1B5B0B18
:1018E0004A3F510520F7809171028F70806180938B
:1018F0007102F901EF5CFD4F80818F708061808300
:101900008CE692E00E94BC090E94E20BDF91CF912D
:101910000895A5E1B0E0EFE8FCE00C947E2D8C0189
:1019200085E0F801DE01519601900D928A95E1F76C
:10193000D8016C9011967C9011971296EC901297AA
:101940001396CD90DC9060E08CE692E00E94BB059F
:101950004C018CE6A82E82E0B82E40916F02509187
:1019600070024115510509F493C190916C022091C8
:101970006D02892F82238F3F09F48AC1F0906E0295
:10198000F601E41BF50BFF2009F443C180917102BD
:10199000382F307FEA3FF10508F0E6C0D8011196F4
:1019A0004C91119731118CC0FE2C421321C02C9107
:1019B00029131EC0409172025091730216962D9108
:1019C0003C9142175307A1F4E11012C08F7080615F
:1019D000809371020E94030CC5010E94BC09809192
:1019E0007102F80185838F2D6596EEE00C949A2D97
:1019F000C114D10429F0872D86218F3F09F064C1DD
:101A000080E080FF1CC04E2D672D862D0E94160C95
:101A10008823A9F06CE672E0C4010E94D1048823F7
:101A200071F08CE692E00E94BC0988E0ECE6F2E0FE
:101A3000DF011D928A95E9F70E94030C3FC0C11493
:101A4000D10429F0872D86218F3F09F03AC180E02B
:101A5000B82FB170DB2E80FF29C04E2D672D862D4B
:101A60000E94160CC82E811121C0698A7A8A898940
:101A70009A890E94B40B292F22952F70223050F0A2
:101A8000243078F49F7051F0F8019581907F31F403
:101A9000FC2CA9CF9F7011F08823D1F3805E883091
:101AA000B8F3C8010E94BC09CD2CF2CFEE2009F496
:101AB0009ACF80917102816080937102F12C93CF53
:101AC000421320C02C9129131DC0409172025091E5
:101AD000730216962D913C9117974217530791F474
:101AE000E11010C015968C93C8010E94BC0988E0D3
:101AF000F801ACE6B2E001900D928A95E1F70E9400
:101B0000030C71CFC8010E942A0A882349F1EE20F4
:101B100039F1809171028032A0F020916C023091F5
:101B20006D023A8729871B86DD86CC868E87809159
:101B3000720290917302988B8F87CE0109960E9452
:101B4000BC0988E0F801ACE6B2E001900D928A95FC
:101B5000E1F70E94360C0E94030CFF24F39443CF5C
:101B6000C8010E94BC09F9CF311112C07C2DDD8A59
:101B7000CC8AA3016E2D8D890E94440A8CE692E0E6
:101B80000E94BC0988E0F50111928A95E9F754CFCB
:101B9000D80111963C91119732131BC02C91291337
:101BA00018C0409172025091730216962D913C918B
:101BB00017974217530769F4E1100BC015968C93E1
:101BC000C8010E94BC0988E0F50111928A95E9F7E5
:101BD0000ACFC8010E942A0A882311F2EE2009F4D4
:101BE000BFCF80917102803208F4ABCF20916C029C
:101BF00030916D023A8329831B82DD82CC828E83F1
:101C0000809172029091730298878F83CE01019622
:101C100096CFEA3FF10570F5FE2CEE2009F4A0CF37
:101C2000D80111968C911197821316C08C9189134B
:101C300013C0209172023091730216968D919C917F
:101C40002817390749F488E0F801ACE6B2E00190C2
:101C50000D928A95E1F7C7CEC8010E942A0A811128
:101C600070CF80917102816080937102C8010E94DF
:101C7000BC09B9CE7C2DDD8ACC8AA3016E2D8D895D
:101C80000E94440A88E0F50111928A95E9F737CF5E
:101C9000EE2009F465CFC8010E942A0AF82E882395
:101CA00009F45ECF88E0F801ACE6B2E001900D9255
:101CB0008A95E1F78CE692E00E94E7060E94360CD6
:101CC0001ECF81E08E25C4CE81E08E259ACEA0E184
:101CD000B0E0EDE6FEE00C948A2D29873A874B8729
:101CE0005C876D877E878F87988BCE0109960E94CF
:101CF000890C8823A9F08C859D85892B39F029854D
:101D00003A85822F83238F3F09F06FC080912A028A
:101D100090912B02891343C06096E2E00C94A62DAB
:101D200088E0FE013996DE01119601900D928A95A8
:101D3000E1F78C859D85892B49F389859A858923CF
:101D40008F3F21F3A0912B02B0E0CD010196877067
:101D5000992720912A022817190671F40E940A0A6D
:101D600010922B0210922A0288E0ECE6F2E0DF01EA
:101D70001D928A95E9F7CACF93E0AA0FBB1F9A95E7
:101D8000E1F7A45DBD4F98E0FE01319601900D9200
:101D90009A95E1F780932B020E94E20BB7CFB8E04F
:101DA0008B9FC0011124845D9D4F0E94890C882364
:101DB00009F4B2CFE0912A0228E0E29FF001112459
:101DC000E45DFD4F208131814281538164817581C1
:101DD000868197810E944E0A80912A0290E00196A6
:101DE0008770992780932A0291CF4B855C856D85FA
:101DF0007E858F8598890E944E0A88CF682F8091B2
:101E00000E0190910F010E9490250895682F8091F6
:101E10000E0190910F010E949325089580910E016B
:101E200090910F010E949625089580917C028595DE
:101E300085958595089580917C028770089590918D
:101E40007C02977081E009F480E008958091870218
:101E5000089590918702892B809387020895809539
:101E60009091870298239093870208958093870228
:101E7000089510928702089590918602892B80938D
:101E80008602089580959091860298239093860209
:101E9000089510928602089580917D020895089514
:101EA0000E944F0F08959091590792FF08C090919A
:101EB0007D02981721F080937D020E94500F0895B3
:101EC00080917D02882329F010927D0280E00E949B
:101ED000500F0895CF93DF93E0910E01F0910F0121
:101EE000809187028083E0910E01F0910F01808143
:101EF00090918602892B808390917D02992381F0B5
:101F0000E0910E01F0910F018081892B80838091F7
:101F10000E0190910F010E94482581110E94600FCF
:101F2000C0910E01D0910F0148E050E064E772E0EB
:101F3000CE010E94C52D892B59F088E0FE01A4E74F
:101F4000B2E001900D928A95E1F7CE010E94E5245E
:101F5000DF91CF91089508950E94AB0F089590915D
:101F6000590792FF11C098E0899F90011124622BBC
:101F700060937C020E94BC0A80917C0285958595C5
:101F800085950E94AC0F08950E94BC0A0895109296
:101F90007C0280E00E94AC0F089590917C028095B5
:101FA000892380937C02282F277091F4282F082EF4
:101FB000000C330B9217130659F09091590792FFBA
:101FC00007C08595859585950E94CC0A0E94C70F0C
:101FD00008959091590792FB222720F9281769F05C
:101FE00080FB92F990935907809158079091590777
:101FF0000E94311082E00E94CD0F08958091590710
:1020000082FB882780F991E089270E94E90F0895D3
:1020100081E00E94E90F089580E00E94E90F089591
:102020006FEF7FEF90E080E00E94072E089590E030
:1020300080E00E94E32D21E0873E9E4F09F020E0E2
:10204000822F089582E090E00E94DB2D089583E0C6
:1020500090E00E94DB2D089584E090E00E94E32D43
:102060000895BC0184E090E00E94072E0895AB0122
:10207000BC018FE090E00E94FB2D0895AB01BC01F4
:1020800083E190E00E94FB2D089560E070E0CB01B9
:102090000E943E10089560E070E0CB010E9437106E
:1020A0000E944510089567EE7EEF90E080E00E9468
:1020B000072E60E082E090E00E94E92D60E083E07E
:1020C00090E00E94E92D109229021092280260E00F
:1020D00074E184E090E00E94072E60E086E090E0EA
:1020E0000E94E92D6FEF87E090E00E94E92D40E02B
:1020F00050E0BA0188E090E00E94FB2D60E08DE0A6
:1021000090E00E94E92D40E050E0BA0188E190E0C3
:102110000E94FB2D60E087E190E00E94E92D40E005
:1021200050E0BA018CE190E00E94FB2D70E060E08D
:1021300080E290E00E94072E40E050E0BA0188E182
:1021400090E00E94FB2D0E944B1008950E945310B6
:1021500008958EE090E00E94DB2D91E0811101C096
:1021600090E0892F0895682F8EE090E00E94E92D7D
:1021700008950E9458266093960270939702809368
:1021800098029093990260939202709393028093C5
:102190009402909395020895089508950E94CD1099
:1021A000089508950E94D11008958BEA93E10E944A
:1021B000C4240E94CC100E94CE1008950E94951550
:1021C0000895089508950E94E1100E94E210089574
:1021D0000E94D4130E9482060E94AB1A08950E94A6
:1021E00043260E946B130E94AD150E94C2140E94E8
:1021F000E8100E94351A0E94BD150E94D210089561
:102200000E94951581110E94FF1E0895AAE0B0E07A
:10221000ECE0F1E10C94822D0E9416158AE8A82EBC
:1022200082E0B82E750110E0F70101917F01812F46
:102230000E94FA131F5F183009F440C00817A1F379
:1022400080919A0281FD0E9400140E94DE10C82E27
:1022500010E0812F0E94FA13082FF50181915F0190
:10226000081731F1D02ED826F12CEE24E3948D2DD1
:102270008E21B1F0CC20A1F0FE821F8391E0802F4F
:102280008E2109F490E098870E944C268160782F77
:102290009A8789874E815F8168858A850E94AE060C
:1022A000F394EE0CF5E0FF12E2CFF50131970083D5
:1022B0001F5F183071F60E94B91020C00813C0CFFC
:1022C0000E944C268C018091880290918902081707
:1022D0001907A1F08FEF89838A831B820E944C2605
:1022E0008160782F9D838C8349815A816B818D8198
:1022F0000E94AE0610938902009388020E9400118A
:102300000E9439190E9495062A96EAE00C949E2DA7
:10231000CF93DF930E948612EC01811520E592078E
:10232000D0F5811530E4930708F086C0803E910512
:1023300018F58D3C910508F07DC0883A910570F440
:10234000853A910508F06EC08130910501F1009742
:10235000F1F00497E0F4D0E0C0E019C0813C9105B1
:10236000D0F7C85AD0E0CC0FDD1FCE52DE4F099017
:10237000D881C02DD4640BC08115904208F0A8C04C
:10238000C11581E0D80718F4C83ED10520F7CE0169
:10239000DF91CF910895803622E5920710F58034C1
:1023A00032E5930708F052C08032924508F047C0EA
:1023B000C11582E5D80708F47DC02C2F26952695F7
:1023C00040E2249F900111248C2F8370C1E0D0E063
:1023D00002C0CC0FDD1F8A95E2F7C22BD32BDD683C
:1023E000D6CF803A22E5920760F4803832E5930731
:1023F00008F441C0CF71D0E0DC2FCC27C46FD06A85
:10240000C6CF803C42E5940708F449C0C03E82E54F
:10241000D80708F0A0CFDC2FCC27CC27DF71C06F06
:10242000D06AB5CFC55AD0E0CC5FDD4FC881D0E0CF
:10243000D064ADCFD065ABCFDF70D06AA8CFCF71FD
:10244000D0E0DC2FCC27C16FD06AA1CF282F2695F2
:102450002695277080E2289F900111248C2F83708D
:10246000C1E0D0E002C0CC0FDD1F8A95E2F7C22B9D
:10247000D32BDC688CCF282F26952695277040E239
:10248000249F900111248370C1E0D0E002C0CC0FE2
:10249000DD1F8A95E2F7C22BD32BDA6878CF8F71D4
:1024A0000E942813C82FD0E0DC2FCC27CC27DF7167
:1024B000D0626DCF8C2F8F710E94281335E0D69596
:1024C000C7953A95E1F7CF709C2FEC01D0695FCFAB
:1024D0008D2F8F710E94281390E0982F88278827CE
:1024E0009F719C012C2BE901E3CF462F783030F40B
:1024F000653020F4672F0E94F804089590E080E092
:1025000008950E9475120E948811089582389105DD
:10251000B9F1B0F48133910509F47DC048F48932F2
:10252000910509F46DC08A32910509F47BC00895C4
:102530008533910509F45FC08933910509F1089548
:10254000833E9105D9F138F4803E910529F1823E10
:10255000910579F10895863E9105D9F1873E91055F
:1025600009F43EC0843E910541F52091590721FFB1
:1025700024C08091580784FD19C087EE90E008952B
:1025800020915807237009F05AC02091590723FF62
:1025900014C089E290E008952091580720FD38C0CA
:1025A0003091590730FF09C024FF43C090E080E01C
:1025B00008952091580722FDF7CF089520915807DC
:1025C00022FD3AC03091590730FD39C024FFF5CFC4
:1025D000EDCF2091580723FFF0CF24FDE7CFCDCFDB
:1025E0002091580723FD2EC03091590731FFEECFBF
:1025F00084EE90E008952091580725FFDECFC9CFE3
:102600002091580725FD21C02091590723FFD5CFE0
:1026100089E390E0D2CF2091580726FFCECF8AE2FF
:1026200090E008952091580726FFC7CF81E390E0FE
:10263000089583EE90E0089582EE90E0089580EE94
:1026400090E0089586EE90E0089585E390E0089587
:102650009091580792FF06C0282F28712830F9F46E
:10266000877F846093FF06C0282F28712831F1F4FA
:10267000877E84612091590720FF06C0382F38716A
:102680003830D9F4877F816021FF06C0282F287158
:102690002831D1F4877E816194FD877E0895282FAB
:1026A00024712430F9F68B7F8860DCCF282F2471C9
:1026B000243101F78B7E8861DDCF382F31713130C5
:1026C00019F78E7F8860E0CF282F2171213121F703
:1026D0008E7E8861E1CF10925407109255071092B8
:1026E0005607109257070895CF92DF92EF92FF920C
:1026F0006B017C010E94951581110EC00E94582625
:10270000C61AD70AE80AF90AC0925407D0925507A8
:10271000E0925607F0925707FF90EF90DF90CF902E
:1027200008950F931F930E949515882329F00E9406
:1027300058261F910F9108950E9458260091540722
:10274000109155072091560730915707600F711F60
:10275000821F931FEECF80E008950E94101008950D
:10276000CF930E9416158FE39CE90197F1F700C003
:1027700000000E9416150E949215C4E08111C0E06D
:102780008C2F0E94FA1390E002C095958795CA9508
:10279000E2F780FF04C00E94AD130E94B326CF91E0
:1027A00008950E94B01308950E941710811102C06D
:1027B0000E94A6100E94221080939A020E942C1060
:1027C00090935907809358070E94D1130E942710B5
:1027D00090E00E94640A80912602909127020E9454
:1027E000850A089508950E94F213089508950E949D
:1027F000F6130895E82FF0E0ED59F84F8081089521
:10280000089508950E9401140895EF92FF921F9376
:10281000CF93DF9300D000D0CDB7DEB70E949515DF
:10282000182F60916B07882309F447C019821A8218
:102830001B821C82862F90E09E012F5F3F4F790103
:10284000B9018D59984F0E94CB158823E9F08091EA
:102850005A0790E044E050E0B7018D59984F0E942C
:10286000C52D21E020939B02892BC9F410E00E9422
:10287000E405812F0F900F900F900F90DF91CF9173
:102880001F91FF90EF90089580919B02882371F330
:1028900084E0F70111928A95E9F710929B02E0918A
:1028A0005A07F0E0ED59F84F89819A81AB81BC81DC
:1028B00080839183A283B383DACF70E06D59784F20
:1028C00080915A0790E08D59984F0E9452160E94AD
:1028D0000214CFCF1F93CF93DF9320E131E0C1E00B
:1028E000D0E0D90150E040E08D918F3F91F0E82F8A
:1028F000E295EF70F0E011A18F70BE0101C0660F8C
:102900008A95EAF7962F9095912391A382A1862B21
:1029100082A34F5F5F4F4530510531F72B5F3F4F2B
:1029200081E024323807E9F6DF91CF911F910895B5
:10293000CF93DF93AC01A62FB0E085E0689FF00154
:102940001124E05FFE4F75E081E060E091919F3FD0
:1029500081F0C92FC295CF70D0E028A130E09F70E0
:1029600002C0359527959A95E2F7982F20FD90E0C3
:10297000692B880F715051F7A40FB51F6C93DF912D
:10298000CF910895A4E1B0E0E8ECF4E10C948A2D35
:1029900080912401811126C084E1E5E5F1E0DE01AA
:1029A000119601900D928A95E1F7FE013196A0E112
:1029B000B1E0CE01459620812C93218111962C9374
:1029C0001197228112962C931297238113962C93A0
:1029D0001397248114962C931497359615968E1779
:1029E0009F0749F78091240194E0811190E0909332
:1029F0006B0784E0891B80935A070E946A1488E061
:102A0000E3E6F7E0DF01982F1D929A95E9F7EBE5F1
:102A1000F7E0DF011D928A95E9F784E00E945415E2
:102A20000E94E1056496E2E00C94A62DA8E0B0E0D7
:102A3000ECE1F5E10C94872D8E010F5F1F4F88E0CC
:102A4000F80111928A95E9F7F12C6F2DC8010E94C7
:102A50009814F394F4E0FF12F8CF48E050E0B80186
:102A60008BE597E00E94C52D21E0009709F420E056
:102A7000892B41F088E0F801ABE5B7E001900D92B9
:102A80008A95E1F760916B0770E06D59784F44E0EB
:102A90008BE597E00E945515182F0E940514812B95
:102AA0002896E5E00C94A32D0895CF92DF92EF9243
:102AB000FF920F931F93CF936C017B01042F22236E
:102AC00049F081E080939E020E944C2690939D02E3
:102AD00080939C02C0919E02C1110AC0C0E08C2F5D
:102AE000CF911F910F91FF90EF90DF90CF900895BD
:102AF00080919C0290919D020E946426059770F33C
:102B000010E0A801B601C7010E94C52D892B41F034
:102B1000A801B601C7010E94D22D10929E02DFCFFC
:102B2000C0E0FBCF0E94A91008958091A1028111FD
:102B300007C00E94532D882351F081E08093A102A9
:102B400081E09091A102913009F080E0089582E047
:102B50008093A1020E944E2DF3CF0E941710811185
:102B600002C00E94A6100E949215809324010E9428
:102B7000951581110E94011608950E9495158111E5
:102B800002C00E940416089581E09091A2029A303A
:102B900008F080E008950F931F93CF93DF93EC012B
:102BA0008B018091A2028A30B8F4B801CE010E9454
:102BB0004F16C82F811122C08091A2028F3FB9F415
:102BC0000E944C269093A00280939F028C2FDF914D
:102BD000CF911F910F91089580919F029091A00233
:102BE0000E946426843F914000F7C0E0EFCF8F5FE2
:102BF0008093A2028A3020F7C1E0E8CF1092A202AF
:102C0000E5CF0E94622308950E9465230895B0E0F5
:102C1000A0E0EDE0F6E10C94852D7901C82F880F36
:102C2000DD0B41155105A9F0FE0193E0EE0FFF1FEA
:102C30009A95E1F7EB5DFE4F818192818D559D4F15
:102C4000208130E04217530708F49A01A9010E943D
:102C5000D22DCE010E944E24D82E8823D1F001150A
:102C60001105B9F083E0CC0FDD1F8A95E1F7FE0175
:102C7000EB5DFE4F438150E00417150708F4A801EF
:102C8000CB5DDE4F6C817D816D557D4FC7010E940C
:102C9000D22D8D2DCDB7DEB7E7E00C94A12D0E948B
:102CA000491708950E9460170895A4E0B0E0EBE58D
:102CB000F6E10C94882D6091B8027091B902809170
:102CC000BA029091BB020E94732611E0643671052E
:102CD0008105910518F10E9491136E5F7F4F8F4F10
:102CE0009F4F69837A838B839C8310E000E030E000
:102CF00020E044E050E0BE016F5F7F4F82E00E9421
:102D00000716182F882351F00E9458266093B802A6
:102D10007093B9028093BA029093BB02812F2496DC
:102D2000E4E00C94A42DB0E0A0E0E9E9F6E10C9415
:102D3000822D7C015B016A010E94C41501E010E054
:102D4000882311F00AE010E0C1E0D0E0B501C7012E
:102D5000F6010995811104C021960C171D072CF46A
:102D6000CDB7DEB7EAE00C949E2DCC9F9001CD9FAD
:102D7000300D300D112490E080E045E34A95F1F7E5
:102D80000000019682179307C1F7E0CFA5E0B0E0FD
:102D9000ECECF6E10C94822D5B01E0900702F090E0
:102DA000080201E010E09E012B5F3F4F50E040E041
:102DB00070E060E080E00E940716182F882309F475
:102DC0004BC067018FEFC81AD80A6091B4027091A6
:102DD000B5028091B6029091B7020E9473266436C4
:102DE00071058105910580F104E010E09E012F5FDF
:102DF0003F4F50E040E070E060E081E00E94071645
:102E0000F82E64E070E0C6010E94361A11E09D8140
:102E1000981310E01F2159F10E9458266093B402C4
:102E20007093B5028093B6029093B70289819A811C
:102E3000AB81BC818093B0029093B102A093B202A7
:102E4000B093B30211E013C064E070E0C6010E94C9
:102E5000361A9D818913C8CFF70181819281A381A0
:102E6000B48189839A83AB83BC831111DFCF8091B6
:102E7000B0029091B102A091B202B091B302F501FB
:102E800080839183A283B383812F2596EAE00C94FB
:102E90009E2D0F931F93CF93DF93EC018B0146EC94
:102EA00056E10E949316882331F045E556E1B801BA
:102EB000CE010E949316DF91CF911F910F9108953B
:102EC0000F931F93CF93DF93C0910702D091080215
:102ED000CE01019624E0FB01DC0101900D922A95C0
:102EE000E1F764E070E00E94361A88836D817E818C
:102EF0008F8198850091AC021091AD022091AE02B5
:102F00003091AF02601771078207930751F0609309
:102F1000AC027093AD028093AE029093AF020E9418
:102F20007413DF91CF911F910F9108950E9429286A
:102F30000E94EF100E94362808950E943B280E94AC
:102F400006110E94552808950E94E5250E940F2829
:102F50000E94D5100E9496170E949D170E94E310B0
:102F6000FBCF8091C20280FF0DC06091420170E0F2
:102F7000660F771F6038710570F56115710569F18D
:102F8000862F089581FF07C06091420184E0689F09
:102F9000B0011124EFCF6091420182FD0AC08091FF
:102FA000C1028823A9F0209141016091420182175A
:102FB00010F088E0ECCF869FC001112433E0880F29
:102FC000991F3A95E1F7622F70E00E94602DD2CFF1
:102FD00068E070E0D5CF8FE7089581E00895809193
:102FE000C20280FF0CC060913E0170E0759567954C
:102FF000759567956115710549F1862F089581FFD3
:1030000006C060913E0170E075956795F3CF6091C1
:103010003E0182FD0BC09091C0029923A1F0609106
:103020003D0180913E01961738F0682F70E06038BE
:10303000710500F38FE70895899FC001112470E0A6
:103040000E94602DF4CF61E070E0D7CF81E0089559
:103050008D3C31F40E94B11781958093C60208958A
:103060008E3C19F40E94B117F8CF8F3C31F40E94C6
:10307000B11781958093C5020895803D19F40E948F
:10308000B117F8CF893D29F40E94EF178093C7024A
:1030900008958A3D21F40E94EF178195F7CF8B3D6B
:1030A00031F40E94EF1781958093C80208958C3DFA
:1030B00019F40E94EF17F8CF9FE2980F983070F440
:1030C000815D990B21E030E001C0220F8A95EAF77B
:1030D0008091C402822B8093C40208958D3D31F407
:1030E0008091C20281608093C20208958E3D21F4D6
:1030F0008091C2028260F7CF8F3DB9F78091C20202
:103100008460F1CF4091C5028D3C59F48091C60294
:1031100087FF0DC01092C60241110BC01092C10270
:1031200008C08E3C81F48091C60218169CF344239B
:1031300081F08091C7029091C802892B09F05AC092
:103140001092C00208958F3C49F447FFF0CF1092CF
:10315000C5028091C6028111ECCFE0CF803D19F409
:103160001416ACF3E4CF9091C702893D29F41916E7
:10317000F4F61092C702DBCF8A3D19F497FFD7CF40
:10318000F8CF9091C8028B3D29F497FFD0CF1092D1
:10319000C802CDCF8C3D19F41916CCF3C8CF9FE2ED
:1031A000980F983090F4815D990B21E030E0B901DF
:1031B00002C0660F771F8A95E2F7CB018095909148
:1031C000C40289238093C402B2CF8D3D31F4809133
:1031D000C2028E7F8093C202AACF8E3D21F48091DD
:1031E000C2028D7FF7CF8F3D09F0A1CF8091C2023F
:1031F0008B7FF0CF08950E944C269C019091C502D0
:103200008091C602982B21F03093BF022093BE021A
:103210009091C7028091C802982B21F03093BD0293
:103220002093BC0283EC92E00E94F024089586E093
:10323000E3ECF2E0DF011D928A95E9F71092C102FA
:103240001092C0021092C2020895FC018281811185
:103250000EC0838181110BC08481811108C091E06F
:103260008581811101C090E0892F8170089581E0EE
:10327000FCCFA6E0B0E0EFE3F9E10C94892D86E005
:10328000E3ECF2E0DE01119601900D928A95E1F7F0
:103290001092C5021092C6021092C7021092C80284
:1032A0008B819C81892B89F08091BE029091BF0215
:1032B0000E946426AC019091C1029923C9F18091CA
:1032C00043018417150608F440C08D819E81892B27
:1032D00091F08091BC029091BD020E946426AC01E5
:1032E0009091C002992309F471C080913F01841725
:1032F000150608F479C0BE016F5F7F4F83EC92E042
:103300000E949D25811105C083EC92E00E94251941
:1033100081110E94FB1886E0FE013196A3ECB2E019
:1033200001900D928A95E1F72696E3E00C94A52D85
:10333000209144018AE0289F900111242417350729
:1033400020F69F5F9093C10202C09F3FD1F71B817F
:10335000112359F00E94B1179FEF11160CF491E060
:10336000899F802D11248093C5021C81112359F05F
:103370000E94B1179FEF11160CF491E0899F802DE8
:1033800011248093C6023091C502332309F49DCFE6
:103390002091C602222309F498CF45EB3403C001E3
:1033A0001124992359F09093C50245EB2403900111
:1033B0001124332339F03093C60287CF81E0809304
:1033C000C502F3CF81E08093C6027FCF20914001F8
:1033D0008AE0289F900111242417350708F08BCF2D
:1033E0009F5F9093C00202C09F3FD1F71D811123C0
:1033F00059F00E94EF179FEF11160CF491E0899F8E
:10340000802D11248093C7021E81112359F00E9440
:10341000EF179FEF11160CF491E0899F802D112476
:103420008093C8023091C702332309F464CF2091FE
:10343000C802222309F45FCF45EB3403C0011124F5
:10344000992359F09093C70245EB2403900111246E
:10345000332339F03093C8024ECF81E08093C70206
:10346000F3CF81E08093C80246CF0895FC01680F36
:10347000791F8FEF91E36E177F0709F4089521916B
:10348000822728E030E087FF06C0880F8927215077
:103490003109C9F7F0CF880FFACFFB01228122232F
:1034A00041F097FF06C09F77BC0190E080E00E944A
:1034B0009E1B81E008950F931F93CF93DF93EC0140
:1034C0008B01FB0182818823B1F00E94260F82725A
:1034D000FE01E053FC47E830F10568F4E15CF14D92
:1034E0000C94742D811104C081E003C08111FCCFC4
:1034F0008FEF0E94BE1AB801CE010E944D1ADF91D3
:10350000CF911F910F91089580E00E94C61AF3CFCA
:1035100081E0FBCF82E0F9CF83E0F7CF84E0F5CF05
:1035200085E0F3CF90916D07923071F48A3050F4BA
:1035300090E009966AE070E00E94602D875A0E9430
:103540008F0708958650FBCF0E94891D0895089526
:103550000E94A71A08958CE090E00E94DB2D482F6E
:1035600050E070E060E040936D0750936E07609309
:103570006F07709370070E94A81A089508956091CC
:103580006D078CE090E00E94E92D0895CF93C82F3D
:1035900080936D070E94BF1A8C2F0E94A81ACF91AA
:1035A00008950E94E22480936C0790916D079130FA
:1035B00029F481FF03C089E30E948F070E94260F30
:1035C000809371070E94390F0E94490F80916D0707
:1035D000823021F158F48823C1F08130D1F08FE39B
:1035E0009CE90197F1F700C000000895843051F183
:1035F0008530A9F78BE191E00E947C0585E290E09F
:103600000E947C0588E290E006C082EE0E94F706E8
:10361000E6CF88E193E00E947C05E1CF80916C07C2
:1036200080FD03C083E50E948F0782EE0E94F706AB
:103630008FE39CE90197F1F700C0000087E50E9445
:103640008F07CDCF86EE0E948F0788E1F8CF80915B
:103650006D07823011F148F4882381F0813091F0B8
:10366000809171070E94360F08958430F9F08530FB
:10367000B9F788E290E00E947C05F2CF82EE0E94CA
:103680004407EECF8CE20E948F0780916C0781FF88
:10369000E7CF89E30E948F07E3CF82EE0E944407C1
:1036A00080916C0780FDDCCF83E5F4CF88E2F2CF18
:1036B0008F929F92AF92BF92EF92FF920F931F93C0
:1036C000CF93DF934B015C01D0916D078CE1E82E25
:1036D000F12C07E010E021E0D501C4010E2C04C05C
:1036E000B695A795979587950A94D2F7C82FCF706E
:1036F000222339F0D43051F4CA3040F080E00E94E7
:10370000921A8C2F0E94921A20E005C0C111F9CFA5
:1037100004301105B4F30150110984E0E81AF108EE
:103720000F3F1007C9F6DF91CF911F910F91FF90C6
:10373000EF90BF90AF909F908F900895CF92DF92BF
:10374000EF92FF926B017C01C114D10481E1E80684
:10375000F104A0F5C114D10481E0E806F10420F0E1
:1037600080916D07823051F10E94D11AC114D104A9
:1037700081E0E806F10438F180916D07811123C0E2
:1037800081E0E81AF108C701B6012AE0969587950D
:10379000779567952A95D1F778528F4F9F4F0E9462
:1037A000581B83E0D822EE24FF24C701B6017452CF
:1037B0008F4F9F4F0E94581B0E94271BFF90EF9036
:1037C000DF90CF900895C701B601F4CFCF93DF9378
:1037D000EC01FB018281882309F4D2C09E0130579D
:1037E0002332310508F0B2C00E942C109093590783
:1037F00080935807FE01E150F047E232F10520F4D2
:10380000E95BF14D0C94742D809158078160809391
:10381000580793C0809159078860809359078DC0DD
:10382000809158078260F3CF809158078460EFCF72
:10383000809158078860EBCF809159078160EDCF68
:10384000809159078260E9CF809158078061DFCF6E
:10385000809158078062DBCF809158078064D7CF72
:103860000E940A0A809158078068D1CF809158073A
:103870008C60CDCF809159078360CFCF809158075E
:103880008E7FC5CF80915907877FC7CF809158071A
:103890008D7FBDCF809158078B7FB9CF809158071E
:1038A000877FB5CF809159078E7FB7CF8091590719
:1038B0008D7FB3CF809158078F7EA9CF8091580715
:1038C0008F7DA5CF809158078F7BA1CF0E940A0AD8
:1038D000809158078F779BCF80915807837F97CF30
:1038E000809159078C7F99CF8091580782FB992747
:1038F00090F921E0922790FB82F990FB83F987CF22
:1039000080915907982F909591708E7F892B90FB0D
:1039100081F983CF90915807892F8F7B96FF806420
:1039200076CF0E940A0A90915807892F97FB87F952
:1039300080586DCF81E00E94B3108091580790911C
:1039400059070E9431100E940A0A80E0DF91CF914E
:10395000089580E0F0CF90915807892F8F7E94FFD3
:10396000806155CF90915807892F8E7F90FF81609D
:103970004ECF90915907892F877F93FF88604DCF55
:1039800081E0E4CFB0E0A0E0E8ECFCE10C94852D10
:10399000E82FF0E0E858FB4FD490282F2695269585
:1039A000269530E0F901E85EFA4F0491877010E047
:1039B000082E02C0159507950A94E2F701701127A9
:1039C000F901E85FFA4FE490F12C082E02C0F5945B
:1039D000E7940A94E2F791E0E922FF24F901E85024
:1039E000FB4FC491D0E002C0D595C7958A95E2F708
:1039F000C170DD270115110519F081EE0E94F7064F
:103A0000E114F10419F086EE0E94F7068D2D0E9454
:103A10008F07E114F10419F086EE0E9444070115A6
:103A2000110519F081EE0E944407CD2B19F08CE2AC
:103A30000E948F07CDB7DEB7E7E00C94A12DEF927F
:103A4000FF920F931F93CF93DF93EC01162F0AE0A1
:103A50008881882309F454C0813009F04EC08981DF
:103A6000813099F47E0122E0E20EF11C8A810E94ED
:103A70008F07E7012196812F815050F3EFE9FFE096
:103A80003197F1F700C00000F7CF823041F47E019A
:103A900082E0E80EF11C8A810E94F706EACF8330AB
:103AA00041F47E01E2E0EE0EF11C8A810E9444079F
:103AB000E0CF843011F02196DDCF2A81229690E06C
:103AC00080E0AE014F5F5F4F2053330B2A3031054A
:103AD00048F0019778F2EFE9FFE03197F1F700C085
:103AE0000000F7CF089FB001099F700D1124C90194
:103AF000860F971F2981EA01E4CF0E94C21CBACF2A
:103B0000CDB7DEB7E6E00C94A22D60E00E941F1D49
:103B10000895982F9F709A50963020F0805D0E94F3
:103B2000C21C0895895AFBCF08950F931F93CF931A
:103B3000DF9380913403E091C9021CE081111AC027
:103B4000DF91CF911F910F91089501E00E0F009327
:103B5000C902CE2FD0E0E19FF0011124EC52FD4FBD
:103B600083819481892B29F08081918189238F3FE2
:103B7000F9F4E02F80913403E81738F310923403FE
:103B80001092C902DDCF18968D919C918F3F9807B6
:103B9000E1F061E00E94941D1C9FF0011D9FF00D5B
:103BA0001124EC52FD4F148213820E94490FE1CF81
:103BB0001C9FD0011D9FB00D1124AC52BD4F169615
:103BC0008D919C911797892BF1F22081318142814F
:103BD000538164817581868197810E94670EDCCF55
:103BE000109236031092350320914601309147011F
:103BF000E0E0F1E090E080E02817390709F408954B
:103C00004581411102C01482168201963796F4CF85
:103C1000DC016091D2028091D302962F891301C0FA
:103C20000895292F30E0F901EE0FFF1FE653FD4FF5
:103C3000408151814A175B07A1F487E08A9FA00168
:103C40008B9F500D112440505F4F81E0FA01848317
:103C50009613E6CF2F5F3F4F237033272093D20276
:103C600008952F5F3F4F922F9370D8CFB0E0A0E020
:103C7000ECE3FEE10C947F2DEB012C81211152C06D
:103C800070903403A4EDB2E030E020E0812C61E0DC
:103C900070E0271508F044C01A96CD90DC901B9771
:103CA000A880B9804FEF5FEF912CE92CF12CF70140
:103CB000EE0FFF1FEA0DFB1D05911491C016D106F2
:103CC00009F4A7010115110511F09394EECF4F3FB0
:103CD000540789F1FB0102C0EE0FFF1F4A95E2F77E
:103CE0008E2AAB01092C02C0440F551F0A94E2F73B
:103CF0004150510984161506D1F44A815B816CE06C
:103D0000629FF001639FF00D1124EC52FD4F578329
:103D100046832EEF208321839187808721E02D83A6
:103D20000E94081ECDB7DEB7EDE00C949B2D1496D3
:103D30001C921E9213972F5F3F4F1C96AACF1F9382
:103D4000CF93DF93C091D20217E08091D3028C13FE
:103D500008C00E94951D0E94F01DDF91CF911F9118
:103D60000895D0E0FE01EE0FFF1FE653FD4F808166
:103D70009181189FB001199F700D112460507F4FE1
:103D80000E94361E2196C370E0CFEF92FF921F93E0
:103D9000CF93DF93FC012081318110E040E050E0BF
:103DA000E52FF0E0EE0FFF1FE20FF31FA591B49196
:103DB0001097B9F0FB01C081D18140E005C0AE157C
:103DC000BF0509F411E04F5FE42FF0E0EE0FFF1F95
:103DD000EC0FFD1FE590F490E114F10481F75F5FB3
:103DE000DFCF112349F0451708F4CB01DF91CF91C4
:103DF0001F91FF90EF90089590E080E0F7CF8091C1
:103E00004501882341F18091370390913803009751
:103E100011F10E9464262091350330913603281752
:103E20003907C8F49091D2028091D302981759F0C3
:103E30000E949F1E10923603109235031092380391
:103E40001092370308950E94951D10923803109226
:103E500037030E94F01D0895109238031092370323
:103E6000109245018091D3028093D2020E94F01DEE
:103E70000E94951D089580914501882319F00E94A4
:103E80002C1F089581E0809345010895A9E0B0E0DA
:103E9000ECE4FFE10C947A2D5C017B0180352CE78A
:103EA000920761F4FB011281112389F081E0809374
:103EB0004501812F2996E2E10C94962D8135FCE78E
:103EC0009F0709F04FC0FB011281111148C000E0AB
:103ED00011E0D12CC12C198688248394912C8091D7
:103EE000460190914701C816D90608F447C0F7016A
:103EF0008281882309F46FC1F985FF2309F46BC11E
:103F00000E944C26909338038093370380913403AA
:103F1000883008F591E0980F9093340398E0F7010A
:103F2000DE01119601900D929A95E1F72CE0829FA7
:103F3000C00111248C529D4F28E0FE013196DC0116
:103F400001900D922A95E1F72FEF3FEFFC013187A9
:103F50002087B386A28611E0F9851F27AACF0E9489
:103F60002C1FA7CF82359C4709F0B1CFFB011281EE
:103F7000112309F4ACCF0E943B1F9BCFF801408175
:103F8000518166246A94762C412C242D30E0F9016D
:103F9000EE0FFF1FE40FF51F85919491A816B90647
:103FA00009F43901892B11F04394EFCF312CFFEF45
:103FB0006F167F0609F44EC0F8018481811153C049
:103FC00080914501882309F44EC09701A501B801ED
:103FD000C6010E94C404F82FF1703F2EF8015580ED
:103FE0008681F7019281992309F491C0332009F465
:103FF0008EC0511015C09401062C01C0220F0A94E6
:10400000EAF7822BF801868380913503909136037D
:10401000889730F428E230E030933603209335035C
:10402000C401042C02C0880F991F0A94E2F701977B
:10403000F80126812817190669F4809137039091B9
:104040003803009791F00E946426899770F021E070
:10405000F8012483F985F329F9872FEFC21AD20AD0
:10406000095F1F4F3CCF80E0B6CF2090D20290E096
:1040700080E02091D302221215C00817190751F3CE
:10408000622C712CF301EE0FFF1FE653FD4FD1821E
:10409000C0828FEF681A780A93E0692277246092D1
:1040A000D302D8CF622C712CF301EE0FFF1FE65321
:1040B000FD4F2081318147E0429FC001439F900D19
:1040C0001124FC01E050FF4F2F01B801CF010E94E5
:1040D000C51E0097A9F021E0FC01248308171907E9
:1040E00009F4B8CF2091D20222120AC0481659060C
:1040F00039F493012F5F3F4F237033272093D2026F
:104100003FEF631A730A462D4370242EB2CF90E01E
:10411000511022C09401042C02C0220F331F0A94B4
:10412000E2F7215031098217930741F4F8018481A5
:10413000882309F44EC0C6010E94081EC401062C43
:1041400001C0880F0A94EAF7982F9095F8018681AC
:1041500089238683352C7ECF9C01062C02C03595A1
:1041600027950A94E2F7A90141705527BC016150D7
:10417000710986239723892B41F5452B31F1F801ED
:1041800082819381892BE1F01B821C821D821E8219
:10419000FEEFF983FA830E944C268160582F9D839D
:1041A0008C83F801828193818F83988729813A815A
:1041B0004B816D817E810E94670EF8011582BECF12
:1041C00060E0C6010E94941DF8CFF22FF1705F2EBF
:1041D000B5CF532CB3CF9091D2028091D3029817D0
:1041E00019F00E949F1EB7CE0E94951D10923803B1
:1041F000109237030E94F01DAECE089508950895E1
:10420000089581E008950F931F93CF93DF93EC01FE
:104210008B010E94FD200E940A0A0E948F0A1983C6
:104220000883DF91CF911F910F910895AF92BF92B4
:10423000CF92DF92EF92FF921F93CF93DF93EC0127
:104240006B01142FE0902602F09027020E940A0AC8
:104250000E948F0A88E0180250011124CC15DD0558
:1042600091F40E940A0AC7010E94880A812F0E94C5
:10427000FE20DF91CF911F91FF90EF90DF90CF90C4
:10428000BF90AF900895CE010E94BC09CA0DDB1DFE
:10429000E5CF0F931F93CF93DF93EB01F801A88134
:1042A000B9813281311103C08A179B07A9F088E0D8
:1042B0002802B0011124CD01861B970B481759071E
:1042C00081F088E001900D928A95E1F788819981CB
:1042D000860F971F99838883DF91CF911F910F914C
:1042E0000895BF01822F0E94FF20F6CFCF92DF9268
:1042F000EF92FF920F931F93CF936C018B01C42F0A
:104300007901842F0E94002188E0C802A0011124B5
:104310005195419551090C151D0531F0F801E40F37
:10432000F51F828181110BC0F70111830083CF91AA
:104330001F910F91FF90EF90DF90CF9008958F0124
:10434000EACF0F931F93CF938B0120913B0721114D
:104350003DC0FB01C281CC2331F0C1E08C2FCF9155
:104360001F910F9108958435FCE79F07E9F068F4E9
:1043700083359C4791F769E373E089E397E00E94F6
:10438000032181E080933B07E9CF8635ECE79E0768
:1043900099F087359C4709F7609148017091490170
:1043A0004FEF81E397E00FC061E377E089E397E0A7
:1043B0000E94032182E0E6CF60914A0170914B0197
:1043C00041E089E393E00E941621C8CFAC01435538
:1043D0005C474330510538F531E085359C4709F499
:1043E00030E0F8018281831731F0213031F0223042
:1043F00081F010923B07C0E0B1CF60913907709116
:104400003A072AE431E041E089E393E00E94762113
:10441000F0CF6091390770913A0728E431E04FEF0F
:1044200081E397E0F3CF0E940121C82F882309F48C
:1044300094CF80913B07813069F0823009F08DCFB5
:1044400040914A0150914B012FEF69E377E081E3FE
:1044500097E009C0409148015091490121E069E38A
:1044600077E089E393E00E94492178CFCF93DF93EF
:10447000EB0186319C4711F50E94260F9A81992302
:1044800099F08A7A91E009F490E090933C078111C9
:1044900009C089E20E94FE0E0E946A0F80E0DF914F
:1044A000CF91089585E3F6CF80913C07811104C038
:1044B00089E20E94060FF0CF85E3FBCF81E0EFCFCA
:1044C0000F931F93CF93DF93C42FD22FFC018281D0
:1044D0008823C9F040933F070E944C2690933E07E3
:1044E00080933D0780E28C0F883040F4C77081E0F4
:1044F00001C0880FCA95EAF70E949807DF91CF9113
:104500001F910F91089510913F07141332C08091AD
:104510003D0790913E070E9464268A3F910548F529
:10452000C0E2CD0F1D17B9F080E2810F883040F452
:10453000177081E001C0880F1A95EAF70E949F0763
:10454000C83048F481E09D2F977001C0880F9A957C
:10455000EAF70E949807802F0E948F07C83070F6F4
:10456000D77081E001C0880FDA95EAF70E949F07B3
:10457000C5CF80E28C0F883008F6C77081E001C09B
:10458000880FCA95EAF7F2CF0F93DB0188519C4759
:1045900087309105A0F5FC01E759F14D0C94742D7D
:1045A00006E221EE41EE6AE17CE7CD010E94602245
:1045B00080E00F91089507E225EE45EE6BE17CE780
:1045C000F4CF06E221EE40EE68E17CE7EECF07E2B1
:1045D00025EE44EE69E17CE7E8CF06E221EE42EE0B
:1045E0006CE17CE7E2CF07E225EE46EE6DE17CE789
:1045F000DCCF08E221E045EE6EE17CE7D6CF1296F3
:104600008C91882319F010923F07D3CF81E0D1CF4E
:104610008EE14A9B02C08150E1F74A9BFECF08958C
:104620005A9880E28A95F1F75A9A0895FC013BE086
:104630003A95F1F798E020E080E031E040E14A95DA
:10464000F1F7880F4A9B02C08160232742E04A9518
:10465000F1F7000040E14A95F1F7915079F790E1C8
:104660009A95F1F799B132E03A95F1F7000040E1FF
:104670004A95F1F792FB992790F992272081920FA2
:1046800090830895A1E0B0E0E8E4F3E20C94862D75
:1046900019828C017C01E60EF11C0E151F0541F4F8
:1046A00081E09981911180E02196E6E00C94A22DA1
:1046B0000E940823CE0101960E941623F8018193DF
:1046C0008F01EBCF529A5A9A089552985A9AEA9AC1
:1046D000E9E6F0E080818F7C808308956150770B5C
:1046E00091E001C0990F6A95EAF720E031E091115D
:1046F00008C0222391F05A9A80E28A95F1F75A98DD
:104700000895492F482339F05A9A232740E24A95C1
:10471000F1F79695ECCF5A98F9CF5A98EDCFFF92D2
:104720000F931F93CF93DF93EC018C01060F111DA4
:10473000C017D10729F4CDB7DEB7E5E00C94A32D5F
:10474000F9900E94102368E08F2D0E946E23F0CF15
:104750001F920F920FB60F9211240F931F932F9356
:104760003F934F935F936F937F938F939F93AF93F9
:10477000BF93EF93FF93CF93DF930F92CDB7DEB745
:1047800019820E940823CE0101960E941623082F49
:10479000069506950695282F22952570902F9570E1
:1047A000290F922F937026952695920F9827977030
:1047B0008981982B09F05CC0043008F059C080E171
:1047C0008A95F1F75A9A529A82E08A95F1F700C0D9
:1047D0005A9888E0089F80011124D801AB5DBE4F34
:1047E0001696ED91FC9117973097A9F0609107020A
:1047F0007091080214962D913C911597260F371F42
:1048000011968D919C911297680F791F13964C9178
:1048100013978C910995F801EB5DFE4F6381662338
:1048200051F0209107023091080284819581820F16
:10483000931F0E948F230E94102380E18A95F1F735
:104840005A9852985A9A80E18A95F1F7F801EB5DEF
:10485000FE4F6081662351F02091070230910802DB
:1048600081819281820F931F0E9442230E9408231C
:104870000F90DF91CF91FF91EF91BF91AF919F91F9
:104880008F917F916F915F914F913F912F911F91E8
:104890000F910F900FBE0F901F9018950F931F93BD
:1048A000CF93DF93EC0104970CF04CC0F894529A2C
:1048B0005A9885E08A95F1F700009C2F969595709F
:1048C0008C2F8570980F892F83709695969523E08D
:1048D000CC0FDD1F2A95E1F7980F8E01092B0E945E
:1048E000102300C068E0802F0E946E2380E18A952B
:1048F000F1F752985A9A4A9B1EC087E090E04A9975
:104900001CC0FE01EB5DFE4F63816623F9F0209130
:1049100007023091080284819581820F931F0E94C3
:104920004223811113C0529A5A9A7894DF91CF9101
:104930001F910F91089500C0DECF019729F4529A7C
:104940005A9A789480E0F2CF00C0D9CF0E94082311
:1049500080E28A95F1F75A98529A80E18A95F1F7A8
:10496000CB5DDE4F6881662351F0209107023091C4
:10497000080289819A81820F931F0E948F230E94CF
:104980001023789481E0D2CF90930B0280930A0297
:104990000895909346078093450708950E949515C2
:1049A000811103C0809140070895E0914507F0917F
:1049B0004607309729F00190F081E02D0995089580
:1049C00080E008950E94CE240895E0914507F0917B
:1049D0004607309721F00280F381E02D0995089574
:1049E000E0914507F0914607309739F022E0DC016D
:1049F0002C930480F581E02D09950895A3E0B0E0A3
:104A0000E4E0F5E20C948A2D2091430730914407AD
:104A100028173907A1F09093440780934307E0914A
:104A20004507F0914607309751F023E029839B8397
:104A30008A830680F781E02DCE01019609952396A1
:104A4000E2E00C94A62DA3E0B0E0E9E2F5E20C94DC
:104A50008A2D209141073091420728173907A1F08C
:104A60009093420780934107E0914507F0914607F4
:104A7000309751F024E029839B838A830680F78155
:104A8000E02DCE01019609952396E2E00C94A62D27
:104A90009C012E5F3F4FAC01485F5F4F80E02417C1
:104AA000350709F40895F90191919F019923B9F30C
:104AB0008F5FF5CF662349F0FC013296089621916D
:104AC000261729F0E817F907D1F780E0089581E06B
:104AD00008959C01FC0132969FEF80E041914617BA
:104AE00051F09F3F19F4411101C0982F8F5F86301C
:104AF000A9F79F3F09F40895290F311D97FD3A95B5
:104B0000F90162830895FC013296089621912613DB
:104B100003C0DF0111971C92E817F907B9F7089550
:104B20000E94692508950E9483250895029626E033
:104B3000FC0111922A95E9F7089546E050E00E94A1
:104B4000C52D21E0892B09F420E0822F08950895D6
:104B50000E94A7250895811106C081E08093470730
:104B60000E94A825089582E0F9CF83E0809347074B
:104B70000E94A82508950E94AB25089581E08093A6
:104B800047070E94A82508950E94BE25089508950C
:104B900008950E94C8250895089508950E94C72584
:104BA0000895CF930E94CC250E9416150E94CD2512
:104BB000C0E08C2F0E94FA13811105C0CF5FC8306E
:104BC000C1F7CF91089581E0FCCF85B7806885BF9C
:104BD00085B7806885BF08951F921FB61F92112464
:104BE0008F939F93AF93BF9380914807811113C018
:104BF0008091720790917307A0917407B091750727
:104C00004196A11DB11D8093720790937307A093E5
:104C10007407B0937507BF91AF919F918F911F90CB
:104C20001FBE1F90189580917A07843031F10E9441
:104C300062061092480788E190E020E40FB6F894ED
:104C4000A895809360000FBE2093600083B7817F9A
:104C5000846083BF83B7816083BF7894889583B76E
:104C60008E7F83BF0FB6F894A8958091600088610D
:104C700080936000109260000FBE08950E940A0A9F
:104C80000E946706089582E084BD93E095BD9AEF87
:104C900097BD80936E0008952FB7F89480917207A6
:104CA00090917307A0917407B09175072FBF089575
:104CB0002FB7F89460917207709173078091740711
:104CC000909175072FBF08959C014FB7F89480917C
:104CD000720790917307A0917407B09175074FBF49
:104CE000821B930B0895CF92DF92EF92FF922FB722
:104CF000F894C0907207D0907307E0907407F0901A
:104D000075072FBFA7019601261B370B480B590BC0
:104D1000CA01B901FF90EF90DF90CF900895789489
:104D20001F921FB61F9211248F939F93AF93BF932F
:104D30008091720790917307A0917407B0917507E5
:104D40000196A11DB11D8093720790937307A093E4
:104D50007407B0937507BF91AF919F918F911F908A
:104D60001FBE1F90189587E797E7909301088093DF
:104D7000000888E19AE00FB6F894A8958093600047
:104D80000FBE90936000FFCF88E19AE00FB6F894D1
:104D9000A895809360000FBE90936000FFCF809134
:104DA000510708959B01BA0190917A079430E9F474
:104DB0008F708093E9009FEF8091E800915085FD0E
:104DC00006C085ED8A95F1F700009111F5CF80912D
:104DD000E80085FF0AC050E040E0C9010E94C728F2
:104DE0008091E8008E778093E800089543E050E0DA
:104DF000BC0182E00E94D226089546E050E0BC014A
:104E000082E00E94D2260895CF93DF93EC0148E020
:104E100050E0BC0181E00E94D22688E0FE01A9E4B6
:104E2000B7E001900D928A95E1F7DF91CF91089557
:104E300080917907811109C00E94572A0E94B42AE3
:104E40008091E20084608093E200089510927907D7
:104E500008950E94BE2508956091760781E0611152
:104E600001C080E00E94B525089590917A0781E005
:104E7000943009F080E0609176070E94BB25089588
:104E800042E061EC81E00E94D32942E261EC82E0E1
:104E90000E94D32990917A0781E0943009F080E054
:104EA000609176070E94AB25089580917C0783303E
:104EB00009F461C030F48130D1F1823009F49EC030
:104EC00008958A3009F48AC08B3009F46FC08930A4
:104ED00009F050C080917B07813209F04BC080916E
:104EE0007F0790918007029708F044C08091E80006
:104EF000877F8093E8008091E80082FF37C090911F
:104F0000F3008091F200029731F48091F10081303A
:104F100011F0863021F48091F10080935107809147
:104F2000E8008B778093E8000E94072A23C08091D5
:104F30007B07813AF9F48091E800877F8093E8004D
:104F400080917F0790918007892B61F468E089E464
:104F500097E070E00E9416298091E8008B7780939B
:104F6000E800089560E090E080E0F3CF80917A0758
:104F70008111C1CF089580917B07813AD9F7809143
:104F80007F0790918007892BA9F78091E800877FA0
:104F90008093E8008091E80080FFFCCF809154016D
:104FA0008093F1008091E8008E77BCCF80917B07E1
:104FB000813201F780917F0790918007892BD1F68C
:104FC0008091E800877F8093E8000E94072A809103
:104FD0007D07809354010E940A0A089580917B07FF
:104FE000813241F68091E800877F8093E8000E943B
:104FF000072A80917E0780935207089580917B074E
:10500000813A09F0B7CF8091E800877F8093E8006C
:105010008091E80080FFFCCF80915207C1CF84B718
:10502000877F84BF0FB6F894A8958091600088614F
:1050300080936000109260000FBE80E890E00FB691
:10504000F89480936100909361000FBE0E94C42584
:1050500008950E94572A0E94B42AE2EEF0E080816F
:105060008460808378940E94332D08958CE491E0CD
:105070000E94C924089580917A07853031F4809187
:105080007A07853019F00E943E2608950E94132663
:1050900080917807882399F30E94D125882379F39A
:1050A0000E94B1280E940A0AEACF08950E94592856
:1050B0000895292F33272330310519F168F4213061
:1050C000310509F444C02230310509F445C090E0AF
:1050D00080E030E020E025C02132310549F1223264
:1050E0003105A9F780E490E02AE136E06115710509
:1050F000C1F08BE790E02FE935E06130710589F070
:10510000E6CF99278130910581F0009729F0029729
:10511000F1F6E8E2F5E002C0EEE4F5E0849190E01B
:105120009F01FA01318320830895E4E4F5E0F6CF8E
:1051300089E090E024E635E06115710591F389E09E
:1051400090E02DE735E06130710559F3C0CF82E181
:1051500090E02DE835E0E5CF8BE390E022E535E007
:10516000E0CF80E189BD82E189BD09B400FEFDCFB9
:105170008091D8008F7D8093D8008091E00082607C
:105180008093E0008091E00081FDFCCF0895AF9214
:10519000BF92CF92DF92FF920F931F93CF93DF9333
:1051A0006C01EB018A010E94262AF82E811123C08E
:1051B0000115110539F0F80180819181C81BD90BC7
:1051C000C80ED91EB12CA12C2097A9F08091E8001F
:1051D00085FD22C08091E8008E778093E80001155C
:1051E0001105A1F0F80180819181A80EB91EB1824C
:1051F000A08285E0F82E8F2DDF91CF911F910F9126
:10520000FF90DF90CF90BF90AF9008950E94262A24
:105210008823D1F2F82EEFCFF60181916F018093B0
:10522000F1002197FFEFAF1ABF0ACECFFC018091AA
:1052300081079091820786179707A0F06115710585
:1052400029F49091E8009E779093E80090E0611532
:10525000710551F4911108C08091E80082FF34C0BB
:1052600080E00895BC01F2CF80917A078823C1F1D4
:105270008530C1F18091E80083FD30C08091E80065
:1052800082FDEACF8091E80080FFE1CF8091F300BA
:105290002091F200382F6115710519F02830310581
:1052A00058F091E02830310509F090E02091E800B5
:1052B0002E772093E800CBCF81918093F10061504D
:1052C00071092F5F3F4FE7CF80917A07882341F024
:1052D000853041F08091E80083FFBECF81E00895E2
:1052E00082E0089583E00895FC0180918107909108
:1052F000820786179707A0F06115710529F4809140
:10530000E8008E778093E80090E06115710551F414
:10531000911108C08091E80082FF35C080E00895B7
:10532000BC01F2CF80917A078823C9F18530C9F199
:105330008091E80083FD31C08091E80082FDEACFD2
:105340008091E80080FFE1CF8091F3002091F2008E
:10535000382F6115710519F02830310558F091E0AA
:105360002830310509F090E08091E8008E77809335
:10537000E800CBCF84918093F100319661507109A0
:105380002F5F3F4FE6CF80917A07882341F0853029
:1053900041F08091E80083FFBDCF81E0089582E075
:1053A000089583E00895982F973028F08F708093A8
:1053B000E90081E008959093E900242F762F50E0D2
:1053C000981731F07091EC002091ED005091F000B1
:1053D00021FD02C09F5FE8CF3091EB003E7F30930C
:1053E000EB003091ED003D7F3093ED003091EB000C
:1053F00031603093EB007093EC002093ED005093FC
:10540000F0002091EE0027FDE5CF80E00895809127
:105410007B0787FF13C08091E80082FF06C0809160
:10542000E8008B778093E80004C080917A078111AF
:10543000F2CF089580917A078823D9F38091E8000C
:1054400080FFF8CF8091E8008E77ECCF2091E400C8
:105450003091E50095E6A9012091EC00822F817042
:1054600020FF06C08091E80080FF06C080E008951C
:105470002091E80022FD1AC080917A07882389F0E4
:10548000853089F08091EB0085FD0FC02091E4000C
:105490003091E50042175307F9F29150E1F684E0AC
:1054A000089582E0089583E0089581E008950E94C0
:1054B000C62A0E94CE2AE0EEF0E0808181608083DF
:1054C000E8EDF0E080818F77808319BCA7EDB0E034
:1054D0008C918E7F8C9380818F7E80831092790750
:1054E00008950F931F93CF93DF930E94C62A0E94C3
:1054F000CE2AC8EDD0E088818F7788838881806844
:10550000888388818F7D888319BC10927A071092D6
:105510007607109278071092770700EE10E0F801F6
:1055200080818B7F808388818160888342E060E016
:1055300080E00E94D329E1EEF0E080818E7F8083BD
:10554000E2EEF0E0808181608083808188608083EA
:10555000F80180818E7F8083888180618883DF91DC
:10556000CF911F910F910895E8EDF0E080818F7E3B
:105570008083E7EDF0E080818160808384E082BFFA
:1055800081E0809379070E94712A0895E8EDF0E0A8
:1055900080818E7F80831092E20008951092DA005D
:1055A0001092E10008951F920F920FB60F921124EE
:1055B0002F933F934F935F936F937F938F939F931B
:1055C000AF93BF93EF93FF938091E10082FF0BC0F5
:1055D0008091E20082FF07C08091E1008B7F809381
:1055E000E1000E94322D8091DA0080FF19C0809185
:1055F000D80080FF15C08091DA008E7F8093DA009A
:105600008091D90080FF96C080E189BD82E189BD8B
:1056100009B400FEFDCF81E080937A070E9418272D
:105620008091E10080FF19C08091E20080FF15C0E9
:105630008091E2008E7F8093E2008091E2008061A1
:105640008093E2008091D80080628093D80019BCDA
:1056500085E080937A070E942C278091E10084FFE7
:105660002BC08091E20084FF27C080E189BD82E1E8
:1056700089BD89B5982F917080FFFBCF8091D800AC
:105680008F7D8093D8008091E1008F7E8093E10030
:105690008091E2008F7E8093E2008091E200816041
:1056A0008093E20080917607882309F449C084E062
:1056B00080937A070E9435278091E10083FF29C0FB
:1056C0008091E20083FF25C08091E100877F809375
:1056D000E10082E080937A07109276078091E100E2
:1056E0008E7F8093E1008091E2008E7F8093E200C4
:1056F0008091E20080618093E20042E060E080E01F
:105700000E94D3298091F00088608093F0000E946D
:105710002927FF91EF91BF91AF919F918F917F9139
:105720006F915F914F913F912F910F900FBE0F900E
:105730001F90189519BC10927A070E94262770CFE7
:105740008091E30087FD93E090937A07B3CF1F9297
:105750000F920FB60F9211242F933F934F935F93A5
:105760006F937F938F939F93AF93BF93CF93DF9369
:10577000EF93FF93D091E900DF708091EC00C82F88
:10578000C17080FDC0E81092E9008091F000877F31
:105790008093F00078940E94EB2B1092E9008091A6
:1057A000F00088608093F000CD2BCF70C093E900AB
:1057B000FF91EF91DF91CF91BF91AF919F918F9129
:1057C0007F916F915F914F913F912F910F900FBEFD
:1057D0000F901F901895AAE2B0E0E1EFFBE20C9465
:1057E000892D8BE797E02091F100FC012193CF01F7
:1057F000F7E083389F07B9F70E9455278091E800AA
:1058000083FF1EC180917B0790917C079A3008F03E
:1058100017C1E92FF0E0E059F14D0C94742D803858
:1058200099F0823809F00CC180917F078F70873022
:1058300008F006C18093E9008091EB0085FB882782
:1058400080F91092E90006C080917707909178075F
:10585000911182609091E800977F9093E800809387
:10586000F1001092F1008091E8008E77E5C0882366
:1058700009F4D3C0823009F0E3C080917D07811123
:10588000D6C080917F078F702FEF280F263008F049
:10589000D7C08093E9002091EB0020FFC8C093306F
:1058A00031F48091EB0080628093EB00C0C0909156
:1058B000EB0090619093EB0021E030E001C0220FFB
:1058C0008A95EAF72093EA001092EA008091EB00B3
:1058D0008860EACF8111B4C010917D071F77809155
:1058E000E3008078812B8093E3008091E800877F3C
:1058F0008093E8000E94072A8091E80080FFFCCF97
:105900008091E30080688093E30082E0111183E0DE
:1059100080937A0795C08058823008F091C08091BA
:105920007D0790917E078C3D23E09207A1F583E0EF
:105930008A838AE289834FB7F894DE01139620E0C8
:105940003EE051E2E32FF0E050935700E49120FF56
:1059500003C0E295EF703F5FEF708E2F90E0EA306A
:10596000C0F0C7968D939D932F5F243159F74FBF99
:105970008091E800877F8093E8006AE270E0CE01C2
:1059800001960E9416298091E8008B778093E800A9
:1059900057C0C096E7CF60917F0770918007AE0136
:1059A0004F5F5F4F0E945628BC01892B09F448C005
:1059B0009091E800977F9093E80089819A810E94F6
:1059C0007429E1CF8038E1F58091E800877F8093EA
:1059D000E800809176078093F10045CF811130C0B7
:1059E00090917D07923060F58091E800877F8093E9
:1059F000E800909376070E94072A80917607882313
:105A000011F084E005C08091E30087FDFACF81E0CA
:105A100080937A070E94402713C080917D078130D0
:105A200079F481E0933009F080E080937807109258
:105A3000E9008091E800877F8093E8000E94072AB0
:105A40008091E80083FF0AC08091E800877F8093FF
:105A5000E8008091EB0080628093EB00AA96E3E07F
:105A60000C94A52D0895CF9380917A078823A1F0F7
:105A7000C091E900CF709091EC00892F817090FD6A
:105A800080E8C82B1092E9008091E80083FD0E9415
:105A9000EB2BCF70C093E900CF9108950E94572A55
:105AA00010927A070895E8EDF0E0808180618083AC
:105AB0008AE18A95F1F700C08091D900817008953C
:105AC00097FB072E16F4009407D077FD09D00E94AB
:105AD000B12D07FC05D03EF4909581959F4F089518
