:100000000C9455030C9472030C9472030C94DD232E
:100010000C9472030C9472030C9472030C9472038C
:100020000C9472030C9472030C94082B0C94DC2B2C
:100030000C9421260C9472030C9472030C9472039A
:100040000C9472030C9472030C9472030C9472035C
:100050000C9472030C94C4260C9472030C947203D7
:100060000C9472030C9472030C9472030C9472033C
:100070000C9472030C9472030C9472030C9472032C
:100080000C9472030C9472030C9472030C9472031C
:100090000C9472030C9472030C9472030C9472030C
:1000A0000C9472030C9472030C94720314001A00E3
:1000B00009001300050004001500160017000A00CF
:1000C0001D001B210624072819002552E10000000D
:1000D000000000000D000F0018001C00330010008D
:1000E000110008000C0012000E000B2836243721E6
:1000F00038002C00235200000000000014001A00F9
:1001000009001300050004001500160017000A007E
:100110001D001B210624072819002652E1000000BB
:10012000000000000D000F0018001C00330010003C
:10013000110008000C0012000E000B283624372195
:1001400038002C00235200000000000014001A00A8
:1001500008001500170004001600070009000A0037
:100160001D001B000600190005002552E1000000DB
:10017000000000001C0018000C00120013000B000F
:100180000D000E000F003300110010003600370084
:1001900038002C0023520000000000001E001F0049
:1001A000200021002200360226022F002F02210209
:1001B0003702270230003002220227522452000068
:1001C00000000000230024002500260027002E0048
:1001D000380234002E0225021F021E0234022D00B6
:1001E00038002C000100000000000000350035023E
:1001F0002302200200003102240231002D020000FF
:1002000000000000000000000000000001000000ED
:1002100000000000000000000000000000000000DE
:1002200000000000000000000000000000000000CE
:1002300000000000010000000000000029001A0179
:10024000090119020C02E000E200E100E3000401F0
:100250001D011B01060119012B0001004C000000CB
:100260000000000017014A004E004B004D0039000D
:100270005000510052004F002A012A0000000000E7
:100280001D132800275200000000000029001A0852
:10029000090819020C02E000E200E100E300040892
:1002A0001D081B08060819082B0001004C0000005F
:1002B0000000000017044A004E004B004D003900BA
:1002C0005000510052004F002A042A000000000094
:1002D0001D0A280027520000000000003A003B00E1
:1002E0003C003D003E00E200E000E100E300E600EB
:1002F00000000000000000000000010000000000FD
:10030000000000003F004000410042004300440064
:100310004500460000000000117E000000000000C3
:10032000007C000001000000000000000000097EC9
:100330000A7E0C7E0B7E057E027E037E047E00001C
:100340000000007E0E7E017E0D7E0000E1000000B8
:1003500000000000025200000000000000000952EE
:100360000C520000000000000A520B520000000076
:100370000000000000000000000000002B0014003E
:100380001A000800150021240400160007000900C7
:1003900022001E001F002000050019222C21000051
:1003A00000000000127E137E147E0000000000009A
:1003B000000000000000000000000000000000003D
:1003C0000000005200520000000000002B0014004A
:1003D0001A0008001500E1000400160007000900DB
:1003E0000B211E001F002000210019002C0000001E
:1003F00000000000127E137E147E000029000B0016
:1004000000000000000000001D001B0000000000B4
:100410000000005200520000000000002900D1003E
:10042000CD00D200D3002B00CF00CE00D0004B0077
:10043000E300DB00D900DC004E00DA0000520000CF
:100440000000000017012B131A0117132B010000E5
:100450005000510052004F00E200DD00DE000000BD
:1004600028002C00E1000000000000002900D1005D
:10047000CD00D200D3002B00CF00CE00D0004B0027
:10048000E300DC00DA00DB004E00D900015200007E
:100490000000000017082B131A08170A2B01000090
:1004A0005000510052004F00E300DD00DE0000006C
:1004B00028002C00E1000000000000002C00235266
:1004C0000000040015000000000000000000000013
:1004D0002A2B28000000000000000000000000009F
:1004E00000000029000000002C1E342021222434AA
:1004F0002627252E362D3738271E1F20212223247C
:1005000025263333362E37381F0405060708090A17
:100510000B0C0D0E0F101112131415161718191AB3
:100520001B1C1D2F3130232D350405060708090A31
:100530000B0C0D0E0F101112131415161718191A93
:100540001B1C1D2F3130354C000000000000000046
:10055000000000000000000000000000000000009B
:100560000000000000000000000000007E0F00D42A
:10057000FFFFFFC7000000781A0346006500720005
:100580007200690073002000730077006500650049
:100590007000000008034400500042000000040303
:1005A000090409023B00020100A0FA09040000014D
:1005B000030101000921110100012240000705810A
:1005C00003080001090401000103000000092111D2
:1005D000010001227B0007058203200001120100B7
:1005E0000200000008ABC239390100010200010518
:1005F000010902A10185020901A1000509190129CA
:1006000008150025019508750181020501093009C9
:10061000311581257F9502750881060938158125D8
:100620007F950175088106050C0A38021581257F22
:10063000950175088106C0C005010980A1018503E7
:1006400019012AB700150126B70095017510810020
:10065000C0050C0901A101850419012AA002150198
:1006600026A002950175108100C005010906A101AF
:10067000050719E029E71500250195087501810294
:100680009501750881010507190029FF150026FF4E
:10069000009506750881000508190129059505755D
:1006A000019102950175039101C011241FBECFEF86
:1006B000DAE0DEBFCDBF12E0A0E0B1E0E0E6FDE5AC
:1006C00002C005900D92A830B107D9F727E0A8E045
:1006D000B2E001C01D92A438B207E1F70E94E21710
:1006E0000C94522E0C9400009E5785319105E8F52C
:1006F000FC01EC5AF14DDB0112969C910C94A92D52
:10070000992399F10E94640F882351F00E94770F7A
:1007100081EE0E94350785E30E94CD0784E01CC06E
:100720000E94770F81EE0E94350785E30E94CD0776
:1007300081EE0E94820784E026C09923B1F00E94D6
:10074000640F8823A1F00E94770F81EE0E94350785
:1007500085E30E94CD0782E10E94CD0781EE0E94D1
:100760008207809154070E94740F81E008950E94CF
:10077000770F81EE0E94350785E30E94CD0781EE59
:100780000E94820782E10E94CD07EBCF992369F393
:100790000E94640F882339F00E94770F81EE0E9437
:1007A000350783E2B9CF0E94770F81EE0E943507AB
:1007B00083E2BCCF9923C9F20E94640F882351F0D1
:1007C0000E94770F81EE0E94350783E20E94CD07D9
:1007D00088E0C2CF0E94770F81EE0E94350783E246
:1007E0000E94CD0781EE0E94820788E0CCCF99233A
:1007F00009F4BBCF0E94640F882339F00E94770F61
:1008000081EE0E94350783E2A4CF0E94770F81EE2C
:100810000E94350783E2B1CF992309F4A6CF0E9445
:10082000640F882349F00E94770F85E30E94CD076B
:1008300081EE0E94350772CF0E94770F85E30E94F8
:10084000CD0779CF992309F490CF0E94770F81EEDD
:100850000E94350783E20E94CD0781EE0E94820745
:1008600008C0992309F481CF0E94770F84E30E9486
:10087000CD078CE288CF992309F477CF0E94770FB8
:1008800081EE0E94350784E3E6CF992309F46DCF0A
:100890000E94640F882321F00E94770F84E3C6CF63
:1008A0000E94770F84E3CBCF992309F45ECF0E9497
:1008B000640F882349F00E94770F84E30E94CD07DC
:1008C00081EE0E94350784CF0E94770F84E30E9457
:1008D000CD078BCF992309F448CF0E94640F88235A
:1008E00051F00E94770F84E30E94CD0781EE0E94B1
:1008F00035078CE031CF0E94770F84E30E94CD074B
:100900008CE041CF992309F430CF0E94640F8823F3
:1009100049F00E94770F84E30E94CD0781EE0E9488
:10092000350719CF0E94770F84E30E94CD072ACFA5
:10093000992309F41ACF0E94640F882351F00E9472
:10094000770F84E30E94CD0781EE0E94350788E18E
:1009500003CF0E94770F84E30E94CD0788E113CF75
:10096000992309F402CF80910A02882351F086EE80
:100970000E94350786E00E94CD0786EE0E9482071E
:10098000F4CE86EE0E94350786E3F5CF992309F46D
:10099000ECCE87E691E00E94BA1DE7CE992309F4D8
:1009A000E4CE8AE691E0F7CF992309F4DECE809178
:1009B0000A02811104C081E080930A02D6CE10920F
:1009C0000A02D3CE992309F4D0CE88E20E94CD0743
:1009D0008DE691E00E94BA1D88E20E94CD07C5CE47
:1009E000992309F4C2CE88E20E94CD0789E791E0FD
:1009F000F1CF992309F4B9CE88E20E94CD0780E9AE
:100A000091E0E8CF8AE00E94E60A811106C089E001
:100A10000E94E60A91E08927089580E008958C32CB
:100A200021E2920729F08C32924211F080E0089581
:100A300081E008958D30B8F46830A8F4453098F41A
:100A400050E095E0699F400D511D1124FA0198E294
:100A5000899FE00DF11D1124EE0FFF1FE455FF4F9C
:100A600085919491089580E090E008950E941A0580
:100A700008959C013A9521153F4150F5FC01EE2760
:100A8000F170BC0166277270AC01442754709C0160
:100A90002227387094FF0EC080E1EF2B09F480E02C
:100AA000672B09F08062452B09F08064232B89F0C5
:100AB0008068089581E0EF2B09F480E0672B09F04E
:100AC0008260452B09F08460232B19F0886008951B
:100AD00080E00895CF93DF93EB010E943905FE017A
:100AE0000995DF91CF910895CF93DF93EC01805E5C
:100AF0009109089720F064E27AE0209711F466EDFE
:100B000077E0CE010E946A058C2F0E943507DF91A5
:100B1000CF910895CF93DF93EC010E948207CE011D
:100B2000805E9109089720F06BE27AE0209711F43B
:100B30006DED77E0CE010E946A05DF91CF910895B7
:100B40000F931F93CF93DF938C01EB010E947405E9
:100B5000209741F4C8010E948A05DF91CF911F912F
:100B60000F9108958FE99FE00197F1F700C0000011
:100B70002197EECF70E060E08933910511F460E5D4
:100B800070E00E94A005089581E008950E9474031A
:100B9000089508950E94C9050895A5E0B0E0E3ED29
:100BA000F5E00C94BE2D49835A833091100289815F
:100BB0009A81311119C0662399F0222389F00E948D
:100BC000C00B182F682F89819A810E949C0B698124
:100BD0007A81812F0E94B3122596E3E00C94DA2DDE
:100BE0000E94AE0B182FF3CF0E94C00B69817A814F
:100BF000F1CFFC01262F86819781009739F440813F
:100C000051816281738184810E94CD050895CF93C3
:100C1000DF93EC0161E00E94F905BE010E947B1F99
:100C2000DF91CF910895CF93DF93EC0160E00E94B4
:100C3000F905BE010E94CA05DF91CF9108950E9477
:100C4000311408950E943514089508950E94480AA9
:100C50000E9425062FEF84E39CE0215080409040C5
:100C6000E1F700C0000008950E9426060E94E826D1
:100C700008950E9426060E94F92608950F931F9357
:100C8000CF93DF938C0161E00E94F905EC01B8017C
:100C90000E94D621811106C080E0DF91CF911F9183
:100CA0000F910895B801CE010E94C6058823A1F3D3
:100CB000B801CE010E94901A882371F3B801CE01C9
:100CC0000E94F922882341F3B801CE010E941B1C27
:100CD000882311F3B801CE010E946B228823E1F230
:100CE000F8018281882361F0C330FCE7DF07E9F077
:100CF00058F4C115ECE7DE07A9F0C130DC47B9F0C4
:100D0000C8010E94C405C9CFCB358CE7D807A9F02C
:100D1000CC35ECE7DE0771F0CA35DC4789F70E9475
:100D20004610EECF0E943406B7CF0E944E100E94AC
:100D30003906B2CF0E943C10E3CF0E944A10E0CFA8
:100D40000E94FE250E94CA0608950E94CE060E94B7
:100D50000326089508950E94AA06089581E0089543
:100D60000895CF93DF93D82F0E94AE06C82F882313
:100D700019F08D2F0E94B0068C2FDF91CF9108952E
:100D80000895CF93C82F0E94AB068C2F0E94B10606
:100D9000CF91089580E00E94C10608950E94032526
:100DA0000E94C1060895CF930E940325C82F809109
:100DB0000B028C1779F0C0930B020E948D26609372
:100DC0000C0270930D0280930E0290930F028C2FF1
:100DD0000E94C106CF910895ADE0B0E0E2EFF6E0E9
:100DE0000C94BF2D49875A876B877C878D8761114B
:100DF0000E94870F1D821E821F82188685E0FE01D9
:100E00003996DE01119601900D928A95E1F78C8159
:100E10009D81892B71F429813A814B815C816D819F
:100E20007E818F8198850E94A50E2D96E2E00C941C
:100E3000DB2D89819A8189238F3F69F3CE01019649
:100E40000E9407068111E7CFF0CFFC0180819181DC
:100E50000E94F20B0895662329F00E945D180E94FB
:100E6000301908950E94B718FACFCF93C82F88235E
:100E7000B9F08CEF8C0F813AA8F46C2F80910E01A1
:100E800090910F010E948F25882329F08C2F0E94BA
:100E9000440F0E94A80F8C2F0E943C0F0E94A80FA5
:100EA000CF91089580E28C0F883048F4C77081E0BC
:100EB00001C0880FCA95EAF70E94670FEFCFEBE5F4
:100EC000EC0FE33040F4F0E0E353FE4F808190E01C
:100ED0000E943325E5CFE8E5EC0FE93150F4F0E06E
:100EE000EE0FFF1FE556FE4F808191810E9458252D
:100EF000D7CF83E38C0F833198F661E08C2F0E946B
:100F00002B07CECF882381F19CEF980F913A28F4DC
:100F10000E94440F0E94A80F089590E2980F983005
:100F200050F4877091E001C0990F8A95EAF7892FF4
:100F30000E946D0FEFCF9BE5980F933028F490E05F
:100F400080E00E943325089598E5980F993128F4A0
:100F500090E080E00E945825089593E3980F933124
:100F600018F460E00E942B0708951F93CF93DF933E
:100F7000182FEB010E943507209739F4812F0E942A
:100F80008207DF91CF911F9108958FE99FE001972C
:100F9000F1F700C000002197EFCF70E060E08933E7
:100FA00011F460E570E00E94B5070895882321F0F0
:100FB0000E94670F0E94A80F0895882321F00E94C5
:100FC0006D0F0E94A80F0895B0E0A0E0EAEEF7E0F0
:100FD0000C94B82D6C01D62FC72FFC01128105810E
:100FE00002950F700E945D0FE82E8823B9F0E12E64
:100FF0001123A1F08C2F807F803421F080E28D0FAF
:101000008830C8F080915A0782FF15C082E00E94A4
:101010000B100E945D0F91E0E82EE926BC2EB294E1
:101020009FE0B922FBE0FB15B8F1EB2DF0E0E759AA
:10103000F14D0C94A92DE12CF1CF0C2F0F70C07F36
:1010400011F00295007F112399F0002359F080E2FE
:101050008D0F883010F0D11107C0802F0E94670FCC
:101060000E94A80F8D2F5CC0802F0E947A0FF8CFAE
:101070008D2F0E948207002379F080E28D0F883047
:1010800010F0D11104C0802F0E946D0F03C0802F7B
:101090000E94800F0E94A80FEB2DE850FF0B3497A1
:1010A00020F40E9403250E94C106EE2089F00E94D0
:1010B000590F80FD0DC0F60112820E94530F0E944D
:1010C000FA0AC6010E94FA090E94530F0E940A0BF5
:1010D000CDB7DEB7E9E00C94D42D2C2F2F70F22E73
:1010E000C07FC03219F0F29480EFF822DD2351F076
:1010F000D13009F443C0112309F44BC0002309F493
:1011000042C0B0CF80915A0782FD15C0112359F01B
:10111000FF2029F08F2D0E94670F0E94A80F80E00A
:101120000E943507B9CF80E00E948207FF2009F4B2
:10113000B3CF8F2DA9CF112381F0011106C00E94DA
:101140008A0F8F290E94D607A7CF0130C1F70E94CE
:101150008A0F8F290E94910F9FCF011106C00E9414
:101160009E0F8F2D0E94DD0797CF013009F494CF99
:101170008F2D0E94DD070E949E0F8ECF112329F034
:10118000063008F089CF8F2DDDCF053008F084CFF1
:10119000E8CF002331F3D93349F43FEF87EE93E0F2
:1011A000315080409040E1F700C000008D2F0E9438
:1011B000820772CF8C2F86958695837069F0813077
:1011C00009F06ACF8D2F9C2F9370111102C080E01F
:1011D00090E00E94582560CF8D2F9C2F93701111A5
:1011E00002C080E090E00E94332556CF612F8D2F02
:1011F0000E942B0751CF8C2F8370A1F511114CCF7A
:101200004D2F429546954770440F440F2D2F2F7058
:1012100030E0042E02C0220F331F0A94E2F790E060
:1012200080E0D4FF09C08FE090E002C0880F991FD2
:101230004A95E2F780959095C695C695C370822B26
:10124000932BC23049F058F4C13019F00E94AE0A15
:1012500023CF0E94A50A20CF0E94B70A1DCF0E946B
:10126000A20A1ACF8695112311F08C2F8170882342
:1012700009F412CF4D2F429546954770440F440F05
:101280002D2F2F7030E0042E02C0220F331F0A943E
:10129000E2F790E080E0D4FF09C08FE090E002C068
:1012A000880F991F4A95E2F780959095C695C69547
:1012B000C370822B932BC23049F058F4C13019F01F
:1012C0000E94350BE9CE0E942C0BE6CE0E943E0B0D
:1012D000E3CE0E94C60AE0CECF70112329F08C2FF6
:1012E0000E94FA0A8D2F2ECF8D2F0E94DD078C2FA2
:1012F0000E940A0BD1CED23F41F160F4D03FB9F049
:10130000D13F81F0112309F446C00111ABCE8C2FDF
:101310008F711FC0D33F01F1D43FA1F780915A07CD
:1013200082FD24C08C2F8F71112311F312C0112361
:1013300041F0053008F0B0CE8C2F8F710E941C0B4D
:10134000ABCE063008F0A8CEF7CF8C2F8F711111DD
:10135000CFCF0E94FA0AA0CE112329F08C2F8F71D3
:101360000E94EE0A99CE0E94CD0A96CE112349F032
:10137000CF718C2F0E94FA0A63E08C2F0E94ED0F30
:101380008BCE81E00E940B10023008F485CE82E003
:101390000E940B1081CE002359F0D93309F006CFFB
:1013A000EFEFF7EE23E0E150F0402040E1F7FCCE14
:1013B0008C2F8F719DCF0F931F93CF93DF93EC01F1
:1013C0008E819F81009781F00E94C6118C010E943E
:1013D000470B0E94A10AB801CE010E94E407DF91E9
:1013E000CF911F910F910895688179818A810E9420
:1013F000FD0BECCFCF93DF93EC018B819C81892B8C
:1014000029F08881998189238F3F51F4DF91CF9111
:101410000895CE010E94DB09CE010E941306F6CF8B
:10142000CE010E943E068111F4CF0E945D0F8823F9
:1014300069F38A81882351F380915A0782FFE6CFAE
:1014400082E00E940B10E2CF882321F00E947A0FE5
:101450000E94A80F0895882321F00E94800F0E9407
:10146000A80F089590E080E00E94332590E080E08E
:101470000E9458250E94870F0E94A80F0E944C19B5
:101480000E94301908950E944C0F0E94320A08955C
:101490000E94770F0E94430A089592959F7096309C
:1014A00091F058F4925F9F70923058F4803F19F099
:1014B00030F4883E30F481E008959A5FF4CF843FA1
:1014C000D1F380E00895883EB0F3813FD1F7F3CFA8
:1014D000FC0183819481892B29F08081918189236A
:1014E0008F3F39F480E008950E94C6110E944D0A92
:1014F0000895868197810097B9F7808191810E9434
:10150000F20BF4CFA5E0B0E0E8E8FAE00C94BF2DD0
:101510002596E2E00C94DB2DA8E0B0E0E2E9FAE0E9
:101520000C94BF2D2896E2E00C94DB2D08950E94C8
:10153000960A08950E94970A9093280280932702A2
:10154000089508950E949A0A0895209127023091E3
:101550002802822B932B0E949A0A08952091270239
:1015600030912802822393230E949A0A08952091A1
:10157000270230912802822793270E949A0A089511
:101580000E94960A08950E94C00A08950E94C30A04
:101590009093260280932502089590E080E00E94B7
:1015A000C60A0895009729F481E0662371F080E06F
:1015B0000CC021E030E002C0220F331F6A95E2F731
:1015C0002823392381E0232B91F30895682F8091FC
:1015D0002502909126020E94D20A089521E030E06F
:1015E000A90102C0440F551F8A95E2F7CA010E9463
:1015F000C60A089521E030E002C0220F331F8A9509
:10160000E2F78091250290912602822B932B0E9473
:10161000C60A089521E030E002C0220F331F8A95E8
:10162000E2F7209530958091250290912602822341
:1016300093230E94C60A089521E030E002C0220FE1
:10164000331F8A95E2F78091250290912602822726
:1016500093270E94C60A0895209125023091260200
:10166000822B932B0E94C60A089520912502309167
:101670002602822393230E94C60A08952091250200
:1016800030912602822793270E94C60A0895089562
:10169000262F277091E001C0990F2A95EAF723E0E1
:1016A000769567952A95E1F7660F771F660F771F86
:1016B000FA01E60FF71F50E040E0682F70E08191DB
:1016C000DF0111979B01042E02C0369527950A94DD
:1016D000E2F7217021952827292328272C934F5F93
:1016E0005F4F4430510559F70895A82FA77023E0A4
:1016F000969587952A95E1F7880F991F880F991F6E
:10170000FB01E80FF91F50E040E080E0219130E05C
:101710000A2E02C0369527950A94E2F721703327E6
:10172000042E01C0220F0A94EAF7822B4F5F5F4F0D
:101730004430510559F70895262F983070F48530BC
:1017400060F4682F70E085E0989F600D711D112492
:1017500041E152E0822F0E94480B0895292F9830D2
:1017600068F4853058F490E061E172E035E0239F41
:10177000800D911D11240E94750B089580E008953D
:10178000B0E0A0E0E6ECFBE00C94B82D7C01009109
:101790002502109126028091270290912802082BA1
:1017A000192BCFE0D0E0CC24C394D12CBC2EC601A1
:1017B0000C2E02C0880F991F0A94E2F78023912310
:1017C000892B49F4219790F7B12C8B2DCDB7DEB73B
:1017D000E9E00C94D42DB7018C2F0E94BF12019721
:1017E00089F3F3CFCF93DF93EC010E94C00BBE01CE
:1017F0000E94BF12DF91CF9108951F93CF93DF9383
:10180000EB0190911002992339F0CB010E94F20B69
:10181000DF91CF911F910895882369F0CB010E9439
:10182000C00B182F682FCE010E949C0BBE01812F88
:101830000E94BF12EDCFCB010E94AE0B182FF6CF46
:10184000CF93DF93C091290280912A028C1303C0A9
:10185000DF91CF910895D0E0FE0183E0EE0FFF1FEE
:101860008A95E1F7E55DFD4F208131814281538109
:1018700064817581868197810E948C0A2196C77048
:10188000E3CF20916B0230916C0240916D02509138
:101890006E0260916F02709170028091710290915E
:1018A00072020E948C0A08952091290290912A02C6
:1018B000291302C080E0089530E0F90153E0EE0FF3
:1018C000FF1F5A95E1F7E55DFD4F5181561306C0A4
:1018D0005081581303C05281541304C02F5F3F4FEF
:1018E0002770E6CF81E00895CF93DF938091700257
:1018F000807F09F049C080916D02882309F444C0BB
:1019000080912902C0912A0260916B0270916C0251
:10191000A0916E02B0916F02D62FD723C817A1F104
:1019200090E0109711F0DF3F19F401968770F6CF21
:101930009C0143E0220F331F4A95E1F7F901E55D71
:10194000FD4F41814713F1CF40814613EECF4281D5
:101950004111EBCF438154814A1B5B0B4A3F510538
:1019600020F7809170028F70806180937002F9017E
:10197000E05DFD4F80818F70806180838BE692E017
:101980000E94FA090E94200CDF91CF910895A5E1F1
:10199000B0E0EDECFCE00C94B32D8C0185E0F80197
:1019A000DE01519601900D928A95E1F7D8016C9075
:1019B00011967C9011971296EC9012971396CD90F9
:1019C000DC9060E08BE692E00E94F9054C018BE62A
:1019D000A82E82E0B82E40916E0250916F02411500
:1019E000510509F493C190916B0220916C02892FEB
:1019F00082238F3F09F48AC1F0906D02F601E41B47
:101A0000F50BFF2009F443C180917002382F307F1D
:101A1000EA3FF10508F0E6C0D80111964C91119704
:101A200031118CC0FE2C421321C02C9129131EC0F1
:101A3000409171025091720216962D913C9142177D
:101A40005307A1F4E11012C08F708061809370027F
:101A50000E94410CC5010E94FA0980917002F801B0
:101A600085838F2D6596EEE00C94CF2DC114D104A3
:101A700029F0872D86218F3F09F064C180E080FF27
:101A80001CC04E2D672D862D0E94540C8823A9F072
:101A90006BE672E0C4010E940F05882371F08BE6AB
:101AA00092E00E94FA0988E0EBE6F2E0DF011D9285
:101AB0008A95E9F70E94410C3FC0C114D10429F076
:101AC000872D86218F3F09F03AC180E0B82FB17091
:101AD000DB2E80FF29C04E2D672D862D0E94540CD1
:101AE000C82E811121C0698A7A8A89899A890E94BF
:101AF000F20B292F22952F70223050F0243078F4E9
:101B00009F7051F0F8019581907F31F4FC2CA9CFA2
:101B10009F7011F08823D1F3805E8830B8F3C8013C
:101B20000E94FA09CD2CF2CFEE2009F49ACF8091D1
:101B30007002816080937002F12C93CF421320C019
:101B40002C9129131DC0409171025091720216967A
:101B50002D913C9117974217530791F4E11010C053
:101B600015968C93C8010E94FA0988E0F801ABE64B
:101B7000B2E001900D928A95E1F70E94410C71CF7D
:101B8000C8010E94680A882349F1EE2039F180914A
:101B900070028032A0F020916B0230916C023A8783
:101BA00029871B86DD86CC868E8780917102909175
:101BB0007202988B8F87CE0109960E94FA0988E0FD
:101BC000F801ABE6B2E001900D928A95E1F70E9430
:101BD000740C0E94410CFF24F39443CFC8010E946F
:101BE000FA09F9CF311112C07C2DDD8ACC8AA3010C
:101BF0006E2D8D890E94820A8BE692E00E94FA097E
:101C000088E0F50111928A95E9F754CFD801119631
:101C10003C91119732131BC02C91291318C040918D
:101C200071025091720216962D913C9117974217AE
:101C3000530769F4E1100BC015968C93C8010E94FC
:101C4000FA0988E0F50111928A95E9F70ACFC801EF
:101C50000E94680A882311F2EE2009F4BFCF809118
:101C60007002803208F4ABCF20916B0230916C028D
:101C70003A8329831B82DD82CC828E83809171021C
:101C80009091720298878F83CE01019696CFEA3F9A
:101C9000F10570F5FE2CEE2009F4A0CFD8011196C5
:101CA0008C911197821316C08C91891313C02091C7
:101CB00071023091720216968D919C912817390706
:101CC00049F488E0F801ABE6B2E001900D928A9504
:101CD000E1F7C7CEC8010E94680A811170CF8091D8
:101CE0007002816080937002C8010E94FA09B9CE27
:101CF0007C2DDD8ACC8AA3016E2D8D890E94820AFB
:101D000088E0F50111928A95E9F737CFEE2009F4C2
:101D100065CFC8010E94680AF82E882309F45ECFB7
:101D200088E0F801ABE6B2E001900D928A95E1F708
:101D30008BE692E00E9425070E94740C1ECF81E082
:101D40008E25C4CE81E08E259ACEA0E1B0E0EBEAEC
:101D5000FEE00C94BF2D29873A874B875C876D87FF
:101D60007E878F87988BCE0109960E94C70C8823A7
:101D7000A9F08C859D85892B39F029853A85822F9C
:101D800083238F3F09F06FC08091290290912A022E
:101D9000891343C06096E2E00C94DB2D88E0FE01DD
:101DA0003996DE01119601900D928A95E1F78C85A6
:101DB0009D85892B49F389859A8589238F3F21F356
:101DC000A0912A02B0E0CD01019687709927209159
:101DD00029022817190671F40E94480A10922A0253
:101DE0001092290288E0EBE6F2E0DF011D928A956D
:101DF000E9F7CACF93E0AA0FBB1F9A95E1F7A55D5B
:101E0000BD4F98E0FE01319601900D929A95E1F751
:101E100080932A020E94200CB7CFB8E08B9FC001AC
:101E20001124855D9D4F0E94C70C882309F4B2CF11
:101E3000E091290228E0E29FF0011124E55DFD4FC9
:101E400020813181428153816481758186819781AE
:101E50000E948C0A8091290290E001968770992750
:101E60008093290291CF4B855C856D857E858F851A
:101E700098890E948C0A88CF682F80910E019091DA
:101E80000F010E94C5250895682F80910E01909141
:101E90000F010E94C825089580910E0190910F01B5
:101EA0000E94CB25089580917B0285958595859527
:101EB000089580917B028770089590917B029770BE
:101EC00081E009F480E00895809186020895909160
:101ED0008602892B809386020895809590918602D0
:101EE0009823909386020895809386020895109215
:101EF0008602089590918502892B8093850208952A
:101F00008095909185029823909385020895109270
:101F10008502089580917C02089508950E948D0F96
:101F2000089590915A0792FF08C090917C029817EB
:101F300021F080937C020E948E0F089580917C0294
:101F4000882329F010927C0280E00E948E0F089571
:101F5000CF93DF93E0910E01F0910F018091860203
:101F60008083E0910E01F0910F01808190918502B4
:101F7000892B808390917C02992381F0E0910E015E
:101F8000F0910F018081892B808380910E019091C7
:101F90000F010E947D2581110E949E0FC0910E01AC
:101FA000D0910F0148E050E063E772E0CE010E945B
:101FB000FA2D892B59F088E0FE01A3E7B2E00190E9
:101FC0000D928A95E1F7CE010E941A25DF91CF91FB
:101FD000089508950E94E90F089590915A0792FF7D
:101FE00011C098E0899F90011124622B60937B02BD
:101FF0000E94FA0A80917B028595859585950E94BD
:10200000EA0F08950E94FA0A089510927B0280E078
:102010000E94EA0F089590917B0280958923809316
:102020007B02282F277091F4282F082E000C330BE9
:102030009217130659F090915A0792FF07C08595A1
:10204000859585950E940A0B0E9405100895909130
:102050005A0792FB222720F9281769F080FB92F992
:1020600090935A078091590790915A070E946F10D8
:1020700082E00E940B10089580915A0782FB882706
:1020800080F991E089270E942710089581E00E943D
:102090002710089580E00E94271008956FEF7FEFCA
:1020A00090E080E00E943C2E089590E080E00E9445
:1020B000182E21E0873E9E4F09F020E0822F0895E0
:1020C00082E090E00E94102E089583E090E00E944C
:1020D000102E089584E090E00E94182E0895BC010F
:1020E00084E090E00E943C2E0895AB01BC018FE09B
:1020F00090E00E94302E0895AB01BC0183E190E096
:102100000E94302E089560E070E0CB010E947C10A8
:10211000089560E070E0CB010E9475100E9483106A
:10212000089567EE7EEF90E080E00E943C2E60E034
:1021300082E090E00E941E2E60E083E090E00E942A
:102140001E2E109228021092270260E074E184E0B3
:1021500090E00E943C2E60E086E090E00E941E2EFF
:102160006FEF87E090E00E941E2E40E050E0BA0141
:1021700088E090E00E94302E60E08DE090E00E94C8
:102180001E2E40E050E0BA0188E190E00E94302E1F
:1021900060E087E190E00E941E2E40E050E0BA012E
:1021A0008CE190E00E94302E70E060E080E290E0F0
:1021B0000E943C2E40E050E0BA0188E190E00E948D
:1021C000302E0E94891008950E94911008958EE08B
:1021D00090E00E94102E91E0811101C090E0892FC3
:1021E0000895682F8EE090E00E941E2E08950E94B0
:1021F0008D26609395027093960280939702909338
:10220000980260939102709392028093930290934C
:1022100094020895089508950E940B110895089559
:102220000E940F11089589EE93E10E94F9240E9403
:102230000A110E940C1108950E94D3150895089563
:1022400008950E941F110E94201108950E941214E7
:102250000E94C0060E94E01A08950E9478260E94FB
:10226000A9130E94EB150E9400150E9426110E94DE
:102270006A1A0E94FB150E94101108950E94D3153E
:1022800081110E94341F0895AAE0B0E0EAE4F1E170
:102290000C94B72D0E94541589E8A82E82E0B82E20
:1022A000750110E0F70101917F01812F0E94381420
:1022B0001F5F183009F440C00817A1F380919902FC
:1022C00081FD0E943E140E941C11C82E10E0812F37
:1022D0000E943814082FF50181915F01081731F130
:1022E000D02ED826F12CEE24E3948D2D8E21B1F042
:1022F000CC20A1F0FE821F8391E0802F8E2109F473
:1023000090E098870E9481268160782F9A8789873C
:102310004E815F8168858A850E94EC06F394EE0CFD
:10232000F5E0FF12E2CFF501319700831F5F18300F
:1023300071F60E94F71020C00813C0CF0E948126BA
:102340008C01809187029091880208171907A1F0EB
:102350008FEF89838A831B820E9481268160782F78
:102360009D838C8349815A816B818D810E94EC060B
:1023700010938802009387020E943E110E946E19FA
:102380000E94D3062A96EAE00C94D32DCF93DF93D4
:102390000E94C412EC01811520E59207D0F5811549
:1023A00030E4930708F086C0803E910518F58D3C17
:1023B000910508F07DC0883A910570F4853A910541
:1023C00008F06EC08130910501F10097F1F004979B
:1023D000E0F4D0E0C0E019C0813C9105D0F7C85AC4
:1023E000D0E0CC0FDD1FC053DE4F0990D881C02D47
:1023F000D4640BC08115904208F0A8C0C11581E0DB
:10240000D80718F4C83ED10520F7CE01DF91CF914F
:102410000895803622E5920710F5803432E593075F
:1024200008F052C08032924508F047C0C11582E5DD
:10243000D80708F47DC02C2F2695269540E2249FCE
:10244000900111248C2F8370C1E0D0E002C0CC0F2A
:10245000DD1F8A95E2F7C22BD32BDD68D6CF803AF9
:1024600022E5920760F4803832E5930708F441C012
:10247000CF71D0E0DC2FCC27C46FD06AC6CF803CB0
:1024800042E5940708F449C0C03E82E5D80708F049
:10249000A0CFDC2FCC27CC27DF71C06FD06AB5CF9F
:1024A000C55AD0E0CE5FDD4FC881D0E0D064ADCF5B
:1024B000D065ABCFDF70D06AA8CFCF71D0E0DC2F72
:1024C000CC27C16FD06AA1CF282F269526952770DB
:1024D00080E2289F900111248C2F8370C1E0D0E00E
:1024E00002C0CC0FDD1F8A95E2F7C22BD32BDC682C
:1024F0008CCF282F26952695277040E2249F9001A7
:1025000011248370C1E0D0E002C0CC0FDD1F8A959A
:10251000E2F7C22BD32BDA6878CF8F710E94661353
:10252000C82FD0E0DC2FCC27CC27DF71D0626DCF55
:102530008C2F8F710E94661335E0D695C7953A951A
:10254000E1F7CF709C2FEC01D0695FCF8D2F8F7199
:102550000E94661390E0982F882788279F719C011E
:102560002C2BE901E3CF462F783030F4653020F48E
:10257000672F0E943605089590E080E008950E943C
:10258000B3120E94C611089582389105B9F1B0F4D2
:102590008133910509F47DC048F48932910509F42D
:1025A0006DC08A32910509F47BC008958533910589
:1025B00009F45FC08933910509F10895833E9105BF
:1025C000D9F138F4803E910529F1823E910579F1E7
:1025D0000895863E9105D9F1873E910509F43EC0E4
:1025E000843E910541F520915A0721FF24C0809136
:1025F000590784FD19C087EE90E00895209159078E
:10260000237009F05AC020915A0723FF14C089E2B1
:1026100090E008952091590720FD38C030915A0765
:1026200030FF09C024FF43C090E080E0089520916E
:10263000590722FDF7CF08952091590722FD3AC08E
:1026400030915A0730FD39C024FFF5CFEDCF2091EE
:10265000590723FFF0CF24FDE7CFCDCF20915907B5
:1026600023FD2EC030915A0731FFEECF84EE90E06B
:1026700008952091590725FFDECFC9CF2091590732
:1026800025FD21C020915A0723FFD5CF89E390E093
:10269000D2CF2091590726FFCECF8AE290E008954D
:1026A0002091590726FFC7CF81E390E0089583EE7C
:1026B00090E0089582EE90E0089580EE90E0089515
:1026C00086EE90E0089585E390E008959091590793
:1026D00092FF06C0282F28712830F9F4877F846084
:1026E00093FF06C0282F28712831F1F4877E84617A
:1026F00020915A0720FF06C0382F38713830D9F49E
:10270000877F816021FF06C0282F28712831D1F4EE
:10271000877E816194FD877E0895282F247124305F
:10272000F9F68B7F8860DCCF282F2471243101F7E4
:102730008B7E8861DDCF382F3171313019F78E7F74
:102740008860E0CF282F2171213121F78E7E8861AA
:10275000E1CF10925507109256071092570710922A
:1027600058070895CF92DF92EF92FF926B017C01A0
:102770000E94D31581110EC00E948D26C61AD70A59
:10278000E80AF90AC0925507D0925607E092570717
:10279000F0925807FF90EF90DF90CF9008950F933D
:1027A0001F930E94D315882329F00E948D261F9124
:1027B0000F9108950E948D2600915507109156079C
:1027C0002091570730915807600F711F821F931F88
:1027D000EECF80E008950E944E100895CF930E949E
:1027E00054158FE39CE90197F1F700C000000E94A7
:1027F00054150E94D015C4E08111C0E08C2F0E94B6
:10280000381490E002C095958795CA95E2F780FF4D
:1028100004C00E94EB130E94E826CF9108950E9405
:10282000EE1308950E945510811102C00E94E41019
:102830000E946010809399020E946A1090935A0738
:10284000809359070E940F140E94651090E00E9427
:10285000A20A80912502909126020E94C30A08953F
:1028600008950E943014089508950E943414089524
:10287000E82FF0E0EC59F84F80810895089508950D
:102880000E943F140895EF92FF921F93CF93DF931E
:1028900000D000D0CDB7DEB70E94D315182F6091BD
:1028A0006C07882309F447C019821A821B821C8294
:1028B000862F90E09E012F5F3F4F7901B9018C591F
:1028C000984F0E9409168823E9F080915B0790E0F9
:1028D00044E050E0B7018C59984F0E94FA2D21E056
:1028E00020939A02892BC9F410E00E942206812FBE
:1028F0000F900F900F900F90DF91CF911F91FF904D
:10290000EF90089580919A02882371F384E0F70193
:1029100011928A95E9F710929A02E0915B07F0E034
:10292000EC59F84F89819A81AB81BC818083918376
:10293000A283B383DACF70E06C59784F80915B0744
:1029400090E08C59984F0E9490160E944014CFCF6F
:102950001F93CF93DF9320E131E0C1E0D0E0D901B4
:1029600050E040E08D918F3F91F0E82FE295EF70BD
:10297000F0E011A18F70BE0101C0660F8A95EAF7E1
:10298000962F9095912391A382A1862B82A34F5FCE
:102990005F4F4530510531F72B5F3F4F81E02432C7
:1029A0003807E9F6DF91CF911F910895CF93DF9318
:1029B000AC01A62FB0E085E0689FF0011124E05F34
:1029C000FE4F75E081E060E091919F3F81F0C92F5B
:1029D000C295CF70D0E028A130E09F7002C035953D
:1029E00027959A95E2F7982F20FD90E0692B880FA4
:1029F000715051F7A40FB51F6C93DF91CF910895DB
:102A0000A4E1B0E0E6E0F5E10C94BF2D8091240153
:102A1000811126C084E1E3E5F1E0DE011196019029
:102A20000D928A95E1F7FE013196A0E1B1E0CE0169
:102A3000459620812C93218111962C931197228108
:102A400012962C931297238113962C93139724811B
:102A500014962C931497359615968E179F0749F761
:102A60008091240194E0811190E090936C0784E0C0
:102A7000891B80935B070E94A81488E0E4E6F7E0D6
:102A8000DF01982F1D929A95E9F7ECE5F7E0DF0159
:102A90001D928A95E9F784E00E9492150E941F0614
:102AA0006496E2E00C94DB2DA8E0B0E0EAE5F5E105
:102AB0000C94BC2D8E010F5F1F4F88E0F80111921E
:102AC0008A95E9F7F12C6F2DC8010E94D614F39472
:102AD000F4E0FF12F8CF48E050E0B8018CE597E051
:102AE0000E94FA2D21E0009709F420E0892B41F0A3
:102AF00088E0F801ACE5B7E001900D928A95E1F726
:102B000060916C0770E06C59784F44E08CE597E079
:102B10000E949315182F0E944314812B2896E5E0FC
:102B20000C94D82D0895CF92DF92EF92FF920F93DD
:102B30001F93CF936C017B01042F222349F081E086
:102B400080939D020E94812690939C0280939B0219
:102B5000C0919D02C1110AC0C0E08C2FCF911F917E
:102B60000F91FF90EF90DF90CF90089580919B029E
:102B700090919C020E949926059770F310E0A8019D
:102B8000B601C7010E94FA2D892B41F0A801B601B8
:102B9000C7010E94072E10929D02DFCFC0E0FBCF3D
:102BA0000E94E71008958091A002811107C00E9441
:102BB000882D882351F081E08093A00281E09091DC
:102BC000A002913009F080E0089582E08093A00295
:102BD0000E94832DF3CF0E945510811102C00E94E4
:102BE000E4100E94D015809324010E94D315811116
:102BF0000E943F1608950E94D315811102C00E94C1
:102C00004216089581E09091A1029A3008F080E088
:102C100008950F931F93CF93DF93EC018B01809165
:102C2000A1028A30B8F4B801CE010E948D16C82FD7
:102C3000811122C08091A1028F3FB9F40E948126A8
:102C400090939F0280939E028C2FDF91CF911F91D2
:102C50000F91089580919E0290919F020E94992663
:102C6000843F914000F7C0E0EFCF8F5F8093A102D7
:102C70008A3020F7C1E0E8CF1092A102E5CF0E9490
:102C8000972308950E949A230895B0E0A0E0EBE412
:102C9000F6E10C94BA2D7901C82F880FDD0B411590
:102CA0005105A9F0FE0193E0EE0FFF1F9A95E1F7A1
:102CB000EB5DFE4F818192818E559D4F208130E0EA
:102CC0004217530708F49A01A9010E94072ECE016A
:102CD0000E948324D82E8823D1F001151105B9F064
:102CE00083E0CC0FDD1F8A95E1F7FE01EB5DFE4F1F
:102CF000438150E00417150708F4A801CB5DDE4FAF
:102D00006C817D816E557D4FC7010E94072E8D2DF0
:102D1000CDB7DEB7E7E00C94D62D0E948717089553
:102D20000E949E170895A4E0B0E0E9E9F6E10C9452
:102D3000BD2D6091B7027091B8028091B902909157
:102D4000BA020E94A82611E064367105810591053A
:102D500018F10E94CF136E5F7F4F8F4F9F4F698393
:102D60007A838B839C8310E000E030E020E044E035
:102D700050E0BE016F5F7F4F82E00E944516182F22
:102D8000882351F00E948D266093B7027093B80299
:102D90008093B9029093BA02812F2496E4E00C94B8
:102DA000D92DB0E0A0E0E7EDF6E10C94B72D7C0161
:102DB0005B016A010E94021601E010E0882311F015
:102DC0000AE010E0C1E0D0E0B501C701F6010995C5
:102DD000811104C021960C171D072CF4CDB7DEB766
:102DE000EAE00C94D32DCC9F9001CD9F300D300D97
:102DF000112490E080E045E34A95F1F70000019648
:102E000082179307C1F7E0CFA5E0B0E0EAE0F7E171
:102E10000C94B72D5B01E0900502F090060201E0F2
:102E200010E09E012B5F3F4F50E040E070E060E01B
:102E300080E00E944516182F882309F44BC06701D3
:102E40008FEFC81AD80A6091B3027091B4028091D2
:102E5000B5029091B6020E94A826643671058105DC
:102E6000910580F104E010E09E012F5F3F4F50E09C
:102E700040E070E060E081E00E944516F82E64E0DA
:102E800070E0C6010E946B1A11E09D81981310E05A
:102E90001F2159F10E948D266093B3027093B402F2
:102EA0008093B5029093B60289819A81AB81BC81EF
:102EB0008093AF029093B002A093B102B093B2029C
:102EC00011E013C064E070E0C6010E946B1A9D819E
:102ED0008913C8CFF70181819281A381B48189834D
:102EE0009A83AB83BC831111DFCF8091AF029091A5
:102EF000B002A091B102B091B202F501808391833A
:102F0000A283B383812F2596EAE00C94D32D0F93EF
:102F10001F93CF93DF93EC018B0144E057E10E94B4
:102F2000D116882331F043E956E1B801CE010E9461
:102F3000D116DF91CF911F910F9108950F931F9399
:102F4000CF93DF93C0910502D0910602CE01019686
:102F500024E0FB01DC0101900D922A95E1F764E089
:102F600070E00E946B1A88836D817E818F819885C5
:102F70000091AB021091AC022091AD023091AE02F3
:102F8000601771078207930751F06093AB0270934B
:102F9000AC028093AD029093AE020E94B213DF9117
:102FA000CF911F910F9108950E945E280E942D11CC
:102FB0000E946B2808950E9470280E9444110E946C
:102FC0008A2808950E941A260E9444280E941311FC
:102FD0000E94D4170E94DB170E942111FBCF809121
:102FE000C30280FD2BC081FF0EC06091410184E0CF
:102FF000689FB00111246038710548F561157105AD
:1030000041F1862F089582FD1CC08091C202882361
:10301000D9F02091400160914101821710F088E0C1
:10302000E7CF869FC001112433E0880F991F3A959E
:10303000E1F7622F70E00E94952DDDCF61E070E036
:10304000E0CF6FE770E0DDCF68E070E0DACF8FE7C8
:10305000089581E008958091C30280FD29C081FF19
:103060000AC060913E0170E0759567956115710524
:1030700011F1862F089582FD18C09091C202992304
:10308000B9F060913D0180913E01961738F0682FAC
:1030900070E06038710550F38FE70895899FC00193
:1030A000112470E00E94952DF4CF6FE770E0E1CF1E
:1030B00061E070E0DECF81E008958D3C31F40E9444
:1030C000EF1781958093C70208958E3C19F40E94F2
:1030D000EF17F8CF8F3C31F40E94EF178195809362
:1030E000C6020895803D19F40E94EF17F8CF893D7C
:1030F00029F40E942B188093C80208958A3D21F478
:103100000E942B188195F7CF8B3D31F40E942B182C
:1031100081958093C90208958C3D19F40E942B1863
:10312000F8CF9FE2980F983070F4815D990B21E001
:1031300030E001C0220F8A95EAF78091C502822B08
:103140008093C50208958D3D31F48091C302816062
:103150008093C30208958E3D21F48091C302826062
:10316000F7CF8F3DB9F78091C3028460F1CF4091D2
:10317000C6028D3C59F48091C70287FF0DC01092A2
:10318000C70241110BC01092C20208C08E3C81F4EC
:103190008091C70218169CF3442381F08091C802E5
:1031A0009091C902892B09F05AC01092C10208956A
:1031B0008F3C49F447FFF0CF1092C6028091C702BE
:1031C0008111ECCFE0CF803D19F41416ACF3E4CFBD
:1031D0009091C802893D29F41916F4F61092C8029C
:1031E000DBCF8A3D19F497FFD7CFF8CF9091C90272
:1031F0008B3D29F497FFD0CF1092C902CDCF8C3DE3
:1032000019F41916CCF3C8CF9FE2980F983090F4B8
:10321000815D990B21E030E0B90102C0660F771F94
:103220008A95E2F7CB0180959091C502892380931E
:10323000C502B2CF8D3D31F48091C3028E7F809361
:10324000C302AACF8E3D21F48091C3028D7FF7CFB8
:103250008F3D09F0A1CF8091C3028B7FF0CF0895FD
:103260000E9481269C019091C6028091C702982BF2
:1032700021F03093C0022093BF029091C802809148
:10328000C902982B21F03093BE022093BD0284EC3A
:1032900092E00E942525089586E0E4ECF2E0DF014B
:1032A0001D928A95E9F71092C2021092C102109203
:1032B000C3020895FC01828181110EC083818111B6
:1032C0000BC08481811108C091E08581811101C00A
:1032D00090E0892F8170089581E0FCCFA6E0B0E0F6
:1032E000E4E7F9E10C94BE2D86E0E4ECF2E0DE01C7
:1032F000119601900D928A95E1F71092C6021092F4
:10330000C7021092C8021092C9028B819C81892B3E
:1033100089F08091BF029091C0020E949926AC0171
:103320009091C2029923C9F1809142018417150638
:1033300008F440C08D819E81892B91F08091BD025F
:103340009091BE020E949926AC019091C1029923EE
:1033500009F471C080913F018417150608F479C003
:10336000BE016F5F7F4F84EC92E00E94D2258111F5
:1033700005C084EC92E00E945A1981110E94301914
:1033800086E0FE013196A4ECB2E001900D928A95A0
:10339000E1F72696E3E00C94DA2D2091BC028AE056
:1033A000289F900111242417350720F69F5F9093E2
:1033B000C20202C09F3FD1F71B81112359F00E9426
:1033C000EF179FEF11160CF491E0899F802D1124C7
:1033D0008093C6021C81112359F00E94EF179FEFC2
:1033E00011160CF491E0899F802D11248093C7025F
:1033F0003091C602332309F49DCF2091C7022223C6
:1034000009F498CF45EB3403C0011124992359F0F6
:103410009093C60245EB240390011124332339F025
:103420003093C70287CF81E08093C602F3CF81E05B
:103430008093C7027FCF2091BB028AE0289F900132
:1034400011242417350708F08BCF9F5F9093C1029A
:1034500002C09F3FD1F71D81112359F00E942B1804
:103460009FEF11160CF491E0899F802D1124809319
:10347000C8021E81112359F00E942B189FEF1116CC
:103480000CF491E0899F802D11248093C902309122
:10349000C802332309F464CF2091C902222309F41E
:1034A0005FCF45EB3403C0011124992359F0909369
:1034B000C80245EB240390011124332339F03093E3
:1034C000C9024ECF81E08093C802F3CF81E08093A0
:1034D000C90246CF0895FC01680F791F8FEF91E371
:1034E0006E177F0709F408952191822728E030E0C4
:1034F00087FF06C0880F892721503109C9F7F0CF0F
:10350000880FFACFFB012281222341F097FF06C0EA
:103510009F77BC0190E080E00E94D31B81E008957A
:103520000F931F93CF93DF93EC018B01FB018281FB
:103530008823B1F00E94640F8272FE01E053FC47C1
:10354000E830F10568F4EB58F14D0C94A92D811188
:1035500004C081E003C08111FCCF8FEF0E94F31AF9
:10356000B801CE010E94821ADF91CF911F910F9175
:10357000089580E00E94FB1AF3CF81E0FBCF82E048
:10358000F9CF83E0F7CF84E0F5CF85E0F3CF9091DA
:103590006E07923071F48A3050F490E009966AE038
:1035A00070E00E94952D875A0E94CD07089586509D
:1035B000FBCF0E94BE1D089508950E94DC1A089555
:1035C0008CE090E00E94102E482F50E070E060E008
:1035D00040936E0750936F07609370077093710765
:1035E0000E94DD1A0895089560916E078CE090E0C6
:1035F0000E941E2E0895CF93C82F80936E070E94BD
:10360000F41A8C2F0E94DD1ACF9108950E9417257D
:1036100080936D0790916E07913029F481FF03C06C
:1036200089E30E94CD070E94640F809372070E9475
:10363000770F0E94870F80916E07823021F158F436
:103640008823C1F08130D1F08FE39CE90197F1F735
:1036500000C000000895843051F18530A9F78BE156
:1036600091E00E94BA0585E290E00E94BA0588E2E6
:1036700090E006C082EE0E943507E6CF88E193E035
:103680000E94BA05E1CF80916D0780FD03C083E5FC
:103690000E94CD0782EE0E9435078FE39CE90197D7
:1036A000F1F700C0000087E50E94CD07CDCF86EE80
:1036B0000E94CD0788E1F8CF80916E07823011F12A
:1036C00048F4882381F0813091F0809172070E9444
:1036D000740F08958430F9F08530B9F788E290E0EE
:1036E0000E94BA05F2CF82EE0E948207EECF8CE2F2
:1036F0000E94CD0780916D0781FFE7CF89E30E948B
:10370000CD07E3CF82EE0E94820780916D0780FD96
:10371000DCCF83E5F4CF88E2F2CF8F929F92AF9215
:10372000BF92EF92FF920F931F93CF93DF934B01C2
:103730005C01D0916E078CE1E82EF12C07E010E0DF
:1037400021E0D501C4010E2C04C0B695A79597952C
:1037500087950A94D2F7C82FCF70222339F0D4303E
:1037600051F4CA3040F080E00E94C71A8C2F0E94AA
:10377000C71A20E005C0C111F9CF04301105B4F318
:103780000150110984E0E81AF1080F3F1007C9F64B
:10379000DF91CF911F910F91FF90EF90BF90AF906D
:1037A0009F908F900895CF92DF92EF92FF926B01DE
:1037B0007C01C114D10481E1E806F104A0F5C11433
:1037C000D10481E0E806F10420F080916E07823098
:1037D00051F10E94061BC114D10481E0E806F104F6
:1037E00038F180916E07811123C081E0E81AF10859
:1037F000C701B6012AE096958795779567952A9532
:10380000D1F778528F4F9F4F0E948D1B83E0D822B3
:10381000EE24FF24C701B60174528F4F9F4F0E94C0
:103820008D1B0E945C1BFF90EF90DF90CF9008955E
:10383000C701B601F4CFCF93DF93EC01FB01828186
:10384000882309F4D2C09E0130572332310508F095
:10385000B2C00E946A1090935A0780935907FE01E4
:10386000E150F047E232F10520F4E358F14D0C94B9
:10387000A92D8091590781608093590793C0809149
:103880005A07886080935A078DC0809159078260DB
:10389000F3CF809159078460EFCF809159078860FA
:1038A000EBCF80915A078160EDCF80915A078260FB
:1038B000E9CF809159078061DFCF809159078062FD
:1038C000DBCF809159078064D7CF0E94480A80914E
:1038D00059078068D1CF809159078C60CDCF8091F6
:1038E0005A078360CFCF809159078E7FC5CF8091D3
:1038F0005A07877FC7CF809159078D7FBDCF8091B1
:1039000059078B7FB9CF80915907877FB5CF8091B9
:103910005A078E7FB7CF80915A078D7FB3CF8091A2
:1039200059078F7EA9CF809159078F7DA5CF8091B0
:1039300059078F7BA1CF0E94480A809159078F7742
:103940009BCF80915907837F97CF80915A078C7FB7
:1039500099CF8091590782FB992790F921E092270E
:1039600090FB82F990FB83F987CF80915A07982FBB
:10397000909591708E7F892B90FB81F983CF9091E8
:103980005907892F8F7B96FF806476CF0E94480A63
:1039900090915907892F97FB87F980586DCF81E067
:1039A0000E94F1108091590790915A070E946F1060
:1039B0000E94480A80E0DF91CF91089580E0F0CF27
:1039C00090915907892F8F7E94FF806155CF9091F8
:1039D0005907892F8E7F90FF81604ECF90915A07B3
:1039E000892F877F93FF88604DCF81E0E4CFB0E0DF
:1039F000A0E0EDEFFCE10C94BA2DE82FF0E0E853E5
:103A0000FB4FD490282F26952695269530E0F90176
:103A1000E859FA4F0491877010E0082E02C01595FE
:103A200007950A94E2F701701127F901E85AFA4F55
:103A3000E490F12C082E02C0F594E7940A94E2F782
:103A400091E0E922FF24F901E85BFA4FC491D0E04C
:103A500002C0D595C7958A95E2F7C170DD2701159B
:103A6000110519F081EE0E943507E114F10419F0F7
:103A700086EE0E9435078D2D0E94CD07E114F104DA
:103A800019F086EE0E9482070115110519F081EEEA
:103A90000E948207CD2B19F08CE20E94CD07CDB792
:103AA000DEB7E7E00C94D62DEF92FF920F931F93B1
:103AB000CF93DF93EC01162F0AE08881882309F465
:103AC00054C0813009F04EC08981813099F47E0163
:103AD00022E0E20EF11C8A810E94CD07E7012196C7
:103AE000812F815050F3EFE9FFE03197F1F700C0EB
:103AF0000000F7CF823041F47E0182E0E80EF11C35
:103B00008A810E943507EACF833041F47E01E2E0EA
:103B1000EE0EF11C8A810E948207E0CF843011F002
:103B20002196DDCF2A81229690E080E0AE014F5FA2
:103B30005F4F2053330B2A30310548F0019778F25C
:103B4000EFE9FFE03197F1F700C00000F7CF089FE1
:103B5000B001099F700D1124C901860F971F29819B
:103B6000EA01E4CF0E94F71CBACFCDB7DEB7E6E09A
:103B70000C94D72D60E00E94541D0895982F9F70DB
:103B80009A50963020F0805D0E94F71C0895895A63
:103B9000FBCF08950F931F93CF93DF93809135034D
:103BA000E091CA021CE081111AC0DF91CF911F91F0
:103BB0000F91089501E00E0F0093CA02CE2FD0E0BE
:103BC000E19FF0011124EB52FD4F83819481892BF9
:103BD00029F08081918189238F3FF9F4E02F809132
:103BE0003503E81738F3109235031092CA02DDCF7F
:103BF00018968D919C918F3F9807E1F061E00E94AB
:103C0000C91D1C9FF0011D9FF00D1124EB52FD4FAB
:103C1000148213820E94870FE1CF1C9FD0011D9F49
:103C2000B00D1124AB52BD4F16968D919C911797F4
:103C3000892BF1F220813181428153816481758128
:103C4000868197810E94A50EDCCF109237031092D7
:103C500036032091440130914501E0E0F1E090E02D
:103C600080E02817390709F408954581411102C001
:103C70001482168201963796F4CFDC016091D3024C
:103C80008091D402962F891301C00895292F30E026
:103C9000F901EE0FFF1FE553FD4F408151814A1797
:103CA0005B07A1F487E08A9FA0018B9F500D112430
:103CB00040505F4F81E0FA0184839613E6CF2F5F77
:103CC0003F4F237033272093D30208952F5F3F4F38
:103CD000922F9370D8CFB0E0A0E0E1E7FEE10C9422
:103CE000B42DEB012C81211152C070903503A5ED4C
:103CF000B2E030E020E0812C61E070E0271508F0B0
:103D000044C01A96CD90DC901B97A880B9804FEFE5
:103D10005FEF912CE92CF12CF701EE0FFF1FEA0D5C
:103D2000FB1D05911491C016D10609F4A7010115D8
:103D3000110511F09394EECF4F3F540789F1FB0129
:103D400002C0EE0FFF1F4A95E2F78E2AAB01092C45
:103D500002C0440F551F0A94E2F7415051098416DE
:103D60001506D1F44A815B816CE0629FF001639F8C
:103D7000F00D1124EB52FD4F578346832EEF208325
:103D800021839187808721E02D830E943D1ECDB73E
:103D9000DEB7EDE00C94D02D14961C921E92139772
:103DA0002F5F3F4F1C96AACF1F93CF93DF93C091F5
:103DB000D30217E08091D4028C1308C00E94CA1D60
:103DC0000E94251EDF91CF911F910895D0E0FE0142
:103DD000EE0FFF1FE553FD4F80819181189FB001C9
:103DE000199F700D112460507F4F0E946B1E219609
:103DF000C370E0CFEF92FF921F93CF93DF93FC014C
:103E00002081318110E040E050E0E52FF0E0EE0F3E
:103E1000FF1FE20FF31FA591B4911097B9F0FB01BA
:103E2000C081D18140E005C0AE15BF0509F411E0A5
:103E30004F5FE42FF0E0EE0FFF1FEC0FFD1FE5904A
:103E4000F490E114F10481F75F5FDFCF112349F0B3
:103E5000451708F4CB01DF91CF911F91FF90EF90B0
:103E6000089590E080E0F7CF80914301882341F1ED
:103E70008091380390913903009711F10E9499269F
:103E8000209136033091370328173907C8F49091F1
:103E9000D3028091D402981759F00E94D41E109238
:103EA00037031092360310923903109238030895A5
:103EB0000E94CA1D10923903109238030E94251ED9
:103EC00008951092390310923803109243018091A3
:103ED000D4028093D3020E94251E0E94CA1D089519
:103EE00080914301882319F00E94611F089581E0A9
:103EF000809343010895A9E0B0E0E1E8FFE10C946C
:103F0000AF2D5C017B0180352CE7920761F4FB014A
:103F10001281112389F081E080934301812F29963A
:103F2000E2E10C94CB2D8135FCE79F0709F04FC0EF
:103F3000FB011281111148C000E011E0D12CC12C0D
:103F4000198688248394912C809144019091450195
:103F5000C816D90608F447C0F7018281882309F4FE
:103F60006FC1F985FF2309F46BC10E9481269093EC
:103F700039038093380380913503883008F591E048
:103F8000980F9093350398E0F701DE0111960190A8
:103F90000D929A95E1F72CE0829FC00111248B527B
:103FA0009D4F28E0FE013196DC0101900D922A958B
:103FB000E1F72FEF3FEFFC0131872087B386A28620
:103FC00011E0F9851F27AACF0E94611FA7CF823574
:103FD0009C4709F0B1CFFB011281112309F4ACCF4A
:103FE0000E94701F9BCFF8014081518166246A9422
:103FF000762C412C242D30E0F901EE0FFF1FE40F49
:10400000F51F85919491A816B90609F43901892BF9
:1040100011F04394EFCF312CFFEF6F167F0609F4B8
:104020004EC0F8018481811153C0809143018823DF
:1040300009F44EC09701A501B801C6010E9402050E
:10404000F82FF1703F2EF80155808681F70192819B
:10405000992309F491C0332009F48EC0511015C082
:104060009401062C01C0220F0A94EAF7822BF80172
:1040700086838091360390913703889730F428E245
:1040800030E03093370320933603C401042C02C080
:10409000880F991F0A94E2F70197F80126812817E3
:1040A000190669F48091380390913903009791F0D3
:1040B0000E949926899770F021E0F8012483F98500
:1040C000F329F9872FEFC21AD20A095F1F4F3CCF9D
:1040D00080E0B6CF2090D30290E080E02091D4021F
:1040E000221215C00817190751F3622C712CF30125
:1040F000EE0FFF1FE553FD4FD182C0828FEF681A8C
:10410000780A93E0692277246092D402D8CF622C97
:10411000712CF301EE0FFF1FE553FD4F208131811C
:1041200047E0429FC001439F900D1124FC01E050E5
:10413000FF4F2F01B801CF010E94FA1E0097A9F08E
:1041400021E0FC0124830817190709F4B8CF209156
:10415000D30222120AC04816590639F493012F5F80
:104160003F4F237033272093D3023FEF631A730A24
:10417000462D4370242EB2CF90E0511022C09401FE
:10418000042C02C0220F331F0A94E2F72150310998
:104190008217930741F4F8018481882309F44EC003
:1041A000C6010E943D1EC401062C01C0880F0A945E
:1041B000EAF7982F9095F801868189238683352C1C
:1041C0007ECF9C01062C02C0359527950A94E2F714
:1041D000A90141705527BC016150710986239723BD
:1041E000892B41F5452B31F1F80182819381892B8F
:1041F000E1F01B821C821D821E82FEEFF983FA838E
:104200000E9481268160582F9D838C83F8018281D2
:1042100093818F83988729813A814B816D817E813B
:104220000E94A50EF8011582BECF60E0C6010E9473
:10423000C91DF8CFF22FF1705F2EB5CF532CB3CF3D
:104240009091D3028091D402981719F00E94D41E45
:10425000B7CE0E94CA1D10923903109238030E94F3
:10426000251EAECE089508950895089581E008951D
:104270000F931F93CF93DF93EC018B010E943221A8
:104280000E94480A0E94CD0A19830883DF91CF91CA
:104290001F910F910895AF92BF92CF92DF92EF924C
:1042A000FF921F93CF93DF93EC016B01142FE090EB
:1042B0002502F09026020E94480A0E94CD0A88E05A
:1042C000180250011124CC15DD0591F40E94480A12
:1042D000C7010E94C60A812F0E943321DF91CF912E
:1042E0001F91FF90EF90DF90CF90BF90AF90089517
:1042F000CE010E94FA09CA0DDB1DE5CF0F931F9373
:10430000CF93DF93EB01F801A881B981328131119C
:1043100003C08A179B07A9F088E02802B001112486
:10432000CD01861B970B4817590781F088E0019053
:104330000D928A95E1F788819981860F971F99835D
:104340008883DF91CF911F910F910895BF01822F34
:104350000E943421F6CFCF92DF92EF92FF920F931B
:104360001F93CF936C018B01C42F7901842F0E947E
:10437000352188E0C802A0011124519541955109C9
:104380000C151D0531F0F801E40FF51F8281811134
:104390000BC0F70111830083CF911F910F91FF9004
:1043A000EF90DF90CF9008958F01EACF0F931F9386
:1043B000CF938B0120913C0721113DC0FB01C281AD
:1043C000CC2331F0C1E08C2FCF911F910F91089534
:1043D0008435FCE79F07E9F068F483359C4791F743
:1043E0006AE373E08AE397E00E94382181E08093DA
:1043F0003C07E9CF8635ECE79E0799F087359C4767
:1044000009F760914601709147014FEF82E397E011
:104410000FC062E377E08AE397E00E94382182E0F0
:10442000E6CF609148017091490141E08AE393E051
:104430000E944B21C8CFAC0143555C474330510526
:1044400038F531E085359C4709F430E0F801828188
:10445000831731F0213031F0223081F010923C0787
:10446000C0E0B1CF60913A0770913B0728E431E09A
:1044700041E08AE393E00E94AB21F0CF60913A07DC
:1044800070913B0726E431E04FEF82E397E0F3CFF2
:104490000E943621C82F882309F494CF80913C07CD
:1044A000813069F0823009F08DCF40914801509100
:1044B00049012FEF6AE377E082E397E009C040917A
:1044C00046015091470121E06AE377E08AE393E0F7
:1044D0000E947E2178CFCF93DF93EB0186319C47FA
:1044E00011F50E94640F9A81992399F08A7A91E0DC
:1044F00009F490E090933D07811109C089E20E9480
:104500003C0F0E94A80F80E0DF91CF91089585E3D2
:10451000F6CF80913D07811104C089E20E94440FCB
:10452000F0CF85E3FBCF81E0EFCF0F931F93CF93C5
:10453000DF93C42FD22FFC0182818823C9F04093DE
:1045400040070E94812690933F0780933E0780E2B8
:104550008C0F883040F4C77081E001C0880FCA9585
:10456000EAF70E94D607DF91CF911F910F9108952E
:1045700010914007141332C080913E0790913F077D
:104580000E9499268A3F910548F5C0E2CD0F1D177C
:10459000B9F080E2810F883040F4177081E001C0EB
:1045A000880F1A95EAF70E94DD07C83048F481E0C9
:1045B0009D2F977001C0880F9A95EAF70E94D60741
:1045C000802F0E94CD07C83070F6D77081E001C0FF
:1045D000880FDA95EAF70E94DD07C5CF80E28C0FDD
:1045E000883008F6C77081E001C0880FCA95EAF7E5
:1045F000F2CF0F93DB0188519C4787309105A0F5DE
:10460000FC01E156F14D0C94A92D06E221EE41EE9C
:104610006AE17CE7CD010E94952280E00F91089528
:1046200007E225EE45EE6BE17CE7F4CF06E221EEF2
:1046300040EE68E17CE7EECF07E225EE44EE69E16B
:104640007CE7E8CF06E221EE42EE6CE17CE7E2CFC8
:1046500007E225EE46EE6DE17CE7DCCF08E221E0E3
:1046600045EE6EE17CE7D6CF12968C91882319F047
:1046700010924007D3CF81E0D1CF8EE14A9B02C098
:104680008150E1F74A9BFECF08955A9880E28A95BF
:10469000F1F75A9A0895FC013BE03A95F1F798E05A
:1046A00020E080E031E040E14A95F1F7880F4A9B35
:1046B00002C08160232742E04A95F1F7000040E103
:1046C0004A95F1F7915079F790E19A95F1F799B100
:1046D00032E03A95F1F7000040E14A95F1F792FB9C
:1046E000992790F992272081920F90830895A1E055
:1046F000B0E0EDE7F3E20C94BB2D19828C017C0154
:10470000E60EF11C0E151F0541F481E0998191110F
:1047100080E02196E6E00C94D72D0E943D23CE0147
:1047200001960E944B23F80181938F01EBCF529A9F
:104730005A9A089552985A9AEA9AE9E6F0E08081E6
:104740008F7C808308956150770B91E001C0990FB1
:104750006A95EAF720E031E0911108C0222391F038
:104760005A9A80E28A95F1F75A980895492F48237A
:1047700039F05A9A232740E24A95F1F79695ECCF03
:104780005A98F9CF5A98EDCFFF920F931F93CF937A
:10479000DF93EC018C01060F111DC017D10729F41E
:1047A000CDB7DEB7E5E00C94D82DF9900E944523F3
:1047B00068E08F2D0E94A323F0CF1F920F920FB6B7
:1047C0000F9211240F931F932F933F934F935F9357
:1047D0006F937F938F939F93AF93BF93EF93FF93C9
:1047E000CF93DF930F92CDB7DEB719820E943D239E
:1047F000CE0101960E944B23082F0695069506953B
:10480000282F22952570902F9570290F922F937045
:1048100026952695920F982797708981982B09F0F5
:104820005CC0043008F059C080E18A95F1F75A9ACB
:10483000529A82E08A95F1F700C05A9888E0089F62
:1048400080011124D801AB5DBE4F1696ED91FC910D
:1048500017973097A9F0609105027091060214969F
:104860002D913C911597260F371F11968D919C9194
:104870001297680F791F13964C9113978C91099595
:10488000F801EB5DFE4F6381662351F02091050234
:104890003091060284819581820F931F0E94C42368
:1048A0000E94452380E18A95F1F75A9852985A9AC6
:1048B00080E18A95F1F7F801EB5DFE4F6081662398
:1048C00051F0209105023091060281819281820F80
:1048D000931F0E9477230E943D230F90DF91CF9179
:1048E000FF91EF91BF91AF919F918F917F916F91C8
:1048F0005F914F913F912F911F910F910F900FBE9C
:104900000F901F9018950F931F93CF93DF93EC0197
:1049100004970CF04CC0F894529A5A9885E08A9506
:10492000F1F700009C2F969595708C2F8570980F4D
:10493000892F83709695969523E0CC0FDD1F2A95DD
:10494000E1F7980F8E01092B0E94452300C068E013
:10495000802F0E94A32380E18A95F1F752985A9AFA
:104960004A9B1EC087E090E04A991CC0FE01EB5DA7
:10497000FE4F63816623F9F0209105023091060213
:1049800084819581820F931F0E947723811113C028
:10499000529A5A9A7894DF91CF911F910F9108956E
:1049A00000C0DECF019729F4529A5A9A789480E099
:1049B000F2CF00C0D9CF0E943D2380E28A95F1F763
:1049C0005A98529A80E18A95F1F7CB5DDE4F688163
:1049D000662351F0209105023091060289819A8167
:1049E000820F931F0E94C4230E944523789481E084
:1049F000D2CF9093090280930802089590934707BD
:104A00008093460708950E94D315811103C08091B9
:104A100041070895E0914607F0914707309729F044
:104A20000190F081E02D0995089580E008950E949D
:104A300003250895E0914607F0914707309721F04C
:104A40000280F381E02D09950895E0914607F091E9
:104A50004707309739F022E0DC012C930480F58180
:104A6000E02D09950895A3E0B0E0E9E3F5E20C94A8
:104A7000BF2D209144073091450728173907A1F031
:104A80009093450780934407E0914607F0914707CC
:104A9000309751F023E029839B838A830680F78136
:104AA000E02DCE01019609952396E2E00C94DB2DD2
:104AB000A3E0B0E0EEE5F5E20C94BF2D20914207B3
:104AC0003091430728173907A1F09093430780934B
:104AD0004207E0914607F0914707309751F024E0F4
:104AE00029839B838A830680F781E02DCE0101967E
:104AF00009952396E2E00C94DB2D9C012E5F3F4F3D
:104B0000AC01485F5F4F80E02417350709F4089532
:104B1000F90191919F019923B9F38F5FF5CF662336
:104B200049F0FC01329608962191261729F0E817E2
:104B3000F907D1F780E0089581E008959C01FC0118
:104B400032969FEF80E04191461751F09F3F19F454
:104B5000411101C0982F8F5F8630A9F79F3F09F45C
:104B60000895290F311D97FD3A95F9016283089543
:104B7000FC01329608962191261303C0DF0111979C
:104B80001C92E817F907B9F708950E949E25089529
:104B90000E94B8250895029626E0FC0111922A95FC
:104BA000E9F7089546E050E00E94FA2D21E0892BB4
:104BB00009F420E0822F089508950E94DC250895CD
:104BC000811106C081E0809348070E94DD25089589
:104BD00082E0F9CF83E0809348070E94DD250895A5
:104BE0000E94E025089581E0809348070E94DD251A
:104BF00008950E94F3250895089508950E94FD25C3
:104C00000895089508950E94FC250895CF930E9469
:104C100001260E9454150E940226C0E08C2F0E949B
:104C20003814811105C0CF5FC830C1F7CF91089506
:104C300081E0FCCF85B7806885BF85B7806885BF78
:104C400008951F921FB61F9211248F939F93AF93C5
:104C5000BF9380914907811113C080917307909190
:104C60007407A0917507B09176074196A11DB11DFB
:104C70008093730790937407A0937507B09376079A
:104C8000BF91AF919F918F911F901FBE1F9018955C
:104C900080917B07843031F10E94A0061092490771
:104CA00088E190E020E40FB6F894A8958093600026
:104CB0000FBE2093600083B7817F846083BF83B77A
:104CC000816083BF7894889583B78E7F83BF0FB64A
:104CD000F894A8958091600088618093600010929C
:104CE00060000FBE08950E94480A0E94A50608951C
:104CF00082E084BD93E095BD9AEF97BD80936E00EE
:104D000008952FB7F8948091730790917407A0913C
:104D10007507B09176072FBF08952FB7F89460916B
:104D200073077091740780917507909176072FBF74
:104D300008959C014FB7F894809173079091740780
:104D4000A0917507B09176074FBF821B930B089512
:104D5000CF92DF92EF92FF922FB7F894C090730733
:104D6000D0907407E0907507F09076072FBFA701E9
:104D70009601261B370B480B590BCA01B901FF904E
:104D8000EF90DF90CF90089578941F921FB61F92F6
:104D900011248F939F93AF93BF938091730790914A
:104DA0007407A0917507B09176070196A11DB11DFA
:104DB0008093730790937407A0937507B093760759
:104DC000BF91AF919F918F911F901FBE1F9018951B
:104DD00087E797E7909301088093000888E19AE0BD
:104DE0000FB6F894A895809360000FBE9093600072
:104DF000FFCF88E19AE00FB6F894A8958093600001
:104E00000FBE90936000FFCF8091520708959B01E1
:104E1000BA0190917B079430E9F48F708093E90098
:104E20009FEF8091E800915085FD06C085ED8A9541
:104E3000F1F700009111F5CF8091E80085FF0AC0DD
:104E400050E040E0C9010E94FC288091E8008E7784
:104E50008093E800089543E050E0BC0182E00E94A6
:104E60000727089546E050E0BC0182E00E94072732
:104E70000895CF93DF93EC0148E050E0BC0181E05E
:104E80000E94072788E0FE01AAE4B7E001900D9296
:104E90008A95E1F7DF91CF91089580917A0781118A
:104EA00009C00E948C2A0E94E92A8091E200846055
:104EB0008093E200089510927A0708950E94F325E6
:104EC00008956091770781E0611101C080E00E9440
:104ED000EA25089590917B0781E0943009F080E005
:104EE000609177070E94F025089542E061EC81E02F
:104EF0000E94082A42E261EC82E00E94082A909116
:104F00007B0781E0943009F080E0609177070E9490
:104F1000E025089580917D07833009F461C030F465
:104F20008130D1F1823009F49EC008958A3009F4AD
:104F30008AC08B3009F46FC0893009F050C080916D
:104F40007C07813209F04BC08091800790918107E6
:104F5000029708F044C08091E800877F8093E800C2
:104F60008091E80082FF37C09091F3008091F200B9
:104F7000029731F48091F100813011F0863021F4F4
:104F80008091F100809352078091E8008B778093A5
:104F9000E8000E943C2A23C080917C07813AF9F402
:104FA0008091E800877F8093E8008091800790914E
:104FB0008107892B61F468E08AE497E070E00E9441
:104FC0004B298091E8008B778093E800089560E09A
:104FD00090E080E0F3CF80917B078111C1CF0895ED
:104FE00080917C07813AD9F7809180079091810761
:104FF000892BA9F78091E800877F8093E800809152
:10500000E80080FFFCCF809152018093F1008091F5
:10501000E8008E77BCCF80917C07813201F78091C8
:10502000800790918107892BD1F68091E800877FD6
:105030008093E8000E943C2A80917E078093520171
:105040000E94480A089580917C07813241F6809140
:10505000E800877F8093E8000E943C2A80917F07C8
:1050600080935307089580917C07813A09F0B7CF68
:105070008091E800877F8093E8008091E80080FFBE
:10508000FCCF80915307C1CF84B7877F84BF0FB611
:10509000F894A895809160008861809360001092D8
:1050A00060000FBE80E890E00FB6F8948093610036
:1050B000909361000FBE0E94F92508950E948C2AEA
:1050C0000E94E92AE2EEF0E0808184608083789497
:1050D0000E94682D08958AE491E00E94FE240895BC
:1050E00080917B07853031F480917B07853019F002
:1050F0000E94732608950E9448268091790788238C
:1051000099F30E940626882379F30E94E6280E94DC
:10511000480AEACF08950E948E280895292F332740
:105120002330310519F168F42130310509F444C008
:105130002230310509F445C090E080E030E020E005
:1051400025C02132310549F122323105A9F780E429
:1051500090E02AE636E061157105C1F08BE790E03A
:105160002FEE35E06130710589F0E6CF9927813067
:10517000910581F0009729F00297F1F6E8E7F5E054
:1051800002C0EEE9F5E0849190E09F01FA013183DD
:1051900020830895E4E9F5E0F6CF89E090E024EB80
:1051A00035E06115710591F389E090E02DEC35E073
:1051B0006130710559F3C0CF82E190E02DED35E00B
:1051C000E5CF8BE390E022EA35E0E0CF80E189BDD6
:1051D00082E189BD09B400FEFDCF8091D8008F7DAA
:1051E0008093D8008091E00082608093E0008091FD
:1051F000E00081FDFCCF0895AF92BF92CF92DF9285
:10520000FF920F931F93CF93DF936C01EB018A0101
:105210000E945B2AF82E811123C00115110539F077
:10522000F80180819181C81BD90BC80ED91EB12C01
:10523000A12C2097A9F08091E80085FD22C08091E3
:10524000E8008E778093E80001151105A1F0F801C0
:1052500080819181A80EB91EB182A08285E0F82ECE
:105260008F2DDF91CF911F910F91FF90DF90CF9005
:10527000BF90AF9008950E945B2A8823D1F2F82E48
:10528000EFCFF60181916F018093F1002197FFEF3D
:10529000AF1ABF0ACECFFC0180918207909183079D
:1052A00086179707A0F06115710529F49091E80021
:1052B0009E779093E80090E06115710551F491118B
:1052C00008C08091E80082FF34C080E00895BC01EE
:1052D000F2CF80917B078823C1F18530C1F18091A5
:1052E000E80083FD30C08091E80082FDEACF809124
:1052F000E80080FFE1CF8091F3002091F200382F89
:105300006115710519F02830310558F091E0283009
:10531000310509F090E02091E8002E772093E80015
:10532000CBCF81918093F100615071092F5F3F4F86
:10533000E7CF80917B07882341F0853041F0809151
:10534000E80083FFBECF81E0089582E0089583E006
:105350000895FC0180918207909183078617970733
:10536000A0F06115710529F48091E8008E77809393
:10537000E80090E06115710551F4911108C0809129
:10538000E80082FF35C080E00895BC01F2CF809133
:105390007B078823C9F18530C9F18091E80083FD3E
:1053A00031C08091E80082FDEACF8091E80080FF63
:1053B000E1CF8091F3002091F200382F6115710543
:1053C00019F02830310558F091E02830310509F006
:1053D00090E08091E8008E778093E800CBCF8491B5
:1053E0008093F1003196615071092F5F3F4FE6CFF6
:1053F00080917B07882341F0853041F08091E8005F
:1054000083FFBDCF81E0089582E0089583E0089591
:10541000982F973028F08F708093E90081E00895ED
:105420009093E900242F762F50E0981731F0709177
:10543000EC002091ED005091F00021FD02C09F5F33
:10544000E8CF3091EB003E7F3093EB003091ED00E0
:105450003D7F3093ED003091EB0031603093EB00F5
:105460007093EC002093ED005093F0002091EE003B
:1054700027FDE5CF80E0089580917C0787FF13C06A
:105480008091E80082FF06C08091E8008B778093CE
:10549000E80004C080917B078111F2CF08958091CC
:1054A0007B078823D9F38091E80080FFF8CF8091B3
:1054B000E8008E77ECCF2091E4003091E50095E68E
:1054C000A9012091EC00822F817020FF06C08091FD
:1054D000E80080FF06C080E008952091E80022FDEA
:1054E0001AC080917B07882389F0853089F08091EC
:1054F000EB0085FD0FC02091E4003091E5004217DC
:105500005307F9F29150E1F684E0089582E008959E
:1055100083E0089581E008950E94FB2A0E94032BF6
:10552000E0EEF0E0808181608083E8EDF0E0808152
:105530008F77808319BCA7EDB0E08C918E7F8C9320
:1055400080818F7E808310927A0708950F931F9336
:10555000CF93DF930E94FB2A0E94032BC8EDD0E07B
:1055600088818F77888388818068888388818F7D10
:10557000888319BC10927B071092770710927907E5
:105580001092780700EE10E0F80180818B7F808315
:1055900088818160888342E060E080E00E94082A80
:1055A000E1EEF0E080818E7F8083E2EEF0E08081AA
:1055B00081608083808188608083F80180818E7F14
:1055C0008083888180618883DF91CF911F910F91C3
:1055D0000895E8EDF0E080818F7E8083E7EDF0E0D4
:1055E00080818160808384E082BF81E080937A073C
:1055F0000E94A62A0895E8EDF0E080818E7F8083E6
:105600001092E20008951092DA001092E1000895DD
:105610001F920F920FB60F9211242F933F934F9327
:105620005F936F937F938F939F93AF93BF93EF930A
:10563000FF938091E10082FF0BC08091E20082FF26
:1056400007C08091E1008B7F8093E1000E94672D6D
:105650008091DA0080FF19C08091D80080FF15C0CA
:105660008091DA008E7F8093DA008091D90080FFEC
:1056700096C080E189BD82E189BD09B400FEFDCFFD
:1056800081E080937B070E944D278091E10080FF9D
:1056900019C08091E20080FF15C08091E2008E7FEA
:1056A0008093E2008091E20080618093E20080912B
:1056B000D80080628093D80019BC85E080937B0776
:1056C0000E9461278091E10084FF2BC08091E2005D
:1056D00084FF27C080E189BD82E189BD89B5982F0B
:1056E000917080FFFBCF8091D8008F7D8093D80090
:1056F0008091E1008F7E8093E1008091E2008F7EB7
:105700008093E2008091E20081608093E2008091CA
:105710007707882309F449C084E080937B070E94BF
:105720006A278091E10083FF29C08091E20083FF16
:1057300025C08091E100877F8093E10082E0809323
:105740007B07109277078091E1008E7F8093E100C4
:105750008091E2008E7F8093E2008091E200806180
:105760008093E20042E060E080E00E94082A80919D
:10577000F00088608093F0000E945E27FF91EF9117
:10578000BF91AF919F918F917F916F915F914F9159
:105790003F912F910F900FBE0F901F90189519BC3D
:1057A00010927B070E945B2770CF8091E30087FDFA
:1057B00093E090937B07B3CF1F920F920FB60F9297
:1057C00011242F933F934F935F936F937F938F9306
:1057D0009F93AF93BF93CF93DF93EF93FF93D091BA
:1057E000E900DF708091EC00C82FC17080FDC0E837
:1057F0001092E9008091F000877F8093F000789408
:105800000E94202C1092E9008091F0008860809323
:10581000F000CD2BCF70C093E900FF91EF91DF91A5
:10582000CF91BF91AF919F918F917F916F915F9138
:105830004F913F912F910F900FBE0F901F90189591
:10584000AAE2B0E0E6E2FCE20C94BE2D8CE797E021
:105850002091F100FC012193CF01F7E084389F07EC
:10586000B9F70E948A278091E80083FF1EC18091CA
:105870007C0790917D079A3008F017C1E92FF0E07E
:10588000EA55F14D0C94A92D803899F0823809F031
:105890000CC1809180078F70873008F006C180931B
:1058A000E9008091EB0085FB882780F91092E900E0
:1058B00006C080917807909179079111826090914C
:1058C000E800977F9093E8008093F1001092F10038
:1058D0008091E8008E77E5C0882309F4D3C0823038
:1058E00009F0E3C080917E078111D6C080918007C6
:1058F0008F702FEF280F263008F0D7C08093E90073
:105900002091EB0020FFC8C0933031F48091EB0070
:1059100080628093EB00C0C09091EB009061909307
:10592000EB0021E030E001C0220F8A95EAF72093D6
:10593000EA001092EA008091EB008860EACF8111C2
:10594000B4C010917E071F778091E3008078812B8F
:105950008093E3008091E800877F8093E8000E94B5
:105960003C2A8091E80080FFFCCF8091E3008068B2
:105970008093E30082E0111183E080937B0795C060
:105980008058823008F091C080917E0790917F0707
:105990008C3D23E09207A1F583E08A838AE2898324
:1059A0004FB7F894DE01139620E03EE051E2E32F7A
:1059B000F0E050935700E49120FF03C0E295EF70B0
:1059C0003F5FEF708E2F90E0EA30C0F0C7968D9366
:1059D0009D932F5F243159F74FBF8091E800877F57
:1059E0008093E8006AE270E0CE0101960E944B29A4
:1059F0008091E8008B778093E80057C0C096E7CF8E
:105A00006091800770918107AE014F5F5F4F0E94E8
:105A10008B28BC01892B09F448C09091E800977F3E
:105A20009093E80089819A810E94A929E1CF80386A
:105A3000E1F58091E800877F8093E8008091770707
:105A40008093F10045CF811130C090917E07923054
:105A500060F58091E800877F8093E8009093770756
:105A60000E943C2A80917707882311F084E005C0CA
:105A70008091E30087FDFACF81E080937B070E944D
:105A8000752713C080917E07813079F481E09330CF
:105A900009F080E0809379071092E9008091E80096
:105AA000877F8093E8000E943C2A8091E80083FF72
:105AB0000AC08091E800877F8093E8008091EB0026
:105AC00080628093EB00AA96E3E00C94DA2D0895AF
:105AD000CF9380917B078823A1F0C091E900CF701C
