:100000000C9489030C94A6030C94A6030C94D72497
:100010000C94A6030C94A6030C94A6030C94A603BC
:100020000C94A6030C94A6030C940C2C0C94DE2CBC
:100030000C9420270C94A6030C94A6030C94A603FE
:100040000C94A6030C94A6030C94A6030C94A6038C
:100050000C94A6030C94C5270C94A6030C94A60339
:100060000C94A6030C94A6030C94A6030C94A6036C
:100070000C94A6030C94A6030C94A6030C94A6035C
:100080000C94A6030C94A6030C94A6030C94A6034C
:100090000C94A6030C94A6030C94A6030C94A6033C
:1000A0000C94A6030C94A6030C94A603B503CA03F0
:1000B000EB03080424043C044B0455045F046E0461
:1000C0008504A204BA04D004E804F504FA04010586
:1000D0000E0516051E05610861088D088D08F508D6
:1000E0001309020A020A18098E099F099F09641B55
:1000F000671B6F1B711B731B751B771B791B371DD0
:10010000A91D3F1D091D0D1D431D101D461D511D1F
:100110001B1D9F1D1F1D551D231D591D831D271DA3
:100120005D1D8D1D2D1D631D6D1D141D4A1D171D8B
:100130004D1D321D681D791D991D9B1D051D3B1D03
:10014000B21D1124172405240B241D242324292443
:10015000462D6D2D652E6D2D652EB92DDC2D652E50
:10016000332E422E14001A00090013000500042447
:100170001521162217280A001D001B000600070083
:10018000190025522C220000000000000D000F0075
:1001900018001C0033001024112108220C28120022
:1001A0000E000B003600370038002C0023520000F0
:1001B0000000000014001A000900130005000424C8
:1001C0001521162217280A001D001B000600070033
:1001D000190026522C220000000000000D000F0024
:1001E00018001C0033001024112108220C281200D2
:1001F0000E000B003600370038002C0023520000A0
:100200000000000014001A00080015001700040088
:100210001600070009000A001D001B000600190057
:10022000050025522C220000000000001C001800D0
:100230000C00120013000B000D000E000F00330025
:10024000110010003600370038002C002352000047
:10025000000000001E001F002000210022003602C6
:1002600026022F002F02210237022702300030021F
:100270002202275224520000000000002300240024
:100280002500260027002E00380234002E02250209
:100290001F021E0234022D00380000000100000081
:1002A0000000000035003502230220020000310268
:1002B000240231002D0200000000000000000000B8
:1002C000000000000100000000000000000000002D
:1002D000000000000000000000000000000000001E
:1002E000000000000000000000000000010000000D
:1002F0000000000029001A017E0019020C02E20031
:10030000E000E100E300E6007A007B007C007D0075
:100310002B0001004C0000000000000039004A00E2
:100320004E004B004D0017015000510052004F008D
:100330002A012A000000000079002800275200004E
:100340000000000029001A087E0019020C02E200D9
:10035000E000E100E300E6007A007B007C007D0025
:100360002B0001004C0000000000000039004A0092
:100370004E004B004D0017085000510052004F0036
:100380002A042A00000000007900280027520000FB
:10039000000000003A003B003C003D003E00E2004F
:1003A000E000E100E300E6000000000000000000C3
:1003B0000000010000000000000000003F004000BD
:1003C0004100420043004400450046000000000098
:1003D000117E000000000000007C00000100000011
:1003E000000000000000097E0A7E0C7E0B7E057E68
:1003F000027E037E047E0E7E0000007E0000017EF1
:100400000D7E0000E100000000000000025200002C
:10041000000000000000095201520000000000002E
:100420000A520B5200000000000000000000000013
:10043000000000002B001E001F0007000900210023
:1004400014001A00080015002900190016002000E9
:10045000050004212C00000000000000127E137E25
:10046000000000000000000000000000000000008C
:1004700000000000000000000000005200520000D8
:10048000000000002B0014001A0008001500E10015
:100490000400160007000900E0001E001F002000F5
:1004A000210006002C00000000000000127E137ED8
:1004B000000000000000000000000000000000003C
:1004C0000000000000000000000000520052000088
:1004D000000000002900D100CD00D200D3002B0085
:1004E000CF00CE00D0004B00E300DB00D900DC00E1
:1004F0004E00DA0000520000000000001A012B1329
:100500002B011713E20028005000510052004F0049
:1005100017131701DD00DE00DF00E000E10000003E
:10052000000000002C002352000004001500000011
:1005300000000000000000002A2B2800000000003E
:100540000000000000000000000000290000000082
:100550002C1E3420212224342627252E362D3738F0
:10056000271E1F202122232425263333362E3738F9
:100570001F0405060708090A0B0C0D0E0F101112B7
:10058000131415161718191A1B1C1D2F3130232D83
:10059000350405060708090A0B0C0D0E0F10111281
:1005A000131415161718191A1B1C1D2F3130354C32
:1005B000000000000000000000000000000000003B
:1005C000000000000000000000000000000000002B
:1005D000000000007E0F00D4FFFFFFC7000000787E
:1005E0001A03460065007200720069007300200063
:1005F0007300770065006500700000000803440088
:100600005000420000000403090409023B000201FB
:1006100000A0FA09040000010301010009211101F1
:1006200000012240000705810308000109040100C0
:100630000103000000092111010001227B000705D0
:1006400082032000011201000200000008ABC23941
:100650003901000102000105010902A10185020919
:1006600001A1000509190129081500250195087542
:100670000181020501093009311581257F95027537
:1006800008810609381581257F95017508810605C1
:100690000C0A38021581257F950175088106C0C0B6
:1006A00005010980A101850319012AB7001501265A
:1006B000B700950175108100C0050C0901A10185E5
:1006C0000419012AA002150126A0029501751081C6
:1006D00000C005010906A101050719E029E7150079
:1006E00025019508750181029501750881010507AD
:1006F000190029FF150026FF0095067508810005E1
:100700000819012905950575019102950175039157
:1007100001C011241FBECFEFDAE0DEBFCDBF12E073
:10072000A0E0B1E0E8ECFEE502C005900D92AA3031
:10073000B107D9F727E0AAE0B2E001C01D92A438C2
:10074000B207E1F70E948F180C94622F0C940000FE
:10075000FC01FE57E531F10508F07CC1DB01EA5AE6
:10076000FF4F12969C910C94B92E992309F472C1F3
:100770000E94E30F882339F00E94F60F81EE0E9459
:100780006A0785E335C00E94F60F81EE0E946A0772
:1007900085E337C0992309F45DC10E94E30F8823E4
:1007A00039F00E94F60F81EE0E946A0785E359C076
:1007B0000E94F60F81EE0E946A0785E30E941008EE
:1007C00081EE0E94C00782E10E94100880915407C8
:1007D0000E94F30F3FC1992309F43CC10E94E30F2B
:1007E000882349F00E94F60F81EE0E946A0783E297
:1007F0000E94100882C00E94F60F81EE0E946A07D4
:1008000083E20E94100881EE0E94C00784E0DCCFE2
:10081000992309F41FC10E94E30F882349F00E9425
:10082000F60F81EE0E946A0783E20E9410087CC0E6
:100830000E94F60F81EE0E946A0783E20E94100870
:1008400081EE0E94C0077CC0992309F403C10E9475
:10085000E30F882351F00E94F60F81EE0E946A0791
:1008600083E20E94100882E160C00E94F60F81EED0
:100870000E946A0783E2A2CF992309F4EBC00E9489
:10088000E30F882321F00E94F60F85E331C00E9418
:10089000F60F85E337C0992309F4DCC00E94F60FF8
:1008A00081EE0E946A0783E213C0992309F4D2C043
:1008B0000E94F60F84E30E9410088CE285CF9923F2
:1008C00009F4C8C00E94F60F81EE0E946A0784E313
:1008D0000E94100881EE0E94C007EFCF992309F40F
:1008E000B9C00E94E30F882351F00E94F60F84E301
:1008F0000E94100881EE0E946A0784E016C00E94E0
:10090000F60F84E30E94100881CF992309F4A2C056
:100910000E94E30F882379F00E94F60F84E30E947F
:10092000100881EE0E946A0788E00E94100881EE9C
:100930000E94C0074BCF0E94F60F84E30E9410086C
:1009400088E042CF992309F485C00E94E30F8823F1
:1009500051F00E94F60F84E30E94100881EE0E947D
:100960006A078CE0E2CF0E94F60F84E30E94100831
:100970008CE02ACF992309F46DC00E94E30F8823ED
:1009800049F00E94F60F84E30E94100881EE0E9455
:100990006A0769CF0E94F60F84E30E94100813CF04
:1009A000992309F457C00E94E30F882351F00E9455
:1009B000F60F84E30E94100881EE0E946A0788E126
:1009C000B4CF0E94F60F84E30E94100888E1FCCEA9
:1009D000992309F43FC086EE0E946A0786E30E94CD
:1009E000100886EE0E94C00735C0992399F189E668
:1009F00091E004C0992371F18CE691E00E948F1E72
:100A000029C0992339F180910C02811104C081E041
:100A100080930C021FC010920C021CC09923D1F0CD
:100A200088E20E9410088FE691E00FC0992391F0B0
:100A300088E20E9410088BE791E007C0992351F0EB
:100A400088E20E94100882E991E00E948F1E88E2ED
:100A50000E94100881E008958AE00E94400B8111F5
:100A600006C089E00E94400B91E08927089580E04C
:100A700008958C3221E2920729F08C32924211F0D3
:100A800080E0089581E008958C30B0F46830A0F4DF
:100A9000453090F498E2899FF001112485E0689F29
:100AA000E00DF11D1124E40FF11DEE0FFF1FEC59B5
:100AB000FE4F85919491089580E090E008950E9402
:100AC000440508959C013A9521153F4130F5BC013C
:100AD00066277270AC01442754709C01222738703D
:100AE00094FF0FC090FF02C080E101C080E0672B3F
:100AF00009F08062452B09F08064232B79F080682F
:100B00000895892F8170672B09F08260452B09F0C9
:100B10008460232B19F08860089580E00895CF93B6
:100B2000DF93EB010E946205FE010995DF91CF91F1
:100B30000895CF93DF93EC01805E9109089710F040
:100B4000209719F46AE178E002C062E77AE0CE010A
:100B50000E948F058C2F0E946A07DF91CF91089524
:100B6000CF93DF93EC010E94C007CE01805E910914
:100B7000089710F0209719F461E278E002C069E765
:100B80007AE0CE010E948F05DF91CF9108950F93F7
:100B90001F93CF93DF938C01EB010E94990520975F
:100BA00041F08FE99FE00197F1F700C00000219725
:100BB000F6CFC8010E94B005DF91CF911F910F9130
:100BC00008958933910519F060E070E002C060E596
:100BD00070E00E94C705089581E008950E94A8036F
:100BE000089508950E94F1050895A5E0B0E0EBEFA7
:100BF000F5E00C94CE2E49835A83309112028981FC
:100C00009A81311114C0662359F0222349F00E94C1
:100C1000180C182F682F89819A810E94F40B03C049
:100C20000E94060C182F69817A81812F04C00E94CE
:100C3000180C69817A810E9455132596E3E00C9483
:100C4000EA2EFC0186819781009741F4262F40818E
:100C500051816281738184810E94F5050895CF934B
:100C6000DF93EC0161E00E942106BE010E94632037
:100C7000DF91CF910895CF93DF93EC0160E00E9464
:100C80002106BE010E94F205DF91CF9108950E94D6
:100C9000DF1408950E94D914089508950E949A0AB5
:100CA0000E944D062FEF84E39CE02150804090404D
:100CB000E1F700C0000008950E944E060E94EB2755
:100CC00008950E944E060E94FC2708950F931F93DB
:100CD000CF93DF938C0161E00E942106EC01B80103
:100CE0000E94C922882309F450C0B801CE010E9495
:100CF000EE05882309F449C0B801CE010E944D1BBE
:100D0000882309F442C0B801CE010E94F923882348
:100D1000E1F1B801CE010E94E11C8823B1F1B801D4
:100D2000CE010E945F23882381F1F801828188230C
:100D300041F1C3308CE7D807D1F040F4C115FCE78E
:100D4000DF0791F0C130DC47A1F01BC0CB35ECE7E9
:100D5000DE07A9F0CC35FCE7DF0771F0CA35DC47C8
:100D600081F40E94C8100DC00E945C060EC00E9453
:100D7000D0100E94610609C00E94BE1002C00E94ED
:100D8000CC10C8010E94EC0501C080E0DF91CF913A
:100D90001F910F9108950E94F9260E94F50608956B
:100DA0000E94F9060E940227089508950E94D50620
:100DB000089581E008950895CF93DF93D82F0E947E
:100DC000D906C82F882319F08D2F0E94DB068C2F9F
:100DD000DF91CF9108950895CF93C82F0E94D60632
:100DE0008C2F0E94DC06CF91089580E00E94EC06D3
:100DF00008950E9402260E94EC060895CF930E9457
:100E00000226C82F80910D02C81779F0C0930D02F9
:100E10000E948E2760930E0270930F02809310023F
:100E2000909311028C2F0E94EC06CF910895ADE0B3
:100E3000B0E0EDE1F7E00C94CF2E49875A876B873D
:100E40007C878D8761110E9406109E012F5F3F4FA6
:100E500088E0F90111928A95E9F785E0FE0139965B
:100E6000D90101900D928A95E1F789819A814C818F
:100E70005D81452B31F09F3F31F491E08F3F19F4B4
:100E800003C091E001C090E090FF0BC029813A813E
:100E90004B815C816D817E818F8198850E94260FB8
:100EA00005C0C9010E942F068111F0CF2D96E2E006
:100EB0000C94EB2EFC01808191810E944A0C0895D4
:100EC000662319F00E94141902C00E946F190E9433
:100ED000E6190895CF93882309F450C0C82F8CEFEA
:100EE0008C0F813AD0F46C2F80910E0190910F01FC
:100EF0000E948826882349F06C2F80910E019091E2
:100F00000F010E94C1260E942A106C2F80910E01B1
:100F100090910F010E94BE260CC080E28C0F883099
:100F200058F4C77081E001C0880FCA95EAF70E94A3
:100F3000E60F0E942A1022C0EBE5EC0FE33040F4EC
:100F4000F0E0E153FE4F808190E00E94322616C00F
:100F5000E8E5EC0FE93150F4F0E0EE0FFF1FE35647
:100F6000FE4F808191810E94572608C083E38C0F39
:100F7000833120F461E08C2F0E946007CF910895A7
:100F80008823A9F19CEF980F913A40F4682F809143
:100F90000E0190910F010E94C1260DC090E2980FA2
:100FA000983060F4877091E001C0990F8A95EAF754
:100FB000892F0E94EC0F0E942A1008959BE5980F3C
:100FC000933028F480E090E00E943226089598E55E
:100FD000980F993128F480E090E00E9457260895F8
:100FE00093E3980F933118F460E00E94600708952E
:100FF0001F93CF93DF93182FEB010E946A0720976E
:1010000041F08FE99FE00197F1F700C000002197C0
:10101000F6CF812F0E94C007DF91CF911F910895D5
:10102000893319F060E070E002C060E570E00E9472
:10103000F8070895882321F00E94E60F0E942A10E5
:101040000895882321F00E94EC0F0E942A10089531
:10105000A0E0B0E0EEE2F8E00C94C92E7C01162F7F
:10106000C72FFC01D281058102950F700E94DC0F11
:101070008823B9F0DD23A9F08C2F807F803421F004
:1010800080E2810F883068F080915A0782FF09C0A2
:1010900082E00E948C100E94DC0F91E0D82ED926AD
:1010A00001C0D12CCC2EC2948FE0C8228C2D90E0B0
:1010B0008C30910508F0A6C1FC01E559FF4F0C9456
:1010C000B92E8C2F807FCF70882311F0C295C07FFE
:1010D000DD2399F0CC2309F481C180E2810F8830AF
:1010E00010F0111104C08C2F0E94E60F03C08C2F4A
:1010F0000E94F90F0E942A1071C1812F0E94C0071F
:10110000CC2309F47FC180E2810F883038F11123AC
:1011100029F18C2F0E94FF0F24C08C2F807FCF706D
:10112000803211F0C295C07F112319F01130D1F136
:1011300046C080915A0782FD17C0DD2349F0CC23B9
:1011400029F08C2F0E94E60F0E942A1080E047C1F0
:1011500080E00E94C007CC2309F454C18C2F0E9468
:10116000EC0F0E942A104EC1DD2371F0002341F0E4
:10117000013031F40E9409108C2B0E94131042C1DF
:101180000E9409108C2B14C0011103C00E94201072
:1011900028C0013009F436C18C2F0E9421080E941A
:1011A000201030C1DD2339F0063008F02BC18C2F20
:1011B0000E941A0827C1053008F024C112C0DD239F
:1011C00019F00023A1F30AC1002359F0193309F0E3
:1011D00016C1FFEF27EE83E0F15020408040E1F799
:1011E0000CC18C2F0E9421080DC18C2F86958695ED
:1011F000837019F0813061F005C1DD2321F0812F6A
:101200009C2F937002C080E090E00E94322602C1C1
:10121000DD2321F0812F9C2F937002C080E090E0AD
:101220000E945726F7C06D2F812F0E946007F2C0E1
:101230008C2F8370B1F5D111E9C0412F42954695AD
:101240004770440F440F812F8F7090E09C01042E53
:1012500002C0220F331F0A94E2F714FF0AC08FE086
:1012600090E002C0880F991F4A95E2F7809590950B
:1012700002C080E090E0C695C695C370822B932B88
:10128000C23049F058F4C13019F00E940B0BBEC0B7
:101290000E94020BBBC00E94140BB8C00E94FF0A40
:1012A000B5C0DD2319F08C2F817001C0869588238D
:1012B00009F4ACC0412F429546954770440F440F46
:1012C000812F8F7090E09C01042E02C0220F331FEB
:1012D0000A94E2F714FF0AC08FE090E002C0880F82
:1012E000991F4A95E2F78095909502C080E090E0C2
:1012F000C695C695C370822B932BC23049F058F423
:10130000C13019F00E948F0B81C00E94860B7EC0F5
:101310000E94980B7BC00E94200B78C0CF70DD2309
:1013200039F08C2F0E94540B812F0E941A086EC036
:10133000812F0E9421088C2F0E94640B67C0123FEE
:1013400021F128F4103F41F0113FC1F043C0133F99
:1013500019F1143F79F03EC0DD2341F0053008F06B
:1013600051C08C2F8F710E94760B4CC0063008F054
:1013700049C0F7CF80915A0782FD18C0DD2339F0AC
:101380008C2F8F710E94540B3DC0DD23C9F38C2F2D
:101390008F710E94640B36C0DD2329F08C2F8F7172
:1013A0000E94480B2FC00E94270B2CC0DD2349F060
:1013B000CF718C2F0E94540B63E08C2F0E946E1013
:1013C00021C081E00E948C100230E0F082E00E9497
:1013D0008C1018C0DD2331F0002391F2812F0E9480
:1013E0006A0710C0002399F2193349F49FEFE7EE22
:1013F000F3E09150E040F040E1F700C00000812FA1
:101400000E94C00788EF8C0D843020F40E940226D1
:101410000E94EC06DD2089F00E94D80F80FD0DC0EF
:10142000F70112820E94D20F0E94540BC7010E9442
:10143000410A0E94D20F0E94640BCDB7DEB7E8E0EC
:101440000C94E52E0F931F93CF93DF93EC018E81C5
:101450009F81009719F00E94501205C06881798120
:101460008A810E94550C8C010E94A10B0E94F00AF7
:10147000B801CE010E942808DF91CF911F910F91F2
:101480000895CF93DF93EC01988189812B813C8172
:10149000232B31F08F3F31F481E09F3F19F403C0DB
:1014A00081E001C080E080FD1AC0CE010E94660686
:1014B00081110FC00E94DC0F882389F08A81882364
:1014C00071F080915A0782FF0AC082E00E948C105E
:1014D00006C0CE010E94220ACE010E943B06DF9187
:1014E000CF910895882321F00E94F90F0E942A10BD
:1014F0000895882321F00E94FF0F0E942A1008956A
:1015000080E090E00E94322680E090E00E94572622
:101510000E9406100E942A100E94051A0E94E619D5
:10152000089580910E0190910F010E94C4260E949F
:10153000800A08950E94F60F0E94910A08959295DC
:101540009F70963079F010F4925001C09A5092300A
:1015500068F4803F69F018F4883E40F409C0843F85
:1015600029F406C0883E20F0813F11F080E0089504
:1015700081E00895FC019081818123813481232BB6
:1015800031F08F3F31F481E09F3F19F403C081E0D7
:1015900001C080E080FD0EC086819781009719F020
:1015A0000E94501204C0808191810E944A0C0E94C6
:1015B0009F0A089580E00895A5E0B0E0E2EEFAE029
:1015C0000C94CF2E2596E2E00C94EB2EA8E0B0E030
:1015D000ECEEFAE00C94CF2E2896E2E00C94EB2E81
:1015E000089508950E94F10A08950E94F20A08954C
:1015F0000E94F50A90932A028093290208950E947E
:10160000F80A08952091290230912A02822B932B07
:101610000E94F80A08952091290230912A0282231B
:1016200093230E94F80A08952091290230912A02FA
:10163000822793270E94F80A08950E94F10A0895CC
:101640000E941D0B9093280280932702089580E04A
:1016500090E00E94200B0895009721F481E066231A
:1016600071F00CC021E030E002C0220F331F6A95F8
:10167000E2F72823392381E0232B09F480E0089541
:10168000682F80912702909128020E942C0B0895C8
:1016900021E030E0A90102C0440F551F8A95E2F70E
:1016A000CA010E94200B089521E030E002C0220F01
:1016B000331F8A95E2F78091270290912802822BAE
:1016C000932B0E94200B089521E030E002C0220FEE
:1016D000331F8A95E2F720953095809127029091EB
:1016E0002802822393230E94200B089521E030E0FA
:1016F00002C0220F331F8A95E2F780912702909152
:101700002802822793270E94200B08952091270208
:1017100030912802822B932B0E94200B0895209158
:10172000270230912802822393230E94200B0895E0
:101730002091270230912802822793270E94200BB4
:1017400008950895962F9770A1E001C0AA0F9A9569
:10175000EAF793E0769567959A95E1F7660F771F1C
:10176000660F771FFA01E60FF71F40E050E0682F81
:1017700070E090819B01042E02C0369527950A9453
:10178000E2F72170219529272A23292721934F5FEA
:101790005F4F4430510569F70895FB01782F77704A
:1017A00023E0969587952A95E1F7880F991F880F72
:1017B000991FE80FF91F40E050E080E0219130E0F0
:1017C000072E02C0369527950A94E2F72170332739
:1017D000042E01C0220F0A94EAF7822B4F5F5F4F5D
:1017E0004430510559F70895282F983070F485300A
:1017F00060F4862F622F70E025E0929F600D711DCE
:10180000112443E152E00E94A20B0895983070F435
:10181000853060F4292F90E063E172E035E0239F8A
:10182000800D911D11240E94CD0B089580E0089534
:10183000A0E0B0E0EEE1FCE00C94C82E7C01009149
:101840002702109128028091290290912A02082BE8
:10185000192BCFE0D0E0CC24C394D12CC6010C2EA0
:1018600002C0880F991F0A94E2F780239123892BE5
:1018700021F4219798F7B12C07C0BC2EB7018C2F0B
:101880000E9461130197A9F38B2DCDB7DEB7E9E074
:101890000C94E42ECF93DF93EC010E94180CBE0150
:1018A0000E946113DF91CF9108951F93CF93DF932F
:1018B000EB0190911202992321F0CB010E944A0C76
:1018C00013C0882349F0CB010E94180C182F682FF1
:1018D000CE010E94F40B04C0CB010E94060C182F0D
:1018E000BE01812F0E946113DF91CF911F91089556
:1018F000CF93DF93C0912B0280912C02C817B1F0D7
:10190000D0E0FE0183E0EE0FFF1F8A95E1F7E35D73
:10191000FD4F2081318142815381648175818681AF
:1019200097810E94E60A2196C770E6CFDF91CF919A
:10193000089520916D0230916E0240916F02509196
:1019400070026091710270917202809173029091A5
:1019500074020E94E60A089520912B0290912C02B5
:101960002917B1F030E0F90153E0EE0FFF1F5A954F
:10197000E1F7E35DFD4F5181561306C050815813C6
:1019800003C05281541306C02F5F3F4F2770E8CF2A
:1019900080E0089581E008951F93CF93DF938091B5
:1019A000720282958F7009F05AC080916F0288236D
:1019B00009F455C080912B0210912C0260916D02A8
:1019C00070916E02C0917002D091710291E06F3FF0
:1019D00009F090E0292F811709F441C0209721F0E8
:1019E0007F3F21F030E003C031E001C0322F90E0B2
:1019F00030FD32C0FC0133E0EE0FFF1F3A95E1F7F6
:101A0000DF01A35DBD4F11963C911197371324C0A0
:101A10003C91361321C012963C91129731111CC093
:101A200013964D915C9114974C1B5D0B4A3F5105E9
:101A300098F4809172028F70806180937202EE5CE4
:101A4000FD4F80818F70806180838DE692E00E94DF
:101A5000410A0E94780C03C001968770BCCFDF91C9
:101A6000CF911F910895A5E1B0E0E9E3FDE00C946A
:101A7000C32E8C0185E0F801DE01519601900D9294
:101A80008A95E1F7D8016C9011967C901197129687
:101A9000EC9012971396CD90DC90149760E08DE651
:101AA00092E00E9421064C0190916D0220916E02FD
:101AB00040917002509171024115510531F02F3F54
:101AC00031F481E09F3F19F403C081E001C080E060
:101AD00080FD9DC18DE6A82E82E0B82EF0906F02A9
:101AE000F601E41BF50BFF2009F456C18091720248
:101AF000EA3FF10508F002C1D80111964C91119707
:101B0000382F307F09F09DC042131FC02C9129133C
:101B10001CC0409173025091740216962D913C9115
:101B200017974217530789F4FE2CE1100EC08F70EF
:101B30008061809372020E94990CC5010E94410A43
:101B400080917202F80185837CC1C114D10439F0FF
:101B5000FFEF7F1206C081E06F1203C003C081E077
:101B600001C080E080FD03C081E08E2502C080E0DE
:101B700090E080FF17C04E2D672D862D0E94AC0C83
:101B8000882381F06DE672E0C4010E943905882344
:101B900049F08DE692E00E94410AEDE6F2E088E02D
:101BA000DF01BDC0C114D10439F0BFEF7B1206C004
:101BB00081E06B1203C003C081E001C080E080FDC2
:101BC00003C081E08E2502C080E090E0E82FE17044
:101BD000DE2E80FF2CC04E2D672D862D0E94AC0C72
:101BE000F82E811124C0698A7A8A89899A890E948B
:101BF0004A0C292F22952F70223018F0243090F4AF
:101C000005C09F7059F0811109C01BC19F7031F050
:101C1000D80115969C91907F09F413C1805E88309D
:101C200008F40FC1C8010E94410AFD2C0AC1FE2C14
:101C3000EE2009F406C180917202816080937202E5
:101C400073C042131CC0F8012081291318C04091B1
:101C5000730250917402268137814217530779F439
:101C6000E1100DC08583C8010E94410A88E0F80197
:101C7000ADE6B2E001900D928A95E1F7E0C0C801AF
:101C80000E94BA0A8823A1F1EE2091F120917202FC
:101C9000822F82958F7090E00297A4F080916D0260
:101CA00090916E029A8789871B86DD86CC862E8767
:101CB0008091730290917402988B8F87CE01099660
:101CC0000E94410A88E0F801ADE6B2E001900D9271
:101CD0008A95E1F70E94CC0C0E94990C0CC0F80187
:101CE0003181321719F1C8010E94BA0A811136C038
:101CF000C8010E94410AFF24F394A3C0382F307F0B
:101D000071F77C2DDD8ACC8AA3016E2D8D890E940E
:101D1000DC0A8DE692E00E94410A88E0D5011D921E
:101D20008A95E9F70E94990CF12C8BC02081291328
:101D3000DACF4091730250917402268137814217A5
:101D4000530789F6E110CFCF8583C8010E94410A6D
:101D500088E0D5011D928A95E9F773C0EE2041F223
:101D600020917202822F82958F7090E002970CF47E
:101D7000A9CF80916D0290916E029A8389831B8214
:101D8000DD82CC822E8380917302909174029887B9
:101D90008F83CE01019694CFEA3FF10550F5FE2CDA
:101DA000EE2009F4A5CFF8018181821314C080814F
:101DB000891311C02091730230917402868197813A
:101DC0002817390741F488E0ADE6B2E001900D92A2
:101DD0008A95E1F736C0C8010E94BA0A811172CF14
:101DE00080917202816080937202C8010E94410A50
:101DF00028C07C2DDD8ACC8AA3016E2D8D890E949E
:101E0000DC0A88E0D5011D928A95E9F718C0EE201A
:101E100009F46ECFC8010E94BA0AF82E882309F48B
:101E200067CF88E0F801ADE6B2E001900D928A95A7
:101E3000E1F78DE692E00E945A070E94CC0C0E94C6
:101E4000990C8F2D6596EEE00C94DF2EA0E1B0E0AA
:101E5000ECE2FFE00C94CF2E29873A874B875C8712
:101E60006D877E878F87988BCE0109960E94330DF0
:101E70008823E1F099858A852C853D85232B31F0D7
:101E80008F3F31F481E09F3F19F403C081E001C02E
:101E900080E080FD6FC029853A854B855C856D8526
:101EA0007E858F8598890E94E60A64C088E0FE01DD
:101EB0003996DE01119601900D928A95E1F77985A8
:101EC0006A854C855D854115510531F06F3F31F4D0
:101ED00081E07F3F19F403C081E001C080E080FD14
:101EE00049C0A0912C02B0E0CD01019687709927DE
:101EF00020912B0230E08217930709F442C07983C6
:101F00006A835D834C8393E0AA0FBB1F9A95E1F728
:101F1000A35DBD4F98E0FE01319601900D929A9518
:101F2000E1F780932C020E94780C24C028E0829F65
:101F3000C0011124835D9D4F0E94330D882371F1F0
:101F4000E0912B0288E0E89FF0011124E35DFD4F52
:101F5000208131814281538164817581868197819D
:101F60000E94E60A80912B0290E0019687709927E3
:101F700080932B0280912B0290912C028913D6CF53
:101F80000DC00E949A0A10922C0210922B02EDE6CC
:101F9000F2E088E0DF011D928A95E9F76096E2E0C1
:101FA0000C94EB2E80917D028595859585950895FD
:101FB00080917D028770089590917D02977081E0F5
:101FC00009F480E008958091880208959091880234
:101FD000892B8093880208958095909188028923A7
:101FE0008093880208958093880208951092880251
:101FF000089590918702892B809387020895809598
:102000009091870289238093870208951092870216
:10201000089580917E02089508950E940C100895FD
:102020000E940D10089590915A0792FF08C0909158
:102030007E02981721F080937E020E94101008956E
:1020400080917E02882329F010927E0280E00E9417
:1020500010100895CF93DF93E0910E01F0910F01DE
:10206000809188028083E0910E01F0910F019081B0
:1020700080918702892B808380917E02882381F062
:10208000E0910E01F0910F019081892B8083809166
:102090000E0190910F010E947C2681110E94201058
:1020A000C0910E01D0910F0148E050E065E772E069
:1020B000CE010E940A2F892B59F088E0FE01A5E786
:1020C000B2E001900D928A95E1F7CE010E941926A7
:1020D000DF91CF9108950E940C10089590915A07B6
:1020E00092FF11C098E0899F90011124262B209324
:1020F0007D020E94540B80917D0285958595859582
:102100000E946B1008950E94540B089510927D0256
:1021100080E00E946B10089520917D0280958223BB
:1021200080937D02982F977099F430E0482F082E05
:10213000000C550B2417350759F090915A0792FF60
:1021400007C08595859585950E94640B0E94861031
:10215000089590915A0792FB222720F9281769F0D9
:1021600080FB92F990935A078091590790915A07F2
:102170000E94F11082E00E948C10089580915A070D
:1021800082FB882780F991E089270E94A910089591
:1021900081E00E94A910089580E00E94A91008958E
:1021A0006FEF7FEF80E090E00E944C2F089580E079
:1021B00090E00E94282F21E0873E9E4F09F020E00A
:1021C000822F089582E090E00E94202F089583E0FE
:1021D00090E00E94202F089584E090E00E94282F34
:1021E0000895BC0184E090E00E944C2F0895AB015B
:1021F000BC018FE090E00E94402F0895AB01BC012C
:1022000083E190E00E94402F089560E070E0CB01F0
:102210000E94FE10089560E070E0CB010E94F7106C
:102220000E940511089567EE7EEF80E090E00E9425
:102230004C2F60E082E090E00E942E2F60E083E06F
:1022400090E00E942E2F10922A021092290260E044
:1022500074E184E090E00E944C2F60E086E090E022
:102260000E942E2F6FEF87E090E00E942E2F40E01B
:1022700050E0BA0188E090E00E94402F60E08DE0DD
:1022800090E00E942E2F40E050E0BA0188E190E0FB
:102290000E94402F60E087E190E00E942E2F40E0F6
:1022A00050E0BA018CE190E00E94402F60E070E0C5
:1022B00080E290E00E944C2F40E050E0BA0188E1BB
:1022C00090E00E94402F0E940B1108950E9413116C
:1022D00008958EE090E00E94202F91E0811101C0CE
:1022E00090E0892F0895682F8EE090E00E942E2FB5
:1022F00008950E948E2760939702709398028093AE
:10230000990290939A02609393027093940280933F
:1023100095029093960208950E947B160895089561
:102320000E948F1108950E948F1108950E949311A9
:1023300008950E948F1108950E94991108950E9496
:102340008F11089585E894E10E94F8250E949F115D
:102350000E949C1108950E9490110E948F1108956F
:102360000E94B0140E94EB060E949E1B08950E94DA
:1023700079270E9445140E9493160E94AB150E9473
:10238000B0110E94271B0E94A3160E949611089567
:102390000E947B1681110E941C200895AAE0B0E0E3
:1023A000E4EDF1E10C94C72E0E9400168BE8E82EB4
:1023B00082E0F82E670100E0F60111916F01802F95
:1023C0000E94CE1481270F5F083019F08823A1F3F3
:1023D00022C0811120C00E9482278C018091890235
:1023E00090918A020817190709F450C08FEF89836A
:1023F0008A831B820E9482278160782F9D838C8331
:1024000049815A816B818D810E94170710938A023E
:10241000009389023BC080919B0281FD0E94D414ED
:102420000E948C11A82E10E0812F0E94CE14B82E8D
:10243000F701C080C82611F100E0DD24D3948C2D73
:102440008D21B1F0AA20A1F00E831F8391E08B2D86
:102450008D2109F490E098870E9482278160782F6F
:102460009A8789874E815F8168858A850E941707D0
:102470000F5FDD0C053019F7F701B0821F5FFFEF2A
:10248000EF1AFF0A183081F60E9479110E94C811D4
:102490000E94271A0E94FE062A96EAE00C94E32E78
:1024A000CF93DF930E946613EC01811520E592071C
:1024B000E0F5811530E4930708F09FC0803E910558
:1024C00028F58D3C910508F096C0883A910570F486
:1024D000853A910508F085C08130910509F47EC0E8
:1024E00008F4DCC0049708F0DCC0D8C0813C91053A
:1024F00008F0D4C0C85AD0E0CC0FDD1FCE52DE4F5A
:102500000990D881C02DCE019464CCC0811540E2E1
:10251000940708F0B8C0811551E0950708F0C1C0D4
:10252000883E910508F4BDC0B9C0803662E59607C3
:1025300020F5803472E5970708F06CC0C03282E560
:10254000D80708F05EC0C11592E5D90708F489C024
:102550002C2F2695269560E2269F90011124C370AA
:1025600081E090E002C0880F991FCA95E2F7E90167
:10257000C82BD92BCE019D6895C0803A22E59207E1
:10258000E0F48F71C03832E5D30708F059C0869562
:10259000869570E2879F900111249C2F9370C1E073
:1025A000D0E0AE0102C0440F551F9A95E2F7EA0150
:1025B000DA68C9018C2B9D2B75C0803C42E59407DD
:1025C00008F445C0803E924508F068C0CF71DD2711
:1025D000DC2FCC27CE01806F906A64C081E090E050
:1025E00061C0C55AD0E0CC5FDD4F8881C82FD0E0F4
:1025F000CE01906457C0906555C0DF70CE01906ADF
:1026000051C0CF718C2F90E0D82FCC27CE01816F95
:10261000906A48C08F718695869570E2879FA00169
:1026200011249C2F937021E030E0B90102C0660FA5
:10263000771F9A95E2F7CB019C68842B952B32C0CB
:1026400090E0D82FCC27CE01846F906A2BC08F7179
:102650000E9402148F7190E0D82FCC27CE01906297
:1026600021C08C2F8F710E94021495E0D695C795DA
:102670009A95E1F7CF70D0E0DC2FCC27D069BE016E
:10268000682BCB010FC08D2F8F710E940214DD27A4
:10269000D0628F719E01382BC90104C080E090E0A8
:1026A00001C0CE01DF91CF910895783038F46530C4
:1026B00028F4462F672F0E945F05089580E090E080
:1026C00008950E9455130E94501208958238910572
:1026D00069F1B0F48133910509F475C048F4893289
:1026E000910509F467C08A32910509F471C0089513
:1026F0008533910509F459C089339105B9F00895DE
:10270000833E910589F138F4803E9105D1F0823EF7
:10271000910529F10895863E9105C9F1873E9105FD
:10272000D9F1843E910509F06CC027C0209159076A
:1027300020FD57C021FD55C020915A0723FD5BC0E5
:1027400008958091590780FD48C080915A0780FF05
:1027500048C08091590784FD46C083EE51C08091E6
:10276000590782FF3CC0F5CF8091590782FD37C0E1
:1027700080915A0780FD35C0ECCF80915A0781FFC8
:1027800036C08091590784FD2EC087EE39C08091F4
:10279000590783FF2AC0F5CF8091590783FD25C0D3
:1027A00080915A0781FD23C0ECCF8091590785FDA8
:1027B00022C01FC08091590785FD1BC080915A0718
:1027C00083FF19C00AC08091590786FD16C017C043
:1027D0008091590786FD13C010C089E311C082EEB5
:1027E0000FC080EE0DC080E00BC086EE09C084EE05
:1027F00007C085E305C089E203C08AE201C081E326
:1028000090E008959091590792FF0DC0282F2871EC
:10281000283019F4877F846006C0282F2471243063
:1028200011F48B7F886093FF0DC0282F2871283109
:1028300019F4877E846106C0282F2471243111F495
:102840008B7E886120915A0720FF0DC0382F387188
:10285000383019F4877F816006C0382F31713130EC
:1028600011F48E7F886021FF0DC0282F2871283138
:1028700019F4877E816106C0282F2171213111F45E
:102880008E7E886194FD877E089510925507109280
:10289000560710925707109258070895CF92DF926B
:1028A000EF92FF926B017C010E947B1681110EC09A
:1028B0000E948E27C61AD70AE80AF90AC09255075D
:1028C000D0925607E0925707F0925807FF90EF908A
:1028D000DF90CF9008950F931F930E947B1688235B
:1028E00019F00E948E270EC00E948E270091550776
:1028F000109156072091570730915807600F711FAC
:10290000821F931F1F910F91089580E008950E94E8
:10291000D0100895CF930E9400168FE39CE9019791
:10292000F1F700C000000E9400160E947816811185
:1029300002C0C4E001C0C0E08C2F0E94CE1490E021
:1029400002C095958795CA95E2F780FF04C00E9462
:1029500087140E94EB27CF9108950E948A1408954E
:102960000E94D710811102C00E9466110E94E210DD
:1029700080939B020E94EC1090935A078093590712
:102980000E94AD140E94E71090E00E94FF0A80911F
:102990002702909128020E941D0B0895E82FF0E075
:1029A000EC59F84F80810895089508950E94D51438
:1029B00008950E94D61408950E94D51408950E9487
:1029C000DC1408950E94D5140895A4E0B0E0EBEE65
:1029D000F4E10C94CD2E0E947B1660916C07882345
:1029E000E9F119821A821B821C82862F90E08E01E7
:1029F0000F5F1F4FB8018C59984F0E94B116882362
:102A000089F080915B0790E044E050E0B8018C5978
:102A1000984F0E940A2F21E020939C02892B69F491
:102A200010E019C080919C028823D1F384E0F80162
:102A300011928A95E9F710929C02E0915B07F0E011
:102A4000EC59F84F89819A81AB81BC818083918355
:102A5000A283B38311E00E944A060DC070E06C5956
:102A6000784F80915B0790E08C59984F0E943A17FD
:102A70000E94E21410E0812F2496E4E00C94E92EE9
:102A8000CF93DF9340E151E0A1E0B0E020E030E0FF
:102A9000FA01E20FF31F80818F3FA1F0E82FE2954A
:102AA000EF70F0E061A18F70ED0102C0CC0FDD1F6F
:102AB0008A95E2F7CE019C2F9095962391A392A13F
:102AC000892B82A32F5F3F4F2530310509F74B5FDC
:102AD0005F4FD1E044325D07C9F6DF91CF91089591
:102AE0000F931F93CF93DF93EC01062F10E085E047
:102AF000689FB001112440E050E0B1E0A0E0CA01BD
:102B0000860F971F805F9E4FFC0190819F3FA1F031
:102B1000292F22952F7030E0F90120A130E09F701D
:102B200002C0359527959A95E2F720FD02C08B2FBC
:102B300002C080E090E0A82BBB0F4F5F5F4F453095
:102B40005105E9F6F801EC0FFD1FA083DF91CF914D
:102B50001F910F910895A4E1B0E0E1EBF5E10C9431
:102B6000CF2E80912401811125C084E1E5E5F1E0BB
:102B7000DE01119601900D928A95E1F7CE01019642
:102B800040E151E0BE016B5E7F4F20E030E0FA0192
:102B9000E20FF31FDC01A20FB31FAC91A0832F5FE4
:102BA0003F4F2530310599F705964B5F5F4F8617EC
:102BB000970759F780912401811102C094E001C068
:102BC00090E090936C0784E0891B80935B070E94E0
:102BD000401588E0E4E6F7E0DF01982F1D929A9512
:102BE000E9F7ECE5F7E0DF011D928A95E9F784E06B
:102BF0000E943E160E9447066496E2E00C94EB2E7B
:102C0000A8E0B0E0E6E0F6E10C94CC2E8E010F5F78
:102C10001F4F88E0F80111928A95E9F7F12C6F2D8A
:102C2000C8010E947015F394F4E0FF12F8CF48E059
:102C300050E0B8018CE597E00E940A2F21E0009750
:102C400009F420E0892B41F088E0F801ACE5B7E019
:102C500001900D928A95E1F760916C0770E06C59D4
:102C6000784F44E08CE597E00E943F16182F0E94B1
:102C7000E514812B2896E5E00C94E82E0895EF9258
:102C8000FF920F931F93CF93DF937C018B01C42F8F
:102C9000222349F081E080939F020E948227909333
:102CA0009E0280939D0280919F02811102C080E06C
:102CB0001AC080919D0290919E020E949A270597CA
:102CC000B0F3D0E0AE01B701C8010E940A2F892BF2
:102CD00039F0AE01B701C8010E94172F81E001C091
:102CE00080E010929F02CDB7DEB7E6E00C94E72EAD
:102CF0000E94691108958091A20281110DC00E9465
:102D0000982E811102C082E001C081E08093A2026E
:102D1000823011F40E94932E81E09091A2029130B2
:102D200009F080E008950E94D710811102C00E942E
:102D300066110E947816809324010E947B168111EF
:102D40000E94E91608950E947B16811102C00E941C
:102D5000EC16089581E09091A3029A3008F080E08B
:102D600008950F931F93CF93DF93EC018B01809114
:102D7000A3028A3038F4B801CE010E9437178111BE
:102D80001DC00AC08091A0029091A1020E949A27C2
:102D9000843F914080F715C08091A3028F3F19F0C6
:102DA0008F5F8093A3028091A3028A3060F00E941B
:102DB00082279093A1028093A00203C01092A302E5
:102DC00002C080E001C081E0DF91CF911F910F919F
:102DD00008950E94922408950E9495240895A0E0E9
:102DE000B0E0E5EFF6E10C94CA2E7901C82F880F08
:102DF000DD0B41155105A9F0FE0193E0EE0FFF1F19
:102E00009A95E1F7EB5DFE4F818192818C559D4F44
:102E1000208130E04217530708F49A01A9010E946B
:102E2000172FCE010E947D25D82E8823D1F00115C1
:102E30001105B9F083E0CC0FDD1F8A95E1F7FE01A3
:102E4000EB5DFE4F438150E00417150708F4A8011D
:102E5000CB5DDE4F6C817D816C557D4FC7010E943B
:102E6000172F8D2DCDB7DEB7E7E00C94E62E0E942C
:102E7000341808950E944B180895A4E0B0E0E3E4EC
:102E8000F7E10C94CD2E6091B9027091BA02809155
:102E9000BB029091BC020E94A9276436710581058E
:102EA000910528F10E946B14DC01CB010296A11D53
:102EB000B11D89839A83AB83BC8300E010E020E0DE
:102EC00030E044E050E0BE016F5F7F4F82E00E943F
:102ED000EF16182F882361F00E948E276093B902A5
:102EE0007093BA028093BB029093BC0201C011E0C0
:102EF000812F2496E4E00C94E92EA0E0B0E0E3E812
:102F0000F7E10C94C72E7C015B016A010E94AA16AE
:102F1000811103C001E010E002C00AE010E0C1E04E
:102F2000D0E0B501C701F6010995811115C02196C0
:102F30000C171D0794F0CC9F9001CD9F300D300DE4
:102F4000112480E090E045E34A95F1F700000196F6
:102F500082179307C1F7E5CF81E0CDB7DEB7EAE08E
:102F60000C94E32EA5E0B0E0E8EBF7E10C94C72E5B
:102F70005B01E0900702F090080201E010E09E0182
:102F80002B5F3F4F40E050E060E070E080E00E9447
:102F9000EF16182F882309F43EC067018FEFC81A77
:102FA000D80A6091B5027091B6028091B7029091F3
:102FB000B8020E94A927643671058105910518F1B0
:102FC00004E010E09E012F5F3F4F40E050E060E0E2
:102FD00070E081E00E94EF16182F64E070E0C601F7
:102FE0000E94281B91E02D81281390E0192351F1B4
:102FF0000E948E276093B5027093B6028093B70249
:103000009093B80211C064E070E0C6010E94281BD2
:103010009D818913D5CFF70181819281A381B481EC
:1030200089839A83AB83BC83112361F089819A8160
:10303000AB81BC818093B1029093B202A093B302A2
:10304000B093B4028091B1029091B202A091B30208
:10305000B091B402F50180839183A283B383812F61
:103060002596EAE00C94E32E0F931F93CF93DF9302
:10307000EC018B0142EB57E10E947D17882331F070
:103080004DE357E1B801CE010E947D17DF91CF914A
:103090001F910F9108950F931F93CF93DF93C091CA
:1030A0000702D0910802CE01019624E0FB01DC0169
:1030B00001900D922A95E1F764E070E00E94281BD0
:1030C00088836D817E818F8198850091AD021091FA
:1030D000AE022091AF023091B002601771078207F3
:1030E000930751F06093AD027093AE028093AF02EC
:1030F0009093B0020E944E14DF91CF911F910F91D7
:1031000008950E9466290E94B7110E9473290895AC
:103110000E9478290E94CE110E94922908950E944F
:1031200019270E944C290E94A2110E9481180E9416
:1031300088180E94AB11FBCF8091C30280FF06C0AC
:103140006091420170E0660F771F26C081FF04C0C6
:103150006091420184E005C082FF07C06091420196
:1031600088E0689FB001112417C09091C202992392
:10317000D1F060914101961788F72091420188E0D3
:10318000289F90011124929FA001939F500D11241C
:1031900070E0CA010E94A52E6038710540F46115E7
:1031A000710519F406C068E070E0862F08958FE776
:1031B000089581E008958091C30280FF08C0609166
:1031C0003E0170E0759567957595679521C081FF03
:1031D00006C060913E0170E07595679519C082FF49
:1031E00004C060913E0170E010C09091C10299232B
:1031F00099F060913D019617A0F780913E01899F5B
:10320000C001112470E00E94A52E6038710540F4C1
:103210006115710519F406C061E070E0862F08950C
:103220008FE7089581E008958D3C21F40E949C1859
:10323000819504C08E3C29F40E949C188093C7029B
:1032400008958F3C21F40E949C18819504C0803D14
:1032500029F40E949C188093C6020895893D19F4B0
:103260000E94DB1805C08A3D31F40E94DB1881956D
:103270008093C80208958B3D21F40E94DB1881954C
:1032800004C08C3D29F40E94DB188093C902089584
:103290009FE2980F983078F421E030E0A90102C055
:1032A000440F551F9A95E2F7CA019091C502892BE8
:1032B0008093C50208958D3D21F48091C302816001
:1032C0000BC08E3D21F48091C302826005C08F3D0A
:1032D00029F48091C30284608093C30208958D3CD9
:1032E00039F49091C70297FF35C01092C70259C0B8
:1032F0008E3C29F49091C7021916BCF32BC0909113
:10330000C6028F3C29F497FF25C01092C60249C01F
:10331000803D19F41916CCF31DC09091C802893D67
:1033200029F41916BCF41092C8023BC08A3D19F466
:1033300097FF10C0F8CF8B3D39F49091C90297FFE9
:1033400009C01092C9022DC08C3D21F49091C90290
:103350001916BCF39FE2980F983080F421E030E01A
:10336000A90102C0440F551F9A95E2F7CA01809542
:103370009091C50289238093C50213C08D3D21F42D
:103380008091C3028E7F0BC08E3D21F48091C302D9
:103390008D7F05C08F3D29F48091C3028B7F809380
:1033A000C3028091C602811106C08091C7028111BB
:1033B00002C01092C2028091C802811106C08091A1
:1033C000C902811102C01092C10208950E94822791
:1033D0002091C602211104C02091C702222321F0AE
:1033E0009093C0028093BF022091C802211104C0B3
:1033F0002091C902222321F09093BE028093BD0246
:1034000084EC92E00E9424260895E4ECF2E086E049
:10341000DF011D928A95E9F71092C2021092C10253
:103420001092C3020895FC01828181110DC0838135
:1034300081110AC08481811107C091E085818111C9
:1034400001C090E0892F01C081E081700895A6E05D
:10345000B0E0EDE2FAE10C94CE2E86E0E4ECF2E08E
:10346000DE01119601900D928A95E1F71092C60245
:103470001092C7021092C8021092C9028B8181116A
:1034800004C08C81882309F45FC08091BF029091B1
:10349000C0020E949A27AC019091C202992339F090
:1034A0002091430130E02417350758F04DC020919A
:1034B00044018AE0289F900111242417350718F051
:1034C00043C09F3F19F09F5F9093C2021B8111235D
:1034D00061F00E949C18111614F09FEF01C091E05A
:1034E000989F902D11249093C6021C81112361F0A6
:1034F0000E949C18111614F09FEF01C091E0989F54
:10350000902D11249093C7023091C6023323E1F02D
:103510002091C7022223C1F045EB3403C0011124DE
:10352000992319F09093C60203C081E08093C602EC
:1035300035EB2303C0011124992319F09093C7029E
:1035400003C081E08093C7028D81811104C08E8108
:10355000882309F45FC08091BD029091BE020E9451
:103560009A27AC019091C102992339F020913F0133
:1035700030E02417350758F04DC0209140018AE013
:10358000289F900111242417350718F043C09F3F4E
:1035900019F09F5F9093C1021D81112361F00E9479
:1035A000DB18111614F09FEF01C091E0989F902D49
:1035B00011249093C8021E81112361F00E94DB1830
:1035C000111614F09FEF01C091E0989F902D1124E7
:1035D0009093C9023091C8023323E1F02091C902CF
:1035E0002223C1F045EB3403C0011124992319F0C3
:1035F0009093C80203C081E08093C80235EB230397
:10360000C0011124992319F09093C90203C081E0ED
:103610008093C902BE016F5F7F4F84EC92E00E94ED
:10362000CB26811105C084EC92E00E94131A81110F
:103630000E94E61986E0FE013196A4ECB2E001900A
:103640000D928A95E1F72696E3E00C94EA2E089510
:10365000FC01680F791F8FEF91E3E617F70771F010
:103660002191822728E030E087FF03C0880F892757
:1036700001C0880F21503109B9F7EFCF0895FB0140
:103680002281222341F097FF06C0BC017F7780E0B2
:1036900090E00E94921C81E008950F931F93CF93B6
:1036A000DF93EC018B01FB018281882329F10E94C9
:1036B000E30F8272FE01E053FC47E830F105E0F4CD
:1036C000E958FF4F0C94B92E882329F002C08111CC
:1036D00002C08FEF01C081E00E94B01B0DC080E0EE
:1036E00009C081E007C082E005C083E003C084E038
:1036F00001C085E00E94B81BB801CE010E943F1BAB
:10370000DF91CF911F910F91089590916E079230A4
:1037100071F48A3040F490E009966AE070E00E940B
:10372000A52E875A01C086500E94100808950E9455
:10373000931E089508950E949A1B08958CE090E0CE
:103740000E94202F90E0A0E0B0E080936E0790935D
:103750006F07A0937007B09371070E949B1B089599
:10376000089560916E078CE090E00E942E2F0895DE
:10377000CF93C82F80936E070E94B11B8C2F0E949D
:103780009B1BCF9108950E94162680936D07909100
:103790006E07913029F481FF03C089E30E9410086D
:1037A0000E94E30F809372070E94F60F0E9406109A
:1037B00080916E078230D9F038F48823A1F08130EF
:1037C00089F588E193E02CC0843019F1853051F5FA
:1037D0008BE191E00E94E10585E290E00E94E10525
:1037E00088E290E01DC082EE0E946A071BC08091B3
:1037F0006D0780FD03C083E50E94100882EE0E94E1
:103800006A078FE39CE90197F1F700C0000087E5A4
:1038100004C086EE0E94100888E10E94100802C0D1
:103820000E94E1058FE39CE90197F1F700C00000D9
:10383000089580916E078230E1F028F4882361F0CA
:10384000813071F023C08430F9F08530F9F488E2DA
:1038500090E00E94E1051AC082EE0E94C00716C0E7
:103860008CE20E94100880916D0781FF0FC089E3F0
:1038700008C082EE0E94C00780916D0780FD06C0DF
:1038800083E50E94100802C088E2FBCF8091720796
:103890000E94F30F08958F929F92AF92BF92EF9282
:1038A000FF920F931F93CF93DF934B015C01D09155
:1038B0006E078CE1E82EF12C07E010E021E0D50145
:1038C000C4010E2C04C0B695A795979587950A94C8
:1038D000D2F7C82FCF70222369F0D43031F4CA3028
:1038E00020F080E00E94851B05C0C11103C0043098
:1038F000110524F48C2F0E94851B20E00150110932
:1039000084E0E81AF1080F3F8FEF1807C1F6DF9146
:10391000CF911F910F91FF90EF90BF90AF909F902C
:103920008F900895CF92DF92EF92FF92611571050B
:1039300021E18207910508F03FC06115710521E082
:103940008207910520F020916E072230A9F16B01CA
:103950007C010E94C31BC114D10481E0E806F1047C
:1039600028F180916E07811121C021E0E21AF1084F
:10397000D701C60188279C7FAF70BB272AE0B69588
:10398000A795979587952A95D1F7BC01CD017852D7
:103990008F4F9F4F0E944B1C83E0D822EE24FF24C0
:1039A000C701B60174528F4F9F4F02C0C701B601C5
:1039B0000E944B1C0E94191CFF90EF90DF90CF904B
:1039C0000895CF93DF93FC01DB0112968C9188233D
:1039D00009F4DDC09F0130572332310508F0D8C00B
:1039E000EF010E94EC1090935A0780935907FE0153
:1039F000E150F047E232F10520F4E158FF4F0C941A
:103A0000B92E809159078160AAC080915A078860B9
:103A1000B2C0809159078260A2C08091590720C02E
:103A20008091590788609BC080915A071EC0809181
:103A30005A078260A0C080915907806190C0809130
:103A4000590780628CC080915907806488C00E94A9
:103A50009A0A80915907806882C0809159078860CE
:103A600084607DC080915A078260816084C08091AB
:103A700059078E7F74C080915A07877F7CC08091E0
:103A800059078D7F6CC08091590720C080915907DC
:103A9000877F65C080915A071EC080915A078D7F2D
:103AA0006AC0809159078F7E5AC0809159078F7DD7
:103AB00056C0809159078F7B52C00E949A0A80910C
:103AC00059078F774CC080915907877F8B7F47C0FC
:103AD00080915A078D7F8E7F4EC08091590782FB5F
:103AE000222720F991E0922790FB82F990FB83F93D
:103AF00036C080915A07982F909591708E7F892BB0
:103B000090FB81F938C08091590786FB222720F964
:103B100091E0922790FB86F922C00E949A0A809138
:103B2000590787FB222720F991E0922790FB87F91C
:103B300016C081E001C080E00E9473111EC0809118
:103B4000590784FB222720F991E0922790FB84F902
:103B500006C080915907982F909590FB80F980932B
:103B600059070BC080915A0783FB222720F991E067
:103B7000922790FB83F980935A078091590790917F
:103B80005A070E94F1100E949A0A80E001C081E069
:103B9000DF91CF910895A0E0B0E0E1EDFDE10C945C
:103BA000CA2EE82FF0E0E05DFA4FD490282F26953A
:103BB0002695269530E0F901E053FA4F049187707D
:103BC00010E0082E02C0159507950A94E2F70170DF
:103BD0001127F901E054FA4FE490F12C082E02C0AD
:103BE000F594E7940A94E2F791E0E922FF24F901C1
:103BF000E055FA4FC491D0E002C0D595C7958A959B
:103C0000E2F7C170DD270115110519F081EE0E9460
:103C10006A07E114F10419F086EE0E946A078D2DFF
:103C20000E941008E114F10419F086EE0E94C0070A
:103C30000115110519F081EE0E94C007CD2B19F076
:103C40008CE20E941008CDB7DEB7E7E00C94E62EB8
:103C5000EF92FF920F931F93CF93DF93EC01162FF8
:103C60000AE08881882309F455C0813009F043C0F7
:103C70008981813041F47E0182E0E80EF11C8A8165
:103C80000E94100809C0823049F47E01E2E0EE0E85
:103C9000F11C8A810E946A07E7012FC0833041F43A
:103CA0007E01F2E0EF0EF11C8A810E94C007F4CF82
:103CB000843011F0219621C02A81229680E090E084
:103CC00030E0205331092A30310558F4089FA00113
:103CD000099F500D1124C901840F951F2196288139
:103CE000EFCF009751F0EFE9FFE03197F1F700C017
:103CF00000000197F6CF0E94CB1D2196812F8823CB
:103D000009F4AFCFEFE9FFE03197F1F700C0000011
:103D10008150F5CFCDB7DEB7E6E00C94E72E60E03A
:103D20000E94281E0895982F9F709A50963010F088
:103D3000805D01C0895A0E94CB1D089508950F939C
:103D40001F93CF93DF9380913503882309F459C0E3
:103D5000C091CA021CE080913503C81708F04DC01D
:103D600001E00C0F0093CA02D0E01C9FF0011D9FE0
:103D7000F00D1124EB52FD4F90818181238134811C
:103D8000232B31F08F3F31F481E09F3F19F403C0C2
:103D900081E001C080E080FD2EC01C9FD0011D9FEE
:103DA000B00D1124AB52BD4F16968D919C91179773
:103DB000892B61F418968D919C9119978F3F2FEF65
:103DC000920721F061E00E949E1E0AC0208131818D
:103DD0004281538164817581868197810E94260F7B
:103DE0001C9FF0011D9FF00D1124EB52FD4F14821A
:103DF00013820E940610C02FAECF1092350310928E
:103E0000CA02DF91CF911F910F910895109237034D
:103E1000109236032091460130914701E0E0F1E035
:103E200080E090E08217930741F04581411102C084
:103E30001482168201963796F5CF0895BC01409101
:103E4000D3028091D402942F981729F1292F30E0C2
:103E5000F901EE0FFF1FE553FD4F0190F081E02DBA
:103E6000E617F70799F487E0869FF001879FF00D2A
:103E70001124E050FF4F81E0848394130CC02F5F26
:103E80003F4F237033272093D30208952F5F3F4F76
:103E9000922F9370D9CF0895A0E0B0E0E2E5FFE162
:103EA0000C94C42EEB012C8121115EC0709035035F
:103EB000A5EDB2E020E030E0812C61E070E0271554
:103EC00008F050C01A96AD90BC901B97C880D9805E
:103ED0004FEF5FEF912CE92CF12CF701EE0FFF1F54
:103EE000EC0DFD1D05911491A016B10609F4A70172
:103EF0000115110511F09394EECF4F3FEFEF5E07E0
:103F000069F1FB0102C0EE0FFF1F4A95E2F78E2A0E
:103F1000AB01092C02C0440F551F0A94E2F741502F
:103F20005109E82DF0E04E175F07A1F44A815B814B
:103F30006CE0629FF001639FF00D1124EB52FD4F86
:103F4000578346832EEF208321839187808721E04A
:103F50002D8308C014961C921E9213972F5F3F4F1B
:103F60001C96ADCF0E941E1FCDB7DEB7EDE00C94BE
:103F7000E02E1F93CF93DF93C091D30217E080917F
:103F8000D402C817A1F0D0E0FE01EE0FFF1FE553E9
:103F9000FD4F80819181189FB001199F700D1124F0
:103FA00060507F4F0E944C1F2196C370E8CF0E9443
:103FB0009F1E0E94061FDF91CF911F910895FF92CF
:103FC0000F931F93CF93DF93DC010C911196FC901C
:103FD000119780E090E020E0E02FFF2DE20FF11D2F
:103FE000E20FF11D4591549141155105B1F0FB01CE
:103FF0001081318190E0E12FF32FE90FF11DE90FDE
:10400000F11DC591D491209731F04C175D0709F44B
:1040100081E09F5FF0CF2F5FDFCF882321F09217E1
:1040200028F0CD0104C080E090E001C0CB01CDB705
:10403000DEB7E5E00C94E82E80914501882341F13C
:104040008091380390913903009711F10E949A27CB
:10405000209136033091370328173907C8F490911F
:10406000D3028091D402981759F00E94B91F109280
:1040700037031092360310923903109238030895D3
:104080000E949F1E10923903109238030E94061F4F
:1040900008951092390310923803109245018091CF
:1040A000D4028093D3020E94061F0E949F1E08958F
:1040B00080914501882319F00E944920089581E0EC
:1040C000809345010895ABE0B0E0E9E6F0E20C949E
:1040D000BF2E4C016B0180352CE7920741F4FB01A8
:1040E00012811123B1F081E080934501A7C1813590
:1040F000FCE79F0739F4FB011281112351F00E9464
:1041000049209CC182359C4721F4FB011281111189
:104110000EC000E011E0A12CB12C1B866624639434
:10412000712C9E012F5F3F4F3A8729873EC00E9426
:10413000582084C1FFEFEF16FF0609F436C1F801DD
:104140008481811155C080914501882309F450C0B4
:104150009601A401B801C5010E942C058170F601E9
:104160003280F80195812681332009F4BBC0882371
:1041700009F4B8C0992309F43EC09301052C02C08C
:10418000220F331F0A94E2F721503109F80186818A
:1041900090E02817390709F444C0FB85F329FB8711
:1041A0002FEFA21AB20A095F1F4F8091460190912A
:1041B0004701A816B90608F0FAC0F801208131813C
:1041C0009FEF8FEF512CE52CF12CF701EE0FFF1F25
:1041D000E20FF31F459154918416950611F0E92ED4
:1041E000F82E452B09F4A6CF53949E2D8F2DEBCF9F
:1041F00080E090E0B3CFC3010E2C01C0880F0A9479
:10420000EAF7282B2683809136039091370388970D
:1042100008F0B3CF28E230E0309337032093360321
:10422000ACCF8091380390913903009741F00E9400
:104230009A27899720F021E0F8012483AECF2090BF
:10424000D30280E090E02091D4022216A9F1E22C62
:10425000F12CF701EE0FFF1FE553FD4F2081318157
:1042600047E0429FC001439F900D1124FC01E050A4
:10427000FF4F2F01B801CF010E94DF1F0097A9F067
:1042800021E0FC0124830817190709F486CF209147
:10429000D30222120AC04816590639F497012F5F3B
:1042A0003F4F237033272093D30297012F5F3F4F57
:1042B000422F4370242EC7CF0817190709F46DCF7A
:1042C000E22CF12CF701EE0FFF1FE553FD4FB182F9
:1042D000A0828FEFE81AF80A93E0E922FF24E09227
:1042E000D4025BCF911117C0A301052C02C0440F6B
:1042F000551F0A94E2F74150510930E04217530725
:1043000009F045C0F8019481992309F441C0C50121
:104310000E941E1F3CC0822F90E09C012150310959
:10432000282339230E2C02C0959587950A94E2F72D
:10433000232B59F580FF29C0F80182819381892BB5
:10434000E1F0E985FA8528E011922A95E9F73EEF38
:1043500039833A830E9482278160582F9D838C8302
:10436000F801828193818F83988729813A814B81DB
:104370006D817E810E94260F04C060E0C5010E940D
:104380009E1EF801158281E003C0817001C080E0AB
:1043900093010E2C01C0220F0A94EAF72095F80130
:1043A000968129232683382EF8CE312CF6CEF601BD
:1043B0008281882379F1FB85FF2361F10E948227A6
:1043C000909339038093380380913503883098F5B2
:1043D00091E0980F9093350398E0F601DE01119675
:1043E00001900D929A95E1F72CE0829FC001112473
:1043F0008B529D4F28E0FE013196DC0101900D9219
:104400002A95E1F72FEF3FEFFC0131872087938654
:10441000828611C09091D3028091D402981719F02E
:104420000E94B91F08C00E949F1E1092390310926B
:1044300038030E94061F11E0FB851F27812F2B9652
:10444000E2E10C94DB2E0895089508950E94252240
:10445000089581E008950F931F93CF93DF93EC01AC
:104460008B010E9423220E949A0A0E94270B198323
:104470000883DF91CF911F910F910895AF92BF9262
:10448000CF92DF92EF92FF921F93CF93DF93EC01D5
:104490006B01142FE0902702F09028020E949A0AE4
:1044A0000E94270B88E0180250011124CC15DD056D
:1044B00031F0CE010E94410ACA0DDB1DF7CF0E94E8
:1044C0009A0AC7010E94200B812F0E942622DF91A9
:1044D000CF911F91FF90EF90DF90CF90BF90AF9062
:1044E00008950F931F93CF93DF93EB01F80132816F
:1044F000A881B981311103C0A817B907D1F038E0FC
:104500002302C0011124BD01681B790B4617570710
:1045100061F028E001900D922A95E1F72881398118
:10452000820F931F9983888304C0BF01822F0E944A
:104530002422DF91CF911F910F910895CF92DF92A6
:10454000EF92FF920F931F93CF936C018B01C42FB7
:104550007901842F0E94252288E0C802A00111243D
:104560005195419551090C151D0559F4F701118319
:104570000083CF911F910F91FF90EF90DF90CF902C
:104580000895F801E40FF51F8281882379F38F01E4
:10459000EACF0F931F93CF938B0120913C072111FA
:1045A00039C0FB01C281C11182C08435FCE79F077D
:1045B000E9F060F483359C4709F079C06AE373E061
:1045C0008AE397E00E942B2281E017C08635ECE752
:1045D0009E07B1F087359C4709F069C0609148019A
:1045E000709149014FEF82E397E011C062E377E0F9
:1045F0008AE397E00E942B2282E080933C075AC016
:1046000060914A0170914B0141E08AE393E00E947E
:104610003E2250C0AC0143555C474330510530F554
:1046200031E085359C4709F430E0F8018281831739
:1046300009F43FC0213061F02230A9F460913A07BB
:1046400070913B0728E431E04FEF82E397E009C027
:1046500060913A0770913B072AE431E041E08AE338
:1046600093E00E949E2210923C0723C00E942922C0
:10467000C82F8823E1F080913C07813061F08230BF
:10468000C9F440914A0150914B012FEF6AE377E062
:1046900082E397E009C0409148015091490121E02F
:1046A0006AE377E08AE393E00E94712203C0C1E0ED
:1046B00001C0C0E08C2FCF911F910F910895CF932F
:1046C000DF9386319C4741F5EB010E94E30F982F61
:1046D0008A8120910E0130910F01882379F09A7A16
:1046E00081E009F480E080933D07911102C069E206
:1046F00001C065E3C9010E94BE260AC080913D0742
:10470000811102C069E201C065E3C9010E94C126AE
:104710000E942A1080E001C081E0DF91CF910895CE
:104720000F931F93CF93DF93C42FD22FFC0182816D
:104730008823B1F0409340070E94822790933F075F
:1047400080933E0780E28C0F883008F04DC0C77020
:1047500081E001C0880FCA95EAF70E941A0844C098
:1047600080914007481330C080913E0790913F07E9
:104770000E949A278A3F910538F510E21D0FCD1748
:10478000B9F080E28C0F883040F4C77081E001C03E
:10479000880FCA95EAF70E942108183010F581E0C9
:1047A0009D2F977001C0880F9A95EAF70E941A080A
:1047B000802F0E9410081830B8F4D77081E001C033
:1047C000880FDA95EAF70AC080E28C0F883060F42F
:1047D000C77081E001C0880FCA95EAF70E942108DE
:1047E00003C0802F0E941008DF91CF911F910F917D
:1047F00008950F93FC01E851FC47E730F10590F56F
:10480000CB01EF55FF4F0C94B92E06E221EE41EE9D
:104810006AE17CE723C007E225EE45EE6BE17CE729
:104820001DC006E221EE40EE68E17CE717C007E21A
:1048300025EE44EE69E17CE711C006E221EE42EE8E
:104840006CE17CE70BC007E225EE46EE6DE17CE70C
:1048500005C008E221E045EE6EE17CE70E9490236E
:1048600080E008C0FB018281882319F01092400784
:1048700001C081E00F9108958EE14A9B02C08150F2
:10488000E1F74A9BFECF08955A9880E28A95F1F7A6
:104890005A9A0895FC012AE02A95F1F728E090E061
:1048A00080E031E040E14A95F1F7880F4A9B02C071
:1048B0008160932700C0000040E14A95F1F7215044
:1048C00089F720E12A95F1F729B100C0000030E115
:1048D0003A95F1F722FB222720F992272081920FA7
:1048E00090830895A1E0B0E0E8E7F4E20C94CB2EC9
:1048F00019828C017C01E60EF11C0E151F0551F08A
:104900000E943C24CE0101960E944A24F801819322
:104910008F01F3CF81E09981911180E02196E6E04B
:104920000C94E72E529A5A9A089552985A9AEA9AF3
:10493000E9E6F0E080818F7C80830895615091E00A
:1049400001C0990F6A95EAF720E031E0992361F000
:10495000492F482319F05A9A232701C05A9840E258
:104960004A95F1F79695F2CF222311F05A9A01C099
:104970005A9880E28A95F1F75A980895FF920F931A
:104980001F93CF93DF93EC018C01060F111DC0170D
:10499000D10741F0F9900E94442468E08F2D0E94D5
:1049A0009E24F5CFCDB7DEB7E5E00C94E82E1F923C
:1049B0000F920FB60F9211240F931F932F933F93D3
:1049C0004F935F936F937F938F939F93AF93BF9317
:1049D000EF93FF93CF93DF931F92CDB7DEB719828A
:1049E0000E943C24CE0101960E944A24082F06957D
:1049F00006950695902F96959570202F2570920F0D
:104A0000292F237096959695920F877089135FC012
:104A1000898181115CC0043008F059C080E18A9519
:104A2000F1F75A9A529A82E08A95F1F700C05A98A3
:104A300088E0089F80011124D801AB5DBE4F169617
:104A4000ED91FC9117973097A9F060910702709152
:104A5000080214962D913C911597260F371F119639
:104A60008D919C911297680F791F13964C91139713
:104A70008C910995F801EB5DFE4F6381662351F03F
:104A8000809107029091080224813581820F931F43
:104A90000E94BE240E94442480E18A95F1F75A982E
:104AA00052985A9A80E18A95F1F7F801EB5DFE4F32
:104AB0006081662351F08091070290910802218164
:104AC0003281820F931F0E9472240E943C240F9017
:104AD000DF91CF91FF91EF91BF91AF919F918F9116
:104AE0007F916F915F914F913F912F911F910F9106
:104AF0000F900FBE0F901F9018950F931F93CF9399
:104B0000DF93843091050CF06DC0EC01F894529A5B
:104B10005A9885E08A95F1F700009C2F969595703C
:104B20002C2F2570920F892F83709695969523E0F0
:104B3000CC0FDD1F2A95E1F7980F8E01092B0E94FB
:104B4000442484E08A95F1F700C068E0802F0E9439
:104B50009E2480E18A95F1F752985A9A4A9902C0A8
:104B600000C0FCCF87E090E04A9B08C0019721F489
:104B7000529A5A9A789436C000C0F6CFFE01EB5D87
:104B8000FE4F6381662381F08091070290910802B5
:104B900024813581820F931F0E947224811104C0E9
:104BA000529A5A9A78941FC00E943C2480E28A95B7
:104BB000F1F75A98529A80E18A95F1F7CB5DDE4F72
:104BC0006881662351F08091070290910802298143
:104BD0003A81820F931F0E94BE240E94442478943D
:104BE00081E001C080E0DF91CF911F910F91089586
:104BF00090930B0280930A02089590934707809345
:104C0000460708950E947B16811103C080914107D9
:104C10000895E0914607F0914707309729F00190F9
:104C2000F081E02D0995089580E008950E94022604
:104C30000895E0914607F0914707309721F00280F0
:104C4000F381E02D09950895E0914607F09147071B
:104C5000309739F022E0DC012C930480F581E02DBF
:104C600009950895A3E0B0E0E8E3F6E20C94CF2EB6
:104C7000209144073091450728173907A1F09093F8
:104C8000450780934407E0914607F0914707309726
:104C900051F023E029839B838A830680F781E02DEE
:104CA000CE01019609952396E2E00C94EB2EA3E049
:104CB000B0E0EDE5F6E20C94CF2E20914207309162
:104CC000430728173907A1F09093430780934207C1
:104CD000E0914607F0914707309751F024E029838F
:104CE0009B838A830680F781E02DCE01019609958A
:104CF0002396E2E00C94EB2EFC01329697E080E0E4
:104D0000915029F021912223D9F38F5FF9CF089593
:104D1000662349F0FC01329608962191621729F02A
:104D2000E817F907D1F780E0089581E008959C0124
:104D3000FC0132969FEF80E04191461789F09F3F3A
:104D400019F4411101C0982F8F5F8630A9F79F3F5A
:104D500039F0F901E90FF11D97FDFA956283089585
:104D600008959C012A5F3F4FFC014281461301C018
:104D70001282019682179307B9F708950E94972629
:104D800008950E94B1260895029626E0FC01119232
:104D90002A95E9F7089546E050E00E940A2F21E0A5
:104DA000892B09F420E0822F089508950E94D526CA
:104DB000089583E0809348070E94D62608958111C4
:104DC00002C081E001C082E0809348070E94D6269D
:104DD00008950E94DF26089581E0809348070E948D
:104DE000D62608950E94EC26089508950E94F5267F
:104DF00008950E94F62608950E94F52608950E94BF
:104E0000F52608950E94F5260895CF930E94FF2667
:104E10000E9400160E94FC26C0E08C2F0E94CE1437
:104E2000811104C0CF5FC830C1F701C081E0CF91CC
:104E3000089585B7806885BF85B7806885BF089568
:104E40001F920F920FB60F9211248F939F93AF93DF
:104E5000BF9380914907811113C08091730790918E
:104E60007407A0917507B09176074196A11DB11DF9
:104E70008093730790937407A0937507B093760798
:104E8000BF91AF919F918F910F900FBE0F901F9088
:104E9000189580917B07843031F10E94CB061092E7
:104EA000490720E488E190E00FB6F894A895809334
:104EB00060000FBE2093600083B7817F846083BF52
:104EC00083B7816083BF7894889583B78E7F83BFD3
:104ED0000FB6F894A8958091600088618093600077
:104EE000109260000FBE08950E949A0A0E94D00698
:104EF000089582E084BD93E095BD9AEF97BD8093BD
:104F00006E0008952FB7F8948091730790917407FD
:104F1000A0917507B09176072FBF08952FB7F89429
:104F2000609173077091740780917507909176076F
:104F30002FBF08959C014FB7F8948091730790910B
:104F40007407A0917507B09176074FBF821B930B32
:104F50000895CF92DF92EF92FF922FB7F894C0900E
:104F60007307D0907407E0907507F09076072FBF15
:104F7000A7019601261B370B480B590BCA01B90133
:104F8000FF90EF90DF90CF90089578941F920F924A
:104F90000FB60F9211248F939F93AF93BF9380917D
:104FA000730790917407A0917507B09176070196E9
:104FB000A11DB11D8093730790937407A09375078B
:104FC000B0937607BF91AF919F918F910F900FBED5
:104FD0000F901F90189587E797E7909301088093AB
:104FE00000089AE088E10FB6F894A89580936000D5
:104FF0000FBE90936000FFCF9AE088E10FB6F8945F
:10500000A895809360000FBE90936000FFCF8091C1
:10501000520708959B0190917B079430F1F48F70B3
:105020008093E9008FEF9091E800815095FD06C0D4
:1050300095ED9A95F1F700008111F5CF8091E80088
:1050400085FF0BC0BA01C90140E050E00E94052A6B
:105050008091E8008E778093E800089543E050E067
:10506000BC0182E00E940A28089546E050E0BC019D
:1050700082E00E940A280895CF93DF93EC0148E074
:1050800050E0BC0181E00E940A2888E0FE01AAE409
:10509000B7E001900D928A95E1F7DF91CF910895E5
:1050A00080917A07811109C00E94902B0E94ED2BFC
:1050B0008091E20084608093E200089510927A0764
:1050C00008950E94F22608956091770781E06111AA
:1050D00001C080E00E94D926089590917B0781E06D
:1050E000943009F080E0609177070E94DF260895F0
:1050F00042E061EC81E00E94092B42E261EC82E037
:105100000E94092B90917B0781E0943009F080E0A8
:10511000609177070E94E926089580917D0783308A
:1051200009F461C030F4813071F0823009F49BC021
:1051300008958A3009F487C08B3009F46CC0893037
:1051400009F0A9C020C080917C07813A09F0A3C072
:105150008091E800877F8093E8008091800790919C
:105160008107892B21F468E08AE497E003C060E0BE
:1051700080E090E070E00E944A2A8091E8008B77FE
:105180008093E800089580917C07813209F083C004
:105190008091800790918107029708F07CC08091F0
:1051A000E800877F8093E8008091E80082FD05C0D9
:1051B00080917B078111F8CF6EC02091F300809120
:1051C000F20090E0922B029731F48091F10081304F
:1051D00011F0863021F48091F10080935207809184
:1051E000E8008B7754C080917C07813A09F053C066
:1051F0008091800790918107892B09F04CC08091A4
:10520000E800877F8093E8008091E80080FFFCCF72
:105210008091540137C080917C078132E1F5809103
:10522000800790918107892BB1F58091E800877FF5
:105230008093E8000E943E2B80917E07809354016A
:105240000E949A0A089580917C07813221F580910D
:10525000E800877F8093E8000E943E2B80917F07C3
:1052600080935307089580917C07813AA1F480913F
:10527000E800877F8093E8008091E80080FFFCCF02
:10528000809153078093F1008091E8008E7780939E
:10529000E8000E943E2B089584B7877F84BF0FB635
:1052A000F894A895809160008861809360001092C6
:1052B00060000FBE90E080E80FB6F8948093610024
:1052C000909361000FBE0E94EC2608950E94902BDF
:1052D0000E94ED2BE2EEF0E0808184608083789480
:1052E0000E94782E08958CE491E00E94FD25089597
:1052F00080917B078530A9F480917B07853079F414
:105300000E944927809179078823B1F30E940527DD
:10531000882391F30E94EF290E949A0AEDCF0E9400
:105320007427089508950E9496290895292F3327F8
:1053300023303105C9F060F42130310581F022308D
:10534000310509F044C08BE390E02AE036E043C029
:1053500021323105E1F02232310549F138C082E1D4
:1053600090E025E436E037C099278130910549F077
:1053700028F0029761F5E0EEF5E005C0E6E0F6E022
:1053800002C0ECEFF5E0849190E09F0124C061152C
:10539000710541F061307105D1F489E090E025E3B9
:1053A00036E019C089E090E02CE136E014C06115C8
:1053B000710541F06130710551F48BE790E027E50C
:1053C00036E009C080E490E022ED36E004C080E0E1
:1053D00090E020E030E0FA0131832083089580E1FD
:1053E00089BD82E189BD09B400FEFDCF8091D8005E
:1053F0008F7D8093D8008091E00082608093E000F0
:105400008091E00081FDFCCF0895A0E0B0E0EBE0EA
:10541000FAE20C94C92EEC018B017A010E945D2BFB
:10542000811133C0E114F10439F0F70180819181D9
:10543000081B190BC80FD91FC12CD12C0115110540
:1054400019F18091E80085FD16C08091E8008E7703
:105450008093E800E114F10449F0F7018081918123
:10546000C80ED91ED182C08285E00FC00E945D2B7C
:10547000882321F30AC089918093F100015011091A
:10548000FFEFCF1ADF0ADACF80E0CDB7DEB7E8E072
:105490000C94E52E20918207309183072617370759
:1054A00048F06115710539F42091E8002E772093BA
:1054B000E80001C0B901FC0120E06115710579F136
:1054C00080917B078823F1F18530F1F18091E8002C
:1054D00083FD3CC08091E80082FD2EC08091E800F1
:1054E00080FFEBCF2091F3008091F20090E0922BAF
:1054F0006115710551F08830910538F421912093A0
:10550000F100615071090196F3CF21E0089709F08D
:1055100020E08091E8008E778093E800CECF2111C3
:10552000CFCF0AC080917B07882361F0853061F07E
:105530008091E80083FD0AC08091E80082FFF2CFED
:1055400080E0089582E0089583E0089581E0089561
:1055500020918207309183072617370748F061159D
:10556000710539F42091E8002E772093E80001C0FE
:10557000B901FC0120E06115710591F180917B0773
:10558000882309F440C0853009F43FC08091E800C9
:1055900083FD3DC08091E80082FD2FC08091E8002E
:1055A00080FFE9CF2091F3008091F20090E0922BF0
:1055B0006115710559F08830910540F424912093CC
:1055C000F1003196615071090196F2CF21E0089700
:1055D00009F020E08091E8008E778093E800CBCF3F
:1055E0002111CCCF0AC080917B07882361F08530E0
:1055F00061F08091E80083FD0AC08091E80082FF9D
:10560000F2CF80E0089582E0089583E0089581E07C
:105610000895982F973068F59093E900981739F01E
:105620007091EC002091ED005091F00003C0242F08
:10563000762F50E021FD02C09F5FECCF3091EB0050
:105640003E7F3093EB003091ED003D7F3093ED00D5
:105650003091EB0031603093EB007093EC002093BD
:10566000ED005093F0002091EE0027FDE5CF80E0A3
:1056700008958F708093E90081E0089580917C0700
:1056800087FF11C08091E80082FD05C080917B07F3
:105690008111F8CF11C08091E8008B770BC0809109
:1056A0007B07882349F08091E80080FFF8CF809144
:1056B000E8008E778093E80008952091E40030910F
:1056C000E50095E64091EC00842F817040FF23C0F7
:1056D0008091E80080FD1DC080917B07882399F0B0
:1056E000853099F08091EB0085FD11C04091E40078
:1056F0005091E5002417350729F3915011F09A01D4
:10570000E1CF84E0089582E0089583E0089581E088
:10571000089580E008954091E80042FFDDCF0895AC
:105720000E94FF2B0E94072CE0EEF0E08081816058
:105730008083E8EDF0E080818F77808319BCA7ED4E
:10574000B0E08C918E7F8C9380818F7E80831092CD
:105750007A0708950F931F93CF93DF930E94FF2B37
:105760000E94072CC8EDD0E088818F7788838881DC
:105770008068888388818F7D888319BC10927B071D
:1057800010927707109279071092780700EE10E0D8
:10579000F80180818B7F808388818160888342E0EB
:1057A00060E080E00E94092BE1EEF0E080818E7FD6
:1057B0008083E2EEF0E08081816080838081886078
:1057C0008083F80180818E7F8083888180618883D7
:1057D000DF91CF911F910F910895E8EDF0E0808166
:1057E0008F7E8083E7EDF0E080818160808384E0BC
:1057F00082BF81E080937A070E94AA2B0895E8ED8A
:10580000F0E080818E7F80831092E20008951092F4
:10581000DA001092E10008951F920F920FB60F92D6
:1058200011242F933F934F935F936F937F938F93A5
:105830009F93AF93BF93EF93FF938091E10082FF1B
:105840000BC08091E20082FF07C08091E1008B7F56
:105850008093E1000E94772E8091DA0080FF1FC0C4
:105860008091D80080FF1BC08091DA008E7F8093EA
:10587000DA008091D90080FF0DC080E189BD82E10E
:1058800089BD09B400FEFDCF81E080937B070E94B3
:10589000502805C019BC10927B070E945E28809199
:1058A000E10080FF19C08091E20080FF15C0809167
:1058B000E2008E7F8093E2008091E200806180931D
:1058C000E2008091D80080628093D80019BC85E006
:1058D00080937B070E9464288091E10084FF30C0A0
:1058E0008091E20084FF2CC080E189BD82E189BD06
:1058F00009B400FEFDCF8091D8008F7D8093D80041
:105900008091E1008F7E8093E1008091E2008F7EA4
:105910008093E2008091E20081608093E2008091B8
:105920007707882311F084E007C08091E30087FDAA
:1059300002C081E001C083E080937B070E946D2854
:105940008091E10083FF29C08091E20083FF25C0A0
:105950008091E100877F8093E10082E080937B0764
:10596000109277078091E1008E7F8093E100809113
:10597000E2008E7F8093E2008091E200806180935C
:10598000E20042E060E080E00E94092B8091F0009C
:1059900088608093F0000E946128FF91EF91BF9191
:1059A000AF919F918F917F916F915F914F913F91B7
:1059B0002F910F900FBE0F901F9018951F920F926E
:1059C0000FB60F9211242F933F934F935F936F93D2
:1059D0007F938F939F93AF93BF93CF93DF93EF9377
:1059E000FF93C091E900CF708091EC00D82FD17067
:1059F00080FDD0E81092E9008091F000877F8093CD
:105A0000F00078940E94222D1092E9008091F0001D
:105A100088608093F000CD2BCF70C093E900FF9198
:105A2000EF91DF91CF91BF91AF919F918F917F9136
:105A30006F915F914F913F912F910F900FBE0F90FB
:105A40001F901895AAE2B0E0E8E2FDE20C94CE2E99
:105A5000ECE7F7E08091F100819327E0E438F2076A
:105A6000C9F70E948D288091E80083FF2EC18091A4
:105A70007C0790917D07492F50E04A30510508F08E
:105A800024C1FA01E855FF4F0C94B92E803821F05B
:105A9000823809F01AC108C080917807909179077F
:105AA000992389F082600FC0809180078F708730C2
:105AB00008F00BC18093E9008091EB0085FB8827FB
:105AC00080F91092E9009091E800977F9093E800A8
:105AD0008093F1001092F100D1C0282F2D7F09F0A2
